:020000040800F2
:103C0000A0120020E13C0008C53F0008AD3D0008BF
:103C100000000000000000000000000000000000A4
:103C20000000000000000000000000000340000849
:103C300000000000000000000140000805400008EE
:103C4000F33C0008F33C0008F33C0008F33C000898
:103C5000F33C0008F33C0008F33C0008F33C000888
:103C600000000000F33C0008F33C0008F33C0008AF
:103C7000F33C0008F5400008F33C00080000000099
:103C8000F33C0008F33C000800000000F33C00088F
:103C9000F33C0008F33C0008F33C0008F33C000848
:103CA000F33C0008F33C0008F33C0008F94000082E
:103CB000F33C0008000000000000000000000000CD
:103CC000F33C000800000000F33C00080348854670
:103CD00000F034F8004800479D4C0008A012002076
:103CE0000448804704480047FEE7FEE7FEE7FEE79A
:103CF000FEE7FEE709400008CD3C0008D2B201E033
:103D00000270401C491EFBD270470022F6E710B536
:103D100013460A4604461946FFF7F0FF204610BD39
:103D200030B504460020034600E05B1C934203D2FA
:103D3000E05CCD5C401BF8D030BD0000064C012596
:103D4000064E05E0E36807CC2B430C3C9847103443
:103D5000B442F7D3FFF7BEFF18E9000838E90008BE
:103D600070B50446002903D000202022012310E072
:103D7000002801D00020C043C046C0460DE02546C3
:103D8000D5408D4205D30D469540641B1D46954098
:103D900040191546521E002DF1DC214670BD000071
:103DA000014800687047C046A0000020FEE7000000
:103DB000D748807F7047C046D548C07F7047C0460F
:103DC0002020D349085C704780B50920C00641F225
:103DD000000100F0CDFE4142484180BDF0B581B008
:103DE000491E814201D200252BE014460701BD1C6B
:103DF00000F03AFE0646625FE05FB16809180020F5
:103E000000F02EF8B81D225E381D205EF1680918FA
:103E10000125284600F024F838460A30225E38464C
:103E20000830205E0A21414330694018411D0220BC
:103E300000F016F8284600F0D1F80E37E05F00F0E9
:103E40005DF9284601B0F0BD80B56C48402100F016
:103E50008BFE40F2E83080BC02BC8E4600F0C6BB50
:103E6000B0B5032820D8164B99421C461DDDF8B981
:103E70009C4220DD012800D0234612498B4200DC01
:103E80001946022800D019468400A14B1951642A12
:103E900000DC642245005D196A841A19D2689142D7
:103EA00002D0181801210176B0BD0C460028DFD0E1
:103EB0000C469C42DEDC23460128DDD1DDE7C0460E
:103EC0003075000050070300F0B5914A107E517E16
:103ED0000143937E00200B4300D0F0BD8D490B7849
:103EE000042BFAD89C0001A52C19A74600F008B8AD
:103EF00000F03DB800F01AB800F023B800F033B875
:103F0000137B0C3BDBB2032B0DD89C000025155115
:103F10005D00551940F2E8366E841419E46814B156
:103F2000D2180123137601220A70F0BD0123D37643
:103F300040F2F4145484947F04B9137603220A7077
:103F4000F0BD0123137740F2F4149484D47F04B9B4
:103F500053765377C824D4842024145D04B993760F
:103F600004220A70F0BD002048700120F0BD137CCF
:103F70000C3BDBB2032B0DD89D00012454515E0095
:103F8000961940F2E83777845519ED68012D01D074
:103F9000D218147602220A70F0BDC0465C48017E39
:103FA000427E0A43807E1043411E88417047C046CE
:103FB0005748C168026940690A4302435042504170
:103FC0007047C0467047000001460C4811B10221FD
:103FD00000F0CCBD022100F0C7BDC04610B50146BF
:103FE000064821B10124214600F0C0FD03E0012173
:103FF00000F0BAFD00244748C47010BD000400481A
:104000007047704700F0E4BAF0B43448021F1368F8
:1040100001210B43136013689B07FCD50368304CE8
:104020001C40046004682F4B1C40046014682E4D33
:1040300025401560846A0F25AC438462C46A40F24F
:104040000315AC43C4620C04C56AA543C562CD0721
:10405000C66AAE43C662056B8D43056300254560A5
:104060001568254315604C04204D16686F1EAF423D
:1040700002D226403D46F8D0156825422DD01C4D71
:104080002E68022426430527BE432E60056805607E
:104090000568056005680560856A0D4385620568E9
:1040A0001D4005601D231B0405681D4305600B06AC
:1040B00015681D43156013689B01FCD50268032336
:1040C0009A43026002682243026002681207FCD52C
:1040D000C8060021F0BC00F06BBFFEE704100240F0
:1040E0000C00FF08FFFFC277FFFFF2FEFF07000092
:1040F0000020024001F080B901F0BCBB64383221DD
:10410000E04A5054411E8841024908717047C04638
:104110001800002094000020F0B583B01C460291E6
:104120000746813F00F09AFC152F00D9A2E12346F3
:104130000646254644357834B80001A1081887465C
:1041400000F02AB800F034B800F04DB800F092B991
:1041500000F053B800F06CB800F06FB800F072B81F
:1041600000F077B800F0A4B800F001B900F082B90F
:1041700000F080B900F07EB900F000B900F007B996
:1041800000F027B900F038B900F03CB900F046B9AA
:1041900000F04BB900F057B902980078092800D90F
:1041A00068E102202870029A1078C000BB490AE03A
:1041B00002980078112800D95CE103202870029A47
:1041C0001078C000B44940180838006818651078A5
:1041D00000229A642A7401222270C0004018001F35
:1041E0000068D86446E1AB480121297000229A6436
:1041F000D96418652A7421703CE11F46A448022145
:1042000001F002FC7078032806D1A020FFF776FFAA
:1042100040F2D07000F0EAF96420FFF76FFF002051
:10422000B864FF21297028740120207003B0F0BD0C
:1042300002980078FFF7D2FE1CE102980078FFF7A1
:10424000C3FE17E102980078002800D10FE13C205E
:104250000EE100F003FC8D4C5A212170817A02910D
:104260004178019181780091C57806794779837901
:10427000C279017A407A2073E172A2726372277266
:10428000E6718920E070A5710D20A0700098607122
:1042900000206070019820710298401C6073E01C3F
:1042A0000B2101F06BFCE073000AA07310218EE07B
:1042B00001202874002129702070029A107851780A
:1042C00009020818917809044018D17809064018A5
:1042D00098651079517909020818917909044018F4
:1042E000D179090640189866107A517A090208189F
:1042F000917A09044018D17A09064018D865107BD4
:10430000517B09020818917B09044018D17B0906EA
:104310004018D866107C517C09020818917C090469
:104320004018D17C090640181866107D517D09029D
:104330000818917D09044018D17D090640181867B6
:10434000107E517E09020818917E09044018D17E22
:10435000090640185866107F517F09020818917F9E
:1043600009044018D17F09064018586782E0029876
:104370000078411E884100F0FFFF7BE0BFF34F8FC4
:104380007A487B490160BFF34F8F00BFFDE700F023
:104390006BFB3E4C9021E1700621A1700021617001
:1043A0005A2121708168C2680069642390FBF3F090
:1043B000A07192FBF3F0607191FBF3F02071E01CAF
:1043C000042101F0DBFB2072000AE0710921204684
:1043D00052E0029D287841B264246143002000F03D
:1043E0008FFF01202956614300F08AFF02202956E1
:1043F000614300F085FF3DE002980078194600F027
:104400005FFD37E00298007840B264214143002507
:1044100028461C4600F074FF284610E002980078F9
:1044200040B264214143012005E00298007840B287
:104430006421414302201C4600F062FF0020214617
:1044400000F03EFD16E002980078FFF7C7FD44201B
:10445000714963220A54782001220A545420002210
:104460000A54094806238A64CB64086502E0642084
:10447000FFF744FE0648022103B0F0BC04BC964698
:1044800001F0C2BA18000020B8E800085C02002061
:104490006DE8000854E8000894E700082CE50008DF
:1044A00070B5002000F072F9002845D00446284D70
:1044B00090212846FFF729FC2E460C360020314675
:1044C000224600F06FF923A007223146FFF728FCAF
:1044D00098B322A007223146FFF722FC20B92148D9
:1044E000016821A001F06CFB287B5A2824D1A87B0D
:1044F000697B09020818C11E2981A1B26918CA7A0C
:10450000897A090289186981801E81B228460F3094
:1045100001F034FB698988420ED18C202C52294647
:1045200010316960E87B287000223B4B039CA64653
:1045300070BC01B0FFF7F0BD70BD01F085F9BFF3AD
:104540004F8F0A480A490160BFF34F8F00BFFDE754
:10455000CC000020757067726164650076657273C7
:10456000696F6E0014000020257300000CED00E060
:104570000400FA0570B5124C204600F0A1FE601C44
:1045800000F09EFE0F4D012100240F4E28462246CA
:10459000334600F0F2FA032228462146334600F063
:1045A0000DFB4021284600F02CFB0920C006074BDC
:1045B00021462246039CA64670BC01B000F0DDBA3D
:1045C0001105000000040048FFFF0000031900006F
:1045D0000948016811B10168491E0160024801687B
:1045E000491C01607047C046A000002002490860D5
:1045F00008680028FCD17047A400002080B5064858
:104600007C21FFF782FB0548002181720181016056
:1046100041600121417080BD1800002094000020FD
:10462000142141433B480A5801239A430A507047DA
:104630001421414337480A58012313430B50704754
:104640001421414333480A5820239A430A507047A3
:1046500010B5142242430949521853680124A34358
:104660005360002353609360D360136180000F2276
:10467000824008681043086010BDC0460400024034
:10468000B0B514224243234813580124A3431350C6
:1046900013180C689C608C68DC600C8A5C60135892
:1046A00043F60074A3434C681C43CB6823434C6916
:1046B0001C4314500B7E5B1E5C425C41A3011458EA
:1046C0004025AC43E31813504B7E5B1E5C425C41BB
:1046D000E30114588025AC43E3181350897E4B1E28
:1046E0009941090113581024A34359181150B0BD22
:1046F00014224243014811507047C0461400024042
:104700001421414303480A5844F200039A430A50D3
:104710007047C046080002401422424388B2044950
:104720005050704714214143014808587047C04613
:104730000C000240F0B581B004460020A1421FD316
:104740000D46E10E1CD00F498D4219D800F0FCF83F
:10475000342000F0BBF8281B850A002640F20047F1
:1047600020460949084000F0BDF8E419761CB0B2B3
:104770008542F5D2342000F0A9F800F0ABF8012012
:1047800001B0F0BD0000010800FCFFFF0146002061
:10479000012906D889004C4A515811B10A6802B162
:1047A0008868704770B50C4601460020012929D859
:1047B0008900454B5D582DB3296819B314B30AB36A
:1047C000AE68FEB1964200D31646686900B18047D4
:1047D0002969304604E0641CAA68521EAA6068B1C8
:1047E0004A1C2A61097821702A6869685318401E9A
:1047F00029699942EFD32A611146ECE7A86910B103
:104800008047304670BD304670BDC046F0B581B0BF
:10481000002401281ED887002B48C059D0B90D4666
:104820001C2001F0FDFAA8B10646284601F0F8FA6E
:10483000044650B12448C0190660002030C63060DC
:104840007460B460F060306102E0304601F0BEFA9E
:10485000601E8441204601B0F0BDC04670B50C46D4
:104860000146002001292BD88900174B5D583DB324
:10487000296829B324B31AB36968AB68CE1A1FD06C
:10488000964200D31646686900B18047E968304611
:1048900004E0641CAA68521CAA6068B122784B1C10
:1048A000EB600A702A6869685318401EE9689942EB
:1048B000EFD3EA601146ECE7A86910B180473046B3
:1048C00070BD304670BDC046A80000203D4908605C
:1048D0007047C0460248016880220A430260704760
:1048E00010200240B0B50146364A374C0520234619
:1048F0001568ED0702D05B1CFAD3B0BD1068C00686
:1049000013D41068400802231840F6D150681843A9
:10491000506091605068402101435160052011684A
:10492000C90704D0641CFAD309E00420B0BD1068A4
:10493000C00603D410684008184000E00420516805
:1049400099435160B0BDC0460448C168090603D50B
:1049500003490160034901607047C04604200240DA
:1049600023016745AB89EFCD70B50246154B164C58
:10497000052025461E68F60702D06D1CFAD370BDCF
:104980001868C00610D41868400802263040F6D1D6
:104990005868012528435860116005201968C90727
:1049A00004D0641CFAD309E0042070BD1868C00666
:1049B00003D418684008304000E004205968A94337
:1049C000596070BD0C2002400000F1FF70B5044634
:1049D000064D074E2846314601F08BF80028F9D0E5
:1049E000E1B2284601F056F8204670BD003801407B
:1049F0000707000070B5174B0E4A1A600E4D0124D0
:104A00002A46DE68264012B1521C002EF9D100223F
:104A100076B959600221DE680E4015B16D1C002E7A
:104A2000F9D12EB905490840986007481860224618
:104A3000104670BD555500000200F0FFFF0F00004A
:104A40000448014901607047AAAA000001480249D0
:104A50000160704700300040CCCC00000048704737
:104A600094000020002070478B487047F0B588B054
:104A70000F23DD43036AD40701D02B400B4303957A
:104A8000F024E6430F0194070297054601D5334011
:104A90003B432F4F08025407069001D53B40034388
:104AA0002C4F08031407079501D53B4003430F041F
:104AB000D4060196009702D5274C23403B43274E4E
:104AC0000F05940601D533403B43254D0E06540691
:104AD000049601D52B4033430597224D0F0714064A
:104AE00001D52B40DB19079D6C6A2B62D30502D5DB
:104AF000039B1C400C43069B154D910503D5019962
:104B00000C4002990C43134E510501D52C401C4317
:104B1000124B144D110501D534400443D10403D583
:104B20000D480440009804430598910401D51C40A9
:104B3000044304980A4B510401D51C40044311045A
:104B400001D52C40E4190798446208B0F0BDC04676
:104B5000FFF0FFFFFF0FFFFFFFFFF0FFFFFF0FFF63
:104B6000FFFFFFF0FFFFFF0F816270478161704719
:104B700000690840411E88417047F0B582B001933A
:104B800005680090C0680026374603E0B61C7F1C0D
:104B9000102F0ED0019BFB40DB07F7D01346B3402C
:104BA0000324B440A04318430B46B340A5431D4320
:104BB000ECE700990D60C86002B0F0BDF0B581B0BF
:104BC000012902D14168194301E0416899434160DC
:104BD0000090816800240320264603E0A41C761C74
:104BE000102E0AD01F46F740FF07F7D01746A74000
:104BF0000546A540A9433943F0E70098816001B01C
:104C0000F0BD41617047FFF71BBF0000B0B540F633
:104C1000001440F6001000F0D9FA0A4D40F60010DA
:104C200000F0DEFA290402D06D1E0028F6D0C4344C
:104C300004212046FFF7DEFEB0BC01BC8646FFF72C
:104C400005BFC046FFFF000070B5114A108811492A
:104C5000884210D110490B4630CA30C370CA70C3A5
:104C60008A780AB900228A60CA780AB90022CA6022
:104C7000097939B903E0084900228A60CA60064907
:104C800000220A614AF6BA31411A4842484170BDD1
:104C900000F80008BAAB0000B80000200120C006F0
:104CA00043F6004100F084F900F080FBE12040026F
:104CB00000F010FE15A000F083FFFFF79FFCFFF748
:104CC00059FC00F039F8FFF7BFFF00F0EBF8FFF7F1
:104CD000BBF811A000F074FF00F064FFFFF7F4F8D8
:104CE00008B900BFFAE7FFF791FF0FA000F068FFD7
:104CF0000124FFF788FFFFF7D3FB00F04BF800F02B
:104D000061F92046FFF772FCF3E7C04673746172E5
:104D100074696E672E2E2E00676F746F207A65722D
:104D20006F2E2E2E00000000737461727420737554
:104D30006363657373000000B0B584B00D20022179
:104D400000F002F9114800F0BBFA114C204600F0C7
:104D5000C3FC694600200873642202920190472038
:104D60000090204600F0FAFC01252046294600F07C
:104D70005FFD204600F0AAFC204600F0E9FC20463A
:104D8000294600F043FD04B0B0BDC0460B0600004C
:104D9000002C0140F0B581B0FFF760FE407908B10A
:104DA00001B0F0BDFFF75AFE4078022805D101B0EE
:104DB000F0BC01BC8646FFF787B878263F4DA85D5A
:104DC00058B30024AC554427E95D03292AD80420B0
:104DD0008A0001A39A18974600F006B800F02CB894
:104DE00000F03BB800F038B85420295C00294DD0C1
:104DF0002C54062000F0BCFAAA6EA96D2046FFF7DD
:104E00002FF8EA6EE96D0120FFF72AF82A6F296E64
:104E10000220FFF725F8686F18E0FFF7BFF80028B9
:104E2000BED1CEE7FF291AD100F0BCFE2046FFF725
:104E3000D5F8EC5501B0F0BD032000F099FA2A46F0
:104E4000483207CAFEF7CAFF78B93C2001B0F0BC6F
:104E500002BC8E46FFF752B9052000F089FA2A46B7
:104E6000483207CAFEF7BAFF20B1A86C401CA864FC
:104E700001B0F0BD6420FFF741F90120A85554208E
:104E80002C54FF20E855AC6401B0F0BDFFF790F85A
:104E900008B1002000E0012001B0F0BC02BC8E4649
:104EA00000F066BA10B5054C7C212046FEF72DFFB8
:104EB0002F20012121540020208610BD1800002041
:104EC000F0B581B00C4605460E4644360F4678379D
:104ED000FFF7CAFD012D07D0022D09D0032D0BD1FC
:104EE000154A1649116009E0134A1649116005E098
:104EF000114A1349116001E00F4909680A68836883
:104F00009A18A2658A68C3689A18E26500690A69F6
:104F100000236366801820664868A066C868E0665B
:104F20004869642161672067A3640120307433708D
:104F3000387001B0F0BDC0461000002088E80008BD
:104F4000A0E8000870E8000870B540B2002817D447
:104F5000032302469A43144BD4588507ED0EFF26CF
:104F6000AE40B4438901C9B2A9402143D1501F21A9
:104F7000014001228A40400980000C49425070BD26
:104F80008207D20EFF2494400F230340083B0320E6
:104F9000834304481D58A5438901C9B29140294360
:104FA000195070BD1CED00E000E400E000E100E0FD
:104FB000024A0A40024302480260704780FFFF1F16
:104FC00008ED00E010B5FFF749FD0446FFF74AFD84
:104FD000A070FEF7EDFEA071FEF7EEFEE071FEF7A9
:104FE000EFFE2072FEF7F0FE6072FFF737FD407AA9
:104FF00098B1FEF7D5FE0C4C2168401A0B49884247
:105000000AD3FEF7CDFE2060094C207800F012F89C
:10501000207801214140217010BD002010BC02BC4D
:105020008E4600F007B8C046B4000020E903000037
:10503000B00000200146044811B10421FFF796BDDD
:105040000421FFF791BDC04600040048F0B581B0CF
:1050500014460D460646FFF777FC3420FFF736FC72
:10506000A7190124B7420DD929683046FFF77CFC07
:1050700020B92D1D361DBE42F6D303E03420FFF7C4
:1050800025FC0024FFF726FC204601B0F0BD0000FF
:10509000F0B50146424B18680007820F414C022AC6
:1050A00003D0012A1BD1404C19E01A689202120F5A
:1050B0000F2A01D0941C00E010241D682D0101D599
:1050C000113214461A68D20307D59A6A0F25154083
:1050D0006A1C354DB5FBF2F200E0344A54431D68BA
:1050E00018681A6805291DD82D062D0F30A77F5D79
:1050F0002546FD409204520F314FBB5C2A46DA40F0
:105100008B0001A6F3189F4600F00AB800F00DB816
:1051100000F00DB800F02BB800F00FB800F016B892
:10512000224624E000221046F0BD2846F0BD40058E
:10513000400F385CC5402846F0BD1949C86AC00513
:1051400017D4C86AC0031ED51F48F0BD144BD86AD7
:10515000800714480BD0DA6A03210A40012A22464C
:1051600005D0DC6A0C4048F20002022C12D1104635
:10517000F0BD08680004800FC96A002905D4B2FB9D
:10518000F0F21046F0BD0F48F0BD401CB5FBF0F248
:105190001046F0BDDA6A0A40032A00D00020F0BDB4
:1051A0000410024000127A000024F40000093D00BF
:1051B00000000000000000000102030406070809C7
:1051C0008CE70008809FD500003FAB011F21014004
:1051D00001228A408009494943581343435070478C
:1051E00010B501460020324A914213DC51B3102918
:1051F00034D018295BD12F4A404801214906036861
:10520000541E944202D20B402246F8D0006880011E
:10521000C00F10BD40F6000291422DD040F60012A2
:10522000914237D040F60052914240D1214A334852
:105230000221436B541E944202D20B402246F8D006
:10524000406B24E01C4A2D4802210368541E9442FE
:1052500002D20B402246F8D0006818E0274801210E
:1052600049040368541E944202D20B402246F8D0EF
:1052700000688003C00F10BD104A20480221036A55
:10528000541E944202D20B402246F8D0006A800796
:10529000C00F10BD074A19480221436A541E9442A8
:1052A00002D20B402246F8D0406A8007C00F10BDE2
:1052B000FF070000FEFF0F00FF040000FEFFFF03DA
:1052C0001F21014001228A4080090C4943581343A1
:1052D000435070471F21014001228A40800907493D
:1052E00043589343435070471F21014001228A4095
:1052F000800902494358134343507047001002404D
:10530000B0B592B0174D184A2A80022807D001285C
:105310000AD080B90120A8702846083008E0012092
:1053200028712846103003E00120E87028460C3030
:1053300002685118016001AC204614303021FEF79C
:10534000E4FC204606CD06C00ECD0EC0074D691CFC
:105350002846FFF7EFF9442228462146FFF776FE5C
:1053600012B0B0BDB8000020BAAB000000F80008D1
:10537000D54948707047C04610B50446FFF76EFB2C
:105380003CB1012141714078C01E01280DD8642034
:1053900006E0002141714078C01E012805D8462052
:1053A00010BC02BC8E46FEF7A9BE10BD10B50E485B
:1053B000006840F2E831B0FBF1F0411E080E00D069
:1053C000FEE70A480A4A51600A490B680340032471
:1053D000A4071B190B6000239360072313600A685E
:1053E00002400A6010BDC0460C000020FFFFFF0015
:1053F00010E000E020ED00E0F0B581B0D24C0121DA
:10540000204600F00BFA002844D00121204600F08D
:1054100001FA3220AA4F3856AA4DC0B133217A5C26
:10542000012818DB521C53B2642B00DD00227A5491
:1054300051B2814223DA3120385CD8B1102128469C
:10544000FFF792FB20212846FFF790FB1FE0332057
:105450000021395413E06323DB43521E54B29C42B3
:1054600000DA00227A5451B2814208DD3120385CE2
:105470000028E3D010212846FFF778FB03E0102135
:105480002846FFF771FB20212846FFF76DFB8E4869
:10549000407908B101B0F0BD0920C60602213046AE
:1054A000FFF766FB41424141B97701213046009147
:1054B000FFF75EFB41424141F977304640F200116F
:1054C000FFF756FB4142414138461E308170388D0E
:1054D00064303885798D64317985B98D6431B985C9
:1054E000002609E010463D46754F0470761C032ED9
:1054F000D0D070003818008D710079184A8C80B2B5
:105500009042F3D300240C85B819C17E01290AD139
:10551000817F49B301461B31B200BC50BA18D46038
:105520000C701830E1E73B462F46B1005D5802464B
:1055300018325B18D9688D42D4D019460C31009DC1
:1055400015700A681B6893423D4618DA521E0A60BD
:105550002E21405C30B3002E3FD0012E50D0022EC1
:10556000574F00D07EE085E0009901762E21405C07
:1055700088B1CEB3012E23D0022E73D189E0521C04
:105580000A602E21405CA0B106B3012E3ED0022E4F
:105590004B4F67D168E0002E4FD0012E2AD0022E4B
:1055A00060D17CE096B1012E454F23D0022E59D117
:1055B0005AE096B1012E424F02D0022E52D159E04C
:1055C000284641F20001FFF7CFFA25E0284640F2D5
:1055D0000021FFF7CBFA3A4F34E0284640F2002191
:1055E000FFF7C2FA364F2DE0284640F20021FFF7C0
:1055F000BBFA27E0284641F20001FFF7B7FA0BE0BB
:10560000284641F20001FFF7AFFA04E0284641F2D4
:105610000001FFF7ABFA2A4FF86B30B1284640F68D
:105620000001FFF7A1FAFC631CE0284640F60001E8
:10563000FFF79CFA0098F86314E0284640F2002136
:10564000FFF794FAB86B30B1284640F20011FFF72B
:105650008BFABC6306E0284640F20011FFF786FA99
:105660000098B863761C44E7284648F20001FFF72B
:105670007DFA04E0284648F20001FFF775FA386C1D
:10568000A8B1284644F20001FFF76EFA3C6401B06D
:10569000F0BD284648F20001FFF766FA04E028460C
:1056A00048F20001FFF762FA386C0028E9D1284679
:1056B00044F20001FFF75AFA0098386401B0F0BDD7
:1056C0001800002000040048940000200168802297
:1056D0000A4302607047000010B5184C1849884210
:1056E0000ADD1849884212DC404988421DD04249EF
:1056F000884218D1641D18E03D4988420FD01349F3
:10570000884211D03F4988420DD1FD340DE03C491B
:10571000884206D03949884205D1E41D05E0F634B7
:1057200003E0A41D01E010BDF9342046FFF7DCFDC5
:10573000204610BC02BC8E46FFF7CCBD0B03000018
:10574000FF2B0140FF430140002C014000100040AE
:10575000016801220A4302607047000010B50A8800
:105760008262224A904202D0214B98420BD10368B8
:105770007024A34303604B8804681C4304608B8837
:1057800004681C4304608B68C3621A4B984208DCAF
:10579000174B98420ED01B4B98420BD0904209D029
:1057A0001EE0154A904205D0144A904202D0144A95
:1057B000904215D1026840F200339A430260CA88D1
:1057C000036813430360104A82180A23DA41072A48
:1057D00006D801239340E122134201D0097B0163E3
:1057E000416901220A43426110BDC046002C0140BC
:1057F00000040040FF3F01400040014000480140DC
:10580000004401400020004000D4FEBFC2680A43AB
:10581000C260704702698A4302617047C2680A40E9
:10582000531E9A4100690840411E8841104070474C
:10583000491E4A424A41D103426C48F200039A434E
:10584000511841647047000010B5A8B00748009097
:10585000074C214627312046FEF76CFF6946A022FF
:105860002046FFF7F3FB28B010BDC0465AA5AA5545
:1058700000FC0008B0B5954C154D2046294600F0B7
:105880005DF920B32046294600F044F9204600F097
:10589000FDF802242046FEF7C3FE2046FEF742FF35
:1058A00040F200110A1A00204F4D2946FEF7D6FF9C
:1058B00020462946FEF71CFF204640F20011FEF765
:1058C0002BFF2046B0BC02BC8E46FEF7B1BEB0BD79
:1058D00004000407F0B589B0019040F20050113087
:1058E000FFF7EEFC0920C70601263846314640F294
:1058F0000022FFF7BBF83846314640F20042FFF77E
:10590000B5F8022538462946324640F20023FFF713
:1059100034F9002438462146324640F20023FFF78E
:105920004DF938462946324640F20043FFF725F943
:1059300038462146324640F20043FFF73FF92848F7
:10594000FFF7BEFC274E304600F0AAF8304601991A
:1059500000F074F804273046394600F0FEF80821BC
:10596000304600F002F9304600F0BEF840F2005038
:10597000FFF7A6FC2846FEF76BFE02A98C7640F2E4
:1059800000100883184A049206900594304624308B
:10599000029043F20000079003942846FEF770FE41
:1059A0002846FEF74DFE2846FEF7AAFE2846FEF7DB
:1059B0003FFE4021304600F08FF81B202146FFF7C4
:1059C000C3FA3046394600F09CF8204640F20021E8
:1059D000FEF71CFF10B905A000F058FA09B0F0BDA1
:1059E0000E060000003801405C01002075736172F2
:1059F00074206669666F20726567697374657220CA
:105A00006661696C65640D00F0B581B089B10C46C2
:105A100005462E4E084F3046394600F06AF80028F9
:105A2000F9D02978304600F035F86D1C641E20044A
:105A3000F1D101B0F0BDC04607070000B0B50D467A
:105A400004462248844204D02148844205D10220E1
:105A500000E00520FFF71CFB00E00020216809049E
:105A600006D469084018B0FBF5F080B2E060B0BD24
:105A7000690840004018B0FBF5F0034901400007F9
:105A8000400F4018E060B0BDF0FF0000416A0348DD
:105A900008407047014A0A4082627047FF010000D7
:105AA00010B50A49884204D0094988420BD1094CF3
:105AB00000E0054C2046FFF717FC204610BC02BC56
:105AC0008E46FFF707BC10BD0E03000000380140F2
:105AD0000044004011040000826840239A43826021
:105AE00082680A4382607047016801220A430260AB
:105AF00070471F220A4089090958D14001200840F7
:105B000070471F220A400123934089090A581A430B
:105B10000A507047084A914206D1D021425848F2B3
:105B200000039A4342507047C902C90E01228A40BD
:105B3000016A11430162704709340F341F220A4081
:105B40000B049B0D1B58D3408A0D1258C802C00E7F
:105B5000C2401A40012010407047026804239A4353
:105B6000026002680A4302607047026808239A4391
:105B7000026002680A43026070470000B0B500226C
:105B800061B1074B047895B22D0A65406C001C5B2F
:105B900012026240401C491E0C04F3D190B2B0BD09
:105BA0008CE50008044840F20021018003480346C8
:105BB0000C330ECB0EC0704794000020180000205C
:105BC0000FB410B503A9044B044A029800F018F86A
:105BD00010BC08BC04B01847CD49000800000020E4
:105BE00002E008C8121F08C1002AFAD170477047A6
:105BF000002001E001C1121F002AFBD17047000004
:105C0000FFB58DB00F460546002606E025280AD0D0
:105C1000109A0F9990476D1C761C28780028F5D1B2
:105C2000304611B0F0BD00240121674A009400E025
:105C300004436D1C2B780846203B98401042F7D156
:105C400028782E2815D10420044368786D1C2A2852
:105C50000AD101CF6D1C00900BE000990A2251433C
:105C6000303940186D1C00902878014630390929D8
:105C7000F3D92878692843D006DC0028D0D06328DF
:105C80000BD0642804D13BE073280FD075284CD08A
:105C9000109A0F999047761C94E0387869460872FC
:105CA0000020487202A80190012003E038680190AA
:105CB0000020C0433F1D61070CD5002400E0641C98
:105CC00000998C420FDA8442F9DB0199095D0029C1
:105CD000F5D108E0002400E0641C8442FCDB01995B
:105CE000095D0029F8D1361907E00198019900787B
:105CF000491C0191109A0F999047641EF5D261E0FA
:105D00000A20019001CF002802DA40422D2102E052
:105D1000210504D52B216A461172012103E0E10718
:105D200001D02021F7E70C9104E00A20019001CF77
:105D300000210C910BA90B9108E00199FEF710F8D6
:105D40000A460B993032491E0B910A700028F4D193
:105D50000B9803A9081A20300190600701D500981C
:105D600001E0012000900199884203DD014601987D
:105D7000081A00E000200024009006E002A8109A13
:105D8000005D0F999047641C761C0C988442F5DBEB
:105D900004E0109A30200F999047761C0099481E15
:105DA00000900029F5DC08E00B980B990078491C5D
:105DB0000B91109A0F999047761C0199481E0190FB
:105DC0000029F1DC6D1C28E70928010010B5002826
:105DD00023D0124B0022001F196803E0814203D830
:105DE0000A4649680029F9D1002A0AD01368841AA2
:105DF0009C4204D1006818181060104602E0506000
:105E000000E01860002907D002680B1A934203D102
:105E10000B68D21802604968416010BD0400002080
:105E2000F0B50B30C108C900144F0026144A0FE02A
:105E300003688B420BD38B4205D95C1A4318456823
:105E400030C3083B00E04368136002C004E0021D59
:105E500010680028ECD13046002803D138680028AB
:105E600001D00020F0BD064A06481060064A121A0A
:105E7000D208D20044C001203860D7E708000020D3
:105E800004000020A4020020A00A002010B504464F
:105E900001E0FEF79BFD2078641C03490028F8D13F
:105EA0000A20FEF793FD10BD0000002010272C01F2
:105EB000D4302C010000F4010000640010272C01F4
:105EC000D4302C019600F401000000001027C80017
:105ED000D430C8000000F40100004600D859C800C2
:105EE000D430C8000000F401000046009065C800EE
:105EF000A438C8000000F40100004600401FC8009C
:105F0000A438C8000000F401000046007017C80063
:105F10007440C8000000F4010000460088132C0102
:105F20001450C8000000F40100004600CC5BC8001B
:105F30001450C8000000F40100004600CC5BC8000B
:105F4000C05DC8000000F401000046008813C800CE
:105F5000C05DFA000000F40100004600581BC800B4
:105F60007869FA000000F401000046001027C8001C
:105F70007869C8000000F401000046001027C8003E
:105F8000447AC8000000F40100004600BC34C80098
:105F90003C73FA000000F401000046004448C800C9
:105FA0003C73C8000000F40100004600F055C80032
:105FB000447AFA000000F40100004600F055C800E1
:105FC0007869C8000000F401000046008467C8003A
:105FD0007869C8000000F401000046008467C8002A
:105FE0007440C8000000F4010000460084672C01E2
:105FF00074402C017800F4010000C80084672C0173
:1060000074402C010000F4010000C80084672C01DA
:1060100074402C010000F40100006400204EF401E3
:10602000401FF401D42F2C0100006400204EF40125
:10603000401FF4016230F401000064008C3CF40164
:106040004C1DF40162302C01000064008C3CF40112
:106050004C1DF401F130F40100006400F82AF40151
:10606000401FF401F130F40100006400F82AF4014B
:10607000401FF4018031F40100006400F82AF401AB
:106080001027F4018031F40100006400F82AF401C3
:106090001027F4010F32F401000064007017F401BE
:1060A000F82AF4010F32F401000064007017F401C3
:1060B000F82AF4019E32F401000064007C15F4011A
:1060C000C832F4019E32F401000064007C15F40132
:1060D000C832F4012C33F40100006400F82AF40102
:1060E000803EF4012C33F40100006400F82AF4012E
:1060F000803EF401BB33F401000064002224F4016B
:10610000803EF401BB33F401000064002224F4015A
:10611000803EF4014A34F401000064004C1DF40197
:10612000803EF4014A34F401000064004C1DF40187
:10613000803EF401D934F401000064007616F401C5
:106140005541F401D934F401000064007616F401DD
:106150005541F4016835F40100006400A00FF4011A
:106160005541F4016835F40100006400A00FF4010A
:106170005541F401F635F40100006400A00FF4016C
:106180001248F401F635F40100006400A00FF40198
:106190001248F4018536F401000064007616F4011B
:1061A0001248F4018536F401000064007616F4010B
:1061B0001248F4011437F401000064004C1DF4018E
:1061C0006F45F4011437F401000064004C1DF40124
:1061D0006F45F401A337F401000064002224F401A8
:1061E0006F45F401A337F401000064002224F40198
:1061F0006F45F4013238F40100006400F82AF4011C
:106200006F45F4013238F40100006400F82AF4010B
:106210006F45F401C038F40100006400F82AF4016D
:106220002C4CF401C038F40100006400F82AF40199
:106230002C4CF4014F39F401000064002224F401D5
:106240002C4CF4014F39F401000064002224F401C5
:106250002C4CF401DE39F401000064004C1DF40103
:106260002C4CF401DE39F401000064004C1DF401F3
:106270002C4CF4016D3AF401000064007616F40130
:10628000CF4EF4016D3AF401000064007616F4017B
:10629000CF4EF401FC3AF40100006400A00FF401B9
:1062A000CF4EF401FC3AF40100006400A00FF401A9
:1062B000CF4EF4018A3BF401000064008813F4011E
:1062C000CC5BF4018A3BF401000064008813F40104
:1062D000CC5BF401193CF40100006400C819F4011E
:1062E0008C55F401193CF40100006400C819F40154
:1062F0008C55F401A83CF401000064006022F40114
:106300008C55F401A83CF401000064006022F40103
:106310008C55F401373DF401000064001C25F401A4
:10632000CC5BF401373DF401000064001C25F4014E
:10633000CC5BF401C63DF401000064003421F4019B
:106340009065F401C63DF401000064003421F401BD
:106350009065F401543EF40100006400D430F4016F
:10636000A861F401543EF40100006400D430F4014B
:10637000A861F401E33EF401000064005C44F40110
:10638000A861F401E33EF401000064005C44F40100
:10639000A861F401723FF40100006400F055F401BB
:1063A0009065F401723FF40100006400F055F401BF
:1063B0009065F4010140F401000064000852F4010A
:1063C000CC5BF4010140F401000064000852F401C8
:1063D000CC5BF4019040F40100006400B856F40175
:1063E0008C55F4019040F40100006400B856F401AB
:1063F0008C55F4011E41F40100006400505FF4016B
:106400008C55F4011E41F40100006400505FF4015A
:106410008C55F401AD41F401000064009065F40175
:10642000CC5BF401AD41F401000064009065F4011F
:10643000CC5BF4013C42F401000064007869F40193
:10644000CF4EF4013C42F401000064007869F4018D
:10645000CF4EF401CB42F40100006400A262F401CB
:10646000CF4EF401CB42F40100006400A262F401BB
:10647000CF4EF4015A43F40100006400CC5BF401F8
:106480002C4CF4015A43F40100006400CC5BF4018D
:106490002C4CF401E843F40100006400F654F401CC
:1064A0002C4CF401E843F40100006400F654F401BC
:1064B0002C4CF4017744F40100006400204EF401F8
:1064C0002C4CF4017744F40100006400204EF401E8
:1064D0002C4CF4010645F40100006400204EF40148
:1064E0006F45F4010645F40100006400204EF401FC
:1064F0006F45F4019545F40100006400F654F40181
:106500006F45F4019545F40100006400F654F40170
:106510006F45F4012446F40100006400CC5BF401F3
:106520006F45F4012446F40100006400CC5BF401E3
:106530006F45F401B246F40100006400A262F40168
:106540001248F401B246F40100006400A262F401B2
:106550001248F4014147F401000064007869F40135
:106560001248F4014147F401000064007869F40125
:106570001248F401D047F401000064007869F40186
:106580005541F401D047F401000064007869F4013A
:106590005541F4015F48F40100006400A262F40177
:1065A0005541F4015F48F40100006400A262F40167
:1065B0005541F401EE48F40100006400CC5BF401A5
:1065C000803EF401EE48F40100006400CC5BF4016D
:1065D000803EF4017C49F40100006400F654F401AB
:1065E000803EF4017C49F40100006400F654F4019B
:1065F000803EF4010B4AF40100006400204EF401D7
:10660000803EF4010B4AF40100006400204EF401C6
:10661000803EF4019A4AF401000064009C63F40196
:10662000C832F4019A4AF401000064009C63F4014A
:10663000C832F401294BF40100006400A861F401A0
:10664000F82AF401294BF40100006400A861F40168
:10665000F82AF401B84BF40100006400204EF40164
:106660001027F401B84BF40100006400204EF4013F
:106670001027F401464CF40100006400543DF4017D
:10668000803EF401464CF40100006400543DF401E6
:10669000803EF401D54CF40100006400543DF40147
:1066A0001027F401D54CF40100006400543DF401BE
:1066B0001027F401644DF40100006400204EF40141
:1066C000401FF401DC25900100006400204EF4011D
:1066D000401FF4016B26F401000064006842F401DD
:1066E000401FF4016B262C01000064006842F40195
:1066F000401FF401FA26F40100006400B036F401F2
:10670000401FF401FA26F40100006400B036F401E1
:10671000401FF4018827F40100006400F82AF40106
:10672000401FF4018827F40100006400F82AF401F6
:10673000401FF4011728F40100006400EC2CF40160
:106740001027F4011728F40100006400EC2CF40178
:106750001027F401A628F401000064007017F4016A
:10676000F82AF401A628F401000064007017F4016F
:10677000F82AF4013529F401000064007C15F401C5
:10678000C832F4013529F401000064007C15F401DD
:10679000C832F401C429F401000064006419F40152
:1067A000983AF401C429F401000064006419F4016A
:1067B000983AF401522AF40100006400F82AF40126
:1067C000A43DF401522AF40100006400F82AF40107
:1067D000A43DF401E12AF401000064002224F40144
:1067E000A43DF401E12AF401000064002224F40134
:1067F000A43DF401702BF401000064004C1DF40171
:10680000FC3FF401702BF401000064004C1DF40106
:10681000FC3FF401FF2BF401000064007616F40144
:10682000FC3FF401FF2BF401000064007616F40134
:10683000FC3FF4018E2CF40100006400A00FF40171
:10684000FC3FF4018E2CF40100006400A00FF40161
:10685000FC3FF4011C2DF40100006400A00FF401C2
:106860006045F4011C2DF40100006400A00FF40148
:106870006045F401AB2DF401000064007616F401CC
:106880006045F401AB2DF401000064007616F401BC
:106890006045F4013A2EF401000064004C1DF4013F
:1068A0006045F4013A2EF401000064004C1DF4012F
:1068B0006045F401C92EF401000064002224F401B3
:1068C0000843F401C92EF401000064002224F401FD
:1068D0000843F401582FF40100006400F82AF40181
:1068E0000843F401582FF40100006400F82AF40171
:1068F0000843F401E62FF40100006400F82AF401D3
:106900006C48F401E62FF40100006400F82AF40159
:106910006C48F4017530F401000064002224F40195
:106920006C48F4017530F401000064002224F40185
:106930006C48F4010431F401000064004C1DF401C2
:10694000C44AF4010431F401000064004C1DF40158
:10695000C44AF4019331F401000064007616F40196
:10696000C44AF4019331F401000064007616F40186
:10697000C44AF4012232F40100006400A00FF401C3
:10698000C44AF4012232F40100006400A00FF401B3
:10699000C44AF401B032F401000064008813F40129
:1069A000CC5BF401B032F401000064008813F40100
:1069B000CC5BF4013F33F401000064007616F4016F
:1069C0002850F4013F33F401000064007616F4010E
:1069D0002850F401CE33F401000064004C1DF40192
:1069E0002850F401CE33F401000064004C1DF40182
:1069F0002850F4015D34F401000064002224F40105
:106A0000D04DF4015D34F401000064002224F4014F
:106A1000D04DF401EC34F40100006400F82AF401D4
:106A2000D04DF401EC34F40100006400F82AF401C4
:106A3000D04DF4017A35F401000064002224F40101
:106A40003453F4017A35F401000064002224F40187
:106A50003453F4010936F401000064004C1DF401C4
:106A60008C55F4010936F401000064004C1DF4015A
:106A70008C55F4019836F401000064007616F40198
:106A80008C55F4019836F401000064007616F40188
:106A90008C55F4012737F401000064001027F4013D
:106AA000CC5BF4012737F401000064001027F401E7
:106AB000CC5BF401B637F40100006400401FF40120
:106AC0009065F401B637F40100006400401FF40142
:106AD0009065F4014438F40100006400F82AF401E0
:106AE0009065F4014438F40100006400F82AF401D0
:106AF0009065F401D338F40100006400BC34F40163
:106B0000A861F401D338F40100006400BC34F4013E
:106B1000A861F4016239F401000064005C44F401EE
:106B2000A861F4016239F401000064005C44F401DE
:106B3000A861F401F139F401000064001450F4017B
:106B40009065F401F139F401000064001450F4017F
:106B50009065F401803AF40100006400D859F40112
:106B60009065F401803AF40100006400D859F40102
:106B70009065F4010E3BF401000064000852F4013A
:106B8000CC5BF4010E3BF401000064000852F401F8
:106B9000CC5BF4019D3BF40100006400F654F40169
:106BA0003453F4019D3BF40100006400F654F401F9
:106BB0003453F4012C3CF40100006400CC5BF4017C
:106BC0008C55F4012C3CF40100006400CC5BF40112
:106BD0008C55F401BB3CF40100006400A262F40196
:106BE0008C55F401BB3CF40100006400A262F40186
:106BF0008C55F4014A3DF401000064009065F401F5
:106C0000CC5BF4014A3DF401000064009065F4019E
:106C1000CC5BF401D83DF40100006400A262F401F1
:106C20002850F401D83DF40100006400A262F40190
:106C30002850F401673EF40100006400CC5BF401CD
:106C40002850F401673EF40100006400CC5BF401BD
:106C50002850F401F63EF40100006400F654F401FB
:106C6000D04DF401F63EF40100006400F654F40146
:106C7000D04DF401853FF40100006400204EF40182
:106C8000D04DF401853FF40100006400204EF40172
:106C9000D04DF4011440F40100006400204EF401D2
:106CA0006C48F4011440F40100006400204EF4012B
:106CB0006C48F401A240F40100006400F654F401B1
:106CC0006C48F401A240F40100006400F654F401A1
:106CD0006C48F4013141F40100006400CC5BF40124
:106CE000C44AF4013141F40100006400CC5BF401BA
:106CF000C44AF401C041F40100006400A262F4013E
:106D0000C44AF401C041F40100006400A262F4012D
:106D1000C44AF4014F42F401000064007869F401B0
:106D2000C44AF4014F42F401000064007869F401A0
:106D3000C44AF401DE42F401000064007869F40101
:106D40006045F401DE42F401000064007869F4015A
:106D50006045F4016C43F40100006400A262F40198
:106D60006045F4016C43F40100006400A262F40188
:106D70006045F401FB43F40100006400CC5BF401C6
:106D80006045F401FB43F40100006400CC5BF401B6
:106D90006045F4018A44F40100006400F654F401F3
:106DA0000843F4018A44F40100006400F654F4013D
:106DB0000843F4011945F40100006400204EF40179
:106DC0000843F4011945F40100006400204EF40169
:106DD0000843F401A845F40100006400204EF401CA
:106DE000A43DF401A845F40100006400204EF40124
:106DF000A43DF4013646F40100006400F654F401A9
:106E0000A43DF4013646F40100006400F654F40198
:106E1000A43DF401C546F40100006400CC5BF4011C
:106E2000FC3FF401C546F40100006400CC5BF401B2
:106E3000FC3FF4015447F40100006400A262F40135
:106E4000FC3FF4015447F40100006400A262F40125
:106E5000FC3FF401E347F401000064007869F401A9
:106E6000FC3FF401E347F401000064007869F40199
:106E7000FC3FF4017248F40100006400204EF4016C
:106E80001027F4017248F40100006400204EF40160
:106E90001027F4010049F40100006400A861F40126
:106EA000F82AF4010049F40100006400A861F4012B
:106EB000F82AF4018F49F401000064009C63F40196
:106EC000C832F4018F49F401000064009C63F401AE
:106ED000C832F4011E4AF40100006400B45FF401FA
:106EE000983AF4011E4AF40100006400B45FF40112
:106EF000983AF401AD4AF401000064006842F401DC
:106F00007440F401AD4AF401000064006842F401E9
:106F10007440F4013C4BF40100006400A438F40117
:106F20007440F4013C4BF40100006400A438F40107
:106F30007440F401CA4BF40100006400A438F40169
:106F4000A438F401CA4BF40100006400A438F40131
:106F5000A438F401594CF401000064006842F401C3
:106F6000A438F401594CF401000064006842F401B3
:106F7000A438F401E84CF40100006400543DF4012D
:106F80001027F401E84CF40100006400543DF401C2
:106F90001027F401774DF401000064004448F40127
:106FA0001027F401B41B2C01000064004448F401D4
:106FB0001027F401431CF40100006400204EF4018A
:106FC000401FF401431C2C0100006400204EF4011A
:106FD000401FF401D21CF401000064008C3CF40159
:106FE0004C1DF401D21CF401000064008C3CF4013F
:106FF0004C1DF401601DF40100006400F82AF40146
:10700000401FF401601DF40100006400F82AF4013F
:10701000401FF401EF1DF40100006400D430F401BE
:107020001027F401EF1DF40100006400D430F401D6
:107030001027F4017E1EF401000064007017F401B3
:10704000F82AF4017E1EF401000064007017F401B8
:10705000F82AF4010D1FF401000064002E22F4014F
:10706000F82AF4010D1FF401000064002E22F4013F
:10707000F82AF4019C1FF401000064007C15F4015F
:10708000C832F4019C1FF401000064007C15F40177
:10709000C832F4012A20F401000064006419F401EC
:1070A000983AF4012A20F401000064006419F40104
:1070B000983AF401B920F40100006400F82AF401C0
:1070C000FC3FF401B920F40100006400F82AF40147
:1070D000FC3FF4014821F401000064008025F40124
:1070E000FC3FF4014821F401000064008025F40114
:1070F000FC3FF401D721F401000064000820F401F2
:10710000FC3FF401D721F401000064000820F401E1
:10711000FC3FF4016622F40100006400901AF401BF
:10712000FC3FF4016622F40100006400901AF401AF
:10713000FC3FF401F422F401000064001815F4018E
:10714000FC3FF401F422F401000064001815F4017E
:10715000FC3FF4018323F40100006400A00FF4015C
:10716000FC3FF4018323F40100006400A00FF4014C
:10717000FC3FF4011224F40100006400A00FF401AC
:107180006045F4011224F40100006400A00FF40132
:107190006045F401A124F401000064001815F40115
:1071A0006045F401A124F401000064001815F40105
:1071B0006045F4013025F40100006400901AF401E8
:1071C0006045F4013025F40100006400901AF401D8
:1071D0006045F401BE25F401000064000820F401BC
:1071E0006045F401BE25F401000064000820F401AC
:1071F0006045F4014D26F401000064008025F4018F
:107200006045F4014D26F401000064008025F4017E
:107210006045F401DC26F40100006400F82AF40162
:107220006045F401DC26F40100006400F82AF40152
:107230006045F4016B27F40100006400F82AF401B2
:10724000C44AF4016B27F40100006400F82AF40139
:10725000C44AF401FA27F401000064008025F40117
:10726000C44AF401FA27F401000064008025F40107
:10727000C44AF4018828F401000064000820F401E5
:10728000C44AF4018828F401000064000820F401D5
:10729000C44AF4011729F40100006400901AF401B3
:1072A000C44AF4011729F40100006400901AF401A3
:1072B000C44AF401A629F401000064001815F40181
:1072C000C44AF401A629F401000064001815F40171
:1072D000C44AF401352AF40100006400A00FF4014F
:1072E000C44AF401352AF40100006400A00FF4013F
:1072F000C44AF401C42AF40100006400A00FF401A0
:107300002850F401C42AF40100006400A00FF40125
:107310002850F401522BF401000064001815F40108
:107320002850F401522BF401000064001815F401F8
:107330002850F401E12BF40100006400901AF401DC
:107340002850F401E12BF40100006400901AF401CC
:107350002850F401702CF401000064000820F401AE
:107360002850F401702CF401000064000820F4019E
:107370002850F401FF2CF401000064008025F40182
:107380002850F401FF2CF401000064008025F40172
:107390002850F4018E2DF40100006400F82AF40155
:1073A0002850F4018E2DF40100006400F82AF40145
:1073B0002850F4011C2EF40100006400F82AF401A6
:1073C0008C55F4011C2EF40100006400F82AF4012D
:1073D0008C55F401AB2EF401000064008025F4010B
:1073E0008C55F401AB2EF401000064008025F401FB
:1073F0008C55F4013A2FF401000064000820F401D8
:107400008C55F4013A2FF401000064000820F401C7
:107410008C55F401C92FF40100006400901AF401A6
:107420008C55F401C92FF40100006400901AF40196
:107430008C55F4015830F401000064001815F40173
:107440008C55F4015830F401000064001815F40163
:107450008C55F401E630F401000064008813F40157
:10746000CC5BF401E630F401000064008813F40101
:10747000CC5BF4017531F401000064002823F401B1
:10748000CC5BF4017531F401000064002823F401A1
:10749000CC5BF4010432F401000064000429F4011F
:1074A000CC5BF4010432F401000064000429F4010F
:1074B000CC5BF4019332F401000064003421F40148
:1074C0009065F4019332F401000064003421F4016A
:1074D0009065F4012233F40100006400F82AF401FD
:1074E0009065F4012233F40100006400F82AF401ED
:1074F0009065F401B033F40100006400D430F4016D
:10750000C05DF401B033F40100006400D430F40134
:10751000C05DF4013F34F401000064005046F40102
:10752000C05DF4013F34F401000064005046F401F2
:10753000C05DF401CE34F40100006400204EF4017B
:107540009065F401CE34F40100006400204EF40193
:107550009065F4015D35F40100006400D859F40130
:107560009065F4015D35F40100006400D859F40120
:107570009065F401EC35F401000064001A4FF40149
:10758000CC5BF401EC35F401000064001A4FF40107
:10759000CC5BF4017A36F40100006400E457F40196
:1075A000CC5BF4017A36F40100006400E457F40186
:1075B000CC5BF4010937F401000064007869F40140
:1075C000CC5BF4010937F401000064007869F40130
:1075D000CC5BF4019837F401000064000064F4010E
:1075E0008C55F4019837F401000064000064F40144
:1075F0008C55F4012738F40100006400885EF40122
:107600008C55F4012738F40100006400885EF40111
:107610008C55F401B638F401000064001059F401EF
:107620008C55F401B638F401000064001059F401DF
:107630008C55F4014439F401000064009853F401BE
:107640008C55F4014439F401000064009853F401AE
:107650008C55F401D339F40100006400204EF4018C
:107660008C55F401D339F40100006400204EF4017C
:107670008C55F401623AF40100006400204EF401DC
:107680002850F401623AF40100006400204EF40135
:107690002850F401F13AF401000064009853F40119
:1076A0002850F401F13AF401000064009853F40109
:1076B0002850F401803BF401000064001059F401EB
:1076C0002850F401803BF401000064001059F401DB
:1076D0002850F4010E3CF40100006400885EF401BF
:1076E0002850F4010E3CF40100006400885EF401AF
:1076F0002850F4019D3CF401000064000064F40192
:107700002850F4019D3CF401000064000064F40181
:107710002850F4012C3DF401000064007869F40164
:107720002850F4012C3DF401000064007869F40154
:107730002850F401BB3DF401000064007869F401B5
:10774000C44AF401BB3DF401000064007869F4010F
:10775000C44AF4014A3EF401000064000064F401EC
:10776000C44AF4014A3EF401000064000064F401DC
:10777000C44AF401D83EF40100006400885EF401BC
:10778000C44AF401D83EF40100006400885EF401AC
:10779000C44AF401673FF401000064001059F40189
:1077A000C44AF401673FF401000064001059F40179
:1077B000C44AF401F63FF401000064009853F40158
:1077C000C44AF401F63FF401000064009853F40148
:1077D000C44AF4018540F40100006400204EF40125
:1077E000C44AF4018540F40100006400204EF40115
:1077F000C44AF4011441F40100006400204EF40175
:107800006045F4011441F40100006400204EF401CD
:107810006045F401A241F401000064009853F401B2
:107820006045F401A241F401000064009853F401A2
:107830006045F4013142F401000064001059F40184
:107840006045F4013142F401000064001059F40174
:107850006045F401C042F40100006400885EF40158
:107860006045F401C042F40100006400885EF40148
:107870006045F4014F43F401000064000064F4012A
:107880006045F4014F43F401000064000064F4011A
:107890006045F401DE43F401000064007869F401FE
:1078A0006045F401DE43F401000064007869F401EE
:1078B0006045F4016C44F401000064007869F4014F
:1078C000FC3FF4016C44F401000064007869F401A9
:1078D000FC3FF401FB44F401000064000064F40187
:1078E000FC3FF401FB44F401000064000064F40177
:1078F000FC3FF4018A45F40100006400885EF40155
:10790000FC3FF4018A45F40100006400885EF40144
:10791000FC3FF4011946F401000064001059F40121
:10792000FC3FF4011946F401000064001059F40111
:10793000FC3FF401A846F401000064009853F401F0
:10794000FC3FF401A846F401000064009853F401E0
:10795000FC3FF4013647F40100006400204EF401BE
:10796000FC3FF4013647F40100006400204EF401AE
:10797000FC3FF401C547F40100006400A861F40174
:10798000983AF401C547F40100006400A861F401CD
:10799000983AF4015448F401000064009C63F40137
:1079A000C832F4015448F401000064009C63F401FF
:1079B000C832F401E348F40100006400A861F40156
:1079C000F82AF401E348F40100006400A861F4011E
:1079D000F82AF4017249F40100006400E457F4014C
:1079E000F82AF4017249F40100006400E457F4013C
:1079F000F82AF401004AF401000064006842F4012E
:107A00007440F401004AF401000064006842F4018B
:107A10007440F4018F4AF40100006400A438F401BA
:107A20007440F4018F4AF40100006400A438F401AA
:107A30007440F4011E4BF40100006400A438F4010A
:107A4000A438F4011E4BF40100006400A438F401D2
:107A5000A438F401AD4BF401000064006842F40165
:107A6000A438F401AD4BF401000064006842F40155
:107A7000A438F4013C4CF40100006400543DF401CE
:107A80001027F4013C4CF40100006400543DF40163
:107A90001027F401CA4CF401000064008813F401BB
:107AA0002823F401023A2C01000064008813F40139
:107AB0002823F401903A2C0100006400F82AF40114
:107AC0004C1DF401903AF40100006400F82AF4011E
:107AD0004C1DF4011F3BF401000064008C3CF401D8
:107AE000C012F4011F3BF401000064008C3CF4015F
:107AF000C012F401AE3BF40100006400204EF4011A
:107B00004C1DF401AE3BF40100006400204EF40172
:107B10004C1DF4013D3CF40100006400A861F40137
:107B20002823F4013D3CF40100006400A861F40145
:107B30002823F401CC3CF40100006400A46AF401A1
:107B4000502DF401CC3CF40100006400A46AF4015F
:107B5000502DF4015A3DF401000064009C63F401CF
:107B6000B036F4015A3DF401000064009C63F40156
:107B7000B036F401E93DF40100006400F055F40171
:107B8000983AF401E93DF40100006400F055F40175
:107B9000983AF401783EF401000064000852F401C0
:107BA0006842F401783EF401000064000852F401D8
:107BB0006842F401073FF40100006400B45FF4017F
:107BC000803EF401073FF40100006400B45FF4015B
:107BD000803EF401963FF40100006400606DF40102
:107BE000803EF401963FF40100006400606DF401F2
:107BF000803EF4012440F401000064006C6BF40149
:107C00005046F4012440F401000064006C6BF40160
:107C10005046F401B340F40100006400C05DF4017B
:107C20005046F401B340F40100006400C05DF4016B
:107C30005046F4014241F401000064000852F4018E
:107C4000384AF4014241F401000064000852F40192
:107C5000384AF401D141F40100006400F055F40108
:107C60000852F401D141F40100006400F055F40120
:107C70000852F4016042F40100006400B45FF401B2
:107C8000204EF4016042F40100006400B45FF4018E
:107C9000204EF401EE42F40100006400606DF40136
:107CA0000852F401EE42F40100006400606DF4013A
:107CB0000852F4017D43F40100006400F055F40122
:107CC000A861F4017D43F40100006400F055F40163
:107CD000A861F4010C44F401000064005046F40172
:107CE000D859F4010C44F401000064005046F4013A
:107CF000D859F4019B44F40100006400E02EF40123
:107D0000D859F4019B44F40100006400E02EF40112
:107D1000D859F4012A45F40100006400401FF40121
:107D2000A861F4012A45F40100006400401FF40139
:107D3000A861F401B845F401000064002823F401AF
:107D40000852F401B845F401000064002823F4014E
:107D50000852F4014746F401000064006419F4017C
:107D6000204EF4014746F401000064006419F40158
:107D7000204EF401D646F40100006400B80BF40173
:107D80000852F401D646F40100006400B80BF40177
:107D90000852F4016547F40100006400AC0DF401E1
:107DA0005046F4016547F40100006400AC0DF40195
:107DB0005046F401F447F40100006400581BF4013C
:107DC0005046F401F447F40100006400581BF4012C
:107DD0005046F4018248F401000064001027F401C9
:107DE000384AF4018248F401000064001027F401CD
:107DF000384AF4011149F401000064001027F4012D
:107E00006842F4011149F401000064001027F401F4
:107E10006842F401A049F401000064006419F4010F
:107E2000803EF401A049F401000064006419F401EB
:107E3000803EF4012F4AF40100006400B80BF40105
:107E4000803EF4012F4AF40100006400B80BF401F5
:107E5000803EF401BE4AF40100006400A00FF4016A
:107E6000F82AF401BE4AF40100006400A00FF401F6
:107E7000F82AF4014C4BF401000064007C15F40175
:107E8000B036F4014C4BF401000064007C15F401A1
:107E9000B036F401DB4BF401000064002823F40148
:107EA000983AF401DB4BF401000064002823F4014C
:107EB000983AF4016A4CF401000064008C3CF4012F
:107EC000A438F4016A4CF401000064008C3CF40115
:107ED000A438F401F94CF401000064008C3CF40176
:107EE000401FF401F94CF401000064008C3CF401E3
:107EF000401FF401884DF401000064007C15F4017A
:107F00004C1DF401D42F2C01000064007C15F401F9
:107F10004C1DF4016230F40100006400BC34F40133
:107F20007017F4016230F40100006400BC34F40105
:107F30007017F401F130F40100006400EC2CF4013E
:107F40009411F401F130F40100006400EC2CF40110
:107F50009411F4018031F401000064008C3CF401C0
:107F6000A00FF4018031F401000064008C3CF401A6
:107F7000A00FF4010F32F401000064002C4CF40156
:107F80009411F4010F32F401000064002C4CF40150
:107F90009411F4019E32F401000064005C44F40189
:107FA0007017F4019E32F401000064005C44F40197
:107FB0007017F4012C33F40100006400A861F4018F
:107FC0004C1DF4012C33F40100006400A861F4019D
:107FD0004C1DF401BB33F401000064009065F40112
:107FE0001C25F401BB33F401000064009065F4012A
:107FF0001C25F4014A34F40100006400A46AF40171
:10800000EC2CF4014A34F40100006400A46AF40189
:10801000EC2CF401D934F401000064001450F40194
:10802000A438F401D934F401000064001450F401C0
:10803000A438F4016835F40100006400D859F40153
:10804000A438F4016835F40100006400D859F40143
:10805000A438F401F635F401000064009C63F401D7
:10806000A438F401F635F401000064009C63F401C7
:10807000A438F4018536F40100006400606DF40159
:10808000863DF4018536F40100006400606DF40162
:10809000863DF4011437F40100006400606DF401C2
:1080A0005C44F4011437F40100006400606DF401D5
:1080B0005C44F401A337F401000064009C63F40104
:1080C0001A41F401A337F401000064009C63F40139
:1080D0001A41F4013238F40100006400D859F40167
:1080E0001A41F4013238F40100006400D859F40157
:1080F0001A41F401C038F401000064001450F40186
:108100001A41F401C038F401000064001450F40175
:108110001A41F4014F39F401000064000852F401DF
:108120009049F4014F39F401000064000852F40151
:108130009049F401DE39F40100006400D859F401DB
:108140009049F401DE39F40100006400D859F401CB
:108150009049F4016D3AF401000064009C63F4015D
:108160009049F4016D3AF401000064009C63F4014D
:108170009049F401FC3AF40100006400606DF401E0
:10818000FC53F401FC3AF40100006400606DF4015A
:10819000FC53F4018A3BF401000064009C63F40189
:1081A0000852F4018A3BF401000064009C63F4016E
:1081B0000852F401193CF40100006400D859F4019C
:1081C000FC53F401193CF40100006400D859F40197
:1081D000FC53F401A83CF401000064001450F401C5
:1081E000FC53F401A83CF401000064001450F401B5
:1081F000FC53F401373DF40100006400D859F40148
:10820000C05DF401373DF40100006400D859F40169
:10821000C05DF401C63DF40100006400D859F401CA
:108220008467F401C63DF40100006400D859F401EC
:108230008467F401543EF40100006400384AF401FC
:10824000A861F401543EF40100006400384AF401CE
:10825000A861F401E33EF40100006400E02EF401A3
:10826000A861F401E33EF40100006400E02EF40193
:10827000A861F401723FF40100006400401FF401A2
:108280008467F401723FF40100006400401FF401B0
:108290008467F4010140F40100006400401FF40110
:1082A000C05DF4010140F40100006400401FF401CE
:1082B000C05DF4019040F401000064008813F401F3
:1082C0000852F4019040F401000064008813F401A6
:1082D0000852F4011E41F401000064004C1DF40139
:1082E000FC53F4011E41F401000064004C1DF40134
:1082F000FC53F401AD41F401000064001027F401C7
:10830000E457F401AD41F401000064001027F401CA
:10831000E457F4013C42F401000064001027F4012A
:108320009049F4013C42F401000064001027F4017C
:108330009049F401CB42F401000064004C1DF401AB
:108340009049F401CB42F401000064004C1DF4019B
:108350009049F4015A43F401000064008813F401C9
:108360009049F4015A43F401000064008813F401B9
:108370009049F401E843F40100006400C409F401E9
:10838000FC53F401E843F40100006400C409F40163
:10839000FC53F4017744F40100006400C409F401C3
:1083A0005C44F4017744F40100006400C409F40162
:1083B0005C44F4010645F401000064008813F401F4
:1083C0001A41F4010645F401000064008813F40129
:1083D0001A41F4019545F401000064004C1DF401BC
:1083E0001A41F4019545F401000064004C1DF401AC
:1083F0001A41F4012446F401000064001027F4013E
:108400001A41F4012446F401000064001027F4012D
:108410001A41F401B246F401000064001027F4018F
:10842000A438F401B246F401000064001027F401FE
:10843000A438F4014147F401000064004C1DF4012C
:10844000A438F4014147F401000064004C1DF4011C
:10845000A438F401D047F401000064008813F4014B
:10846000A438F401D047F401000064008813F4013B
:10847000A438F4015F48F40100006400C409F40169
:10848000863DF4015F48F40100006400C409F40172
:10849000863DF401EE48F401000064009411F401FB
:1084A0001C25F401EE48F401000064009411F4016D
:1084B0001C25F4017C49F40100006400A00FF401C4
:1084C000EC2CF4017C49F40100006400A00FF401DD
:1084D000EC2CF4010B4AF40100006400A438F40110
:1084E000BC34F4010B4AF40100006400A438F40128
:1084F000BC34F4019A4AF401000064007440F401B1
:10850000BC34F4019A4AF401000064007440F401A0
:10851000BC34F401294BF401000064008C3CF401EC
:10852000983AF401294BF401000064008C3CF401FA
:10853000983AF401B84BF401000064000429F401F6
:108540004C1DF401B84BF401000064000429F4014F
:108550004C1DF401464CF401000064008C3CF40115
:10856000401FF401464CF401000064008C3CF4010F
:10857000401FF401D54CF40100006400FC53F401E9
:108580004C1DF401D54CF40100006400FC53F401CF
:108590004C1DF401644DF40100006400F82AF4015C
:1085A0009411F401DC25900100006400F82AF40124
:1085B0009411F4016B26F401000064008C3CF4017A
:1085C000A00FF4016B26F401000064008C3CF40160
:1085D000A00FF401FA26F40100006400204EF4011B
:1085E0009411F401FA26F40100006400204EF40115
:1085F0009411F4018827F40100006400C233F401EF
:108600007017F4018827F40100006400C233F401FC
:108610007017F4011728F401000064005645F401B6
:108620007017F4011728F401000064005645F401A6
:108630007017F401A628F401000064005046F4010C
:108640003421F401A628F401000064005046F4012E
:108650003421F4013529F40100006400F055F401DF
:10866000401FF4013529F40100006400F055F401C5
:10867000401FF401C429F40100006400A861F40162
:108680004C1DF401C429F40100006400A861F40148
:108690004C1DF401522AF401000064009C63F401B3
:1086A0001C25F401522AF401000064009C63F401CB
:1086B0001C25F401E12AF40100006400A46AF4011D
:1086C000EC2CF401E12AF40100006400A46AF40136
:1086D000EC2CF401702BF40100006400A861F4019B
:1086E000D430F401702BF40100006400A861F4019F
:1086F000D430F401FF2BF401000064001450F401A5
:10870000A438F401FF2BF401000064001450F401BC
:10871000A438F4018E2CF40100006400E457F40145
:10872000A438F4018E2CF40100006400E457F40135
:10873000A438F4011C2DF40100006400B45FF401BE
:10874000A438F4011C2DF40100006400B45FF401AE
:10875000A438F401AB2DF401000064008467F40137
:10876000A438F401AB2DF401000064008467F40127
:10877000A438F4013A2EF40100006400286EF401DC
:10878000983AF4013A2EF40100006400286EF401D6
:10879000983AF401C92EF401000064007869F401EC
:1087A0006E41F401C92EF401000064007869F401FF
:1087B0006E41F401582FF401000064001F63F401BE
:1087C0001A41F401582FF401000064001F63F40102
:1087D0001A41F401E62FF40100006400C65CF401C4
:1087E0001A41F401E62FF40100006400C65CF401B4
:1087F0001A41F4017530F401000064006D56F40173
:108800001A41F4017530F401000064006D56F40162
:108810001A41F4010431F401000064001450F40121
:108820001A41F4010431F401000064001450F40111
:108830001A41F4019331F401000064006243F40131
:108840007C47F4019331F401000064006243F401B9
:108850007C47F4012232F401000064001450F4015A
:108860009049F4012232F401000064001450F40134
:108870009049F401B032F401000064006757F4013C
:108880009049F401B032F401000064006757F4012C
:108890009049F4013F33F40100006400BA5EF40132
:1088A0009049F4013F33F40100006400BA5EF40122
:1088B0009049F401CE33F401000064000D66F40128
:1088C0009049F401CE33F401000064000D66F40118
:1088D0009049F4015D34F40100006400606DF4011E
:1088E000FC53F4015D34F40100006400606DF40198
:1088F000FC53F401EC34F401000064001365F4014E
:108900000852F401EC34F401000064001365F40132
:108910000852F4017A35F40100006400C05DF401EE
:108920000852F4017A35F40100006400C05DF401DE
:108930000852F4010936F40100006400F055F40116
:108940000852F4010936F40100006400F055F40106
:108950000852F4019836F40100006400D859F4017B
:10896000E457F4019836F40100006400D859F4018A
:10897000E457F4012737F40100006400204EF401AD
:10898000E457F4012737F40100006400204EF4019D
:10899000E457F401B637F40100006400FC53F4011D
:1089A000BA5EF401B637F40100006400FC53F40130
:1089B000BA5EF4014438F40100006400D859F401AF
:1089C0008467F4014438F40100006400D859F401CC
:1089D0008467F401D338F40100006400384AF401DC
:1089E0009065F401D338F40100006400384AF401C2
:1089F0009065F4016239F401000064006842F401FA
:108A0000EA56F4016239F401000064006842F4019E
:108A1000EA56F401F139F40100006400B036F401C3
:108A2000EA56F401F139F40100006400B036F401B3
:108A3000EA56F401803AF40100006400E02EF401EB
:108A40009065F401803AF40100006400E02EF40126
:108A50009065F4010E3BF40100006400401FF40136
:108A60008467F4010E3BF40100006400401FF40130
:108A70008467F4019D3BF401000064001027F401B9
:108A8000BA5EF4019D3BF401000064001027F4017C
:108A9000BA5EF4012C3CF40100006400182EF401CD
:108AA000E457F4012C3CF40100006400182EF4019A
:108AB000E457F401BB3CF40100006400401FF401E2
:108AC000E457F401BB3CF40100006400401FF401D2
:108AD000E457F4014A3DF401000064006810F40119
:108AE0000852F4014A3DF401000064006810F401EA
:108AF0000852F401D83DF40100006400C21AF401E8
:108B00000852F401D83DF40100006400C21AF401D7
:108B10000852F401673EF401000064001C25F401D2
:108B20000852F401673EF401000064001C25F401C2
:108B30000852F401F63EF401000064001027F4012D
:108B40009049F401F63EF401000064001027F4019E
:108B50009049F401853FF40100006400BD1FF40159
:108B60009049F401853FF40100006400BD1FF40149
:108B70009049F4011440F401000064006A18F40103
:108B80009049F4011440F401000064006A18F401F3
:108B90009049F401A240F401000064001711F401AF
:108BA0009049F401A240F401000064001711F4019F
:108BB0009049F4013141F40100006400C409F4015A
:108BC000FC53F4013141F40100006400C409F401D4
:108BD000FC53F401C041F40100006400FC08F401FE
:108BE0006E41F401C041F40100006400FC08F4018E
:108BF0006E41F4014F42F401000064001711F401CA
:108C00001A41F4014F42F401000064001711F4010D
:108C10001A41F401DE42F401000064006A18F40114
:108C20001A41F401DE42F401000064006A18F40104
:108C30001A41F4016C43F40100006400BD1FF4010B
:108C40001A41F4016C43F40100006400BD1FF401FB
:108C50001A41F401FB43F401000064001027F40101
:108C60001A41F401FB43F401000064001027F401F1
:108C70001A41F4018A44F40100006400B635F4019D
:108C80007C47F4018A44F40100006400B635F40125
:108C90007C47F4011945F401000064001027F40139
:108CA000A438F4011945F401000064001027F40110
:108CB000A438F401A845F40100006400401FF40149
:108CC000A438F401A845F40100006400401FF40139
:108CD000A438F4013646F401000064007017F40172
:108CE000A438F4013646F401000064007017F40162
:108CF000A438F401C546F40100006400A00FF4019B
:108D0000A438F401C546F40100006400A00FF4018A
:108D1000A438F4015447F401000064007C15F40108
:108D2000D430F4015447F401000064007C15F401D0
:108D3000D430F401E347F40100006400C409F401F5
:108D4000983AF401E347F40100006400C409F40117
:108D5000983AF4017248F40100006400AC0DF4018B
:108D6000EC2CF4017248F40100006400AC0DF40135
:108D7000EC2CF4010049F401000064009411F401AA
:108D80001C25F4010049F401000064009411F40171
:108D90001C25F4018F49F401000064007C15F401E6
:108DA0004C1DF4018F49F401000064007C15F401AE
:108DB0004C1DF4011E4AF401000064003421F4014A
:108DC000401FF4011E4AF401000064003421F40144
:108DD000401FF401AD4AF40100006400E02EF401EC
:108DE0003421F401AD4AF40100006400E02EF401E6
:108DF0003421F4013C4BF40100006400A438F40178
:108E0000BC34F4013C4BF40100006400A438F401CC
:108E1000BC34F401CA4BF401000064007440F40156
:108E2000BC34F401CA4BF401000064007440F40146
:108E3000BC34F401594CF401000064008C3CF40192
:108E4000983AF401594CF401000064008C3CF401A0
:108E5000983AF401E84CF401000064008C3CF40101
:108E6000401FF401E84CF401000064008C3CF40164
:108E7000401FF401774DF40100006400F82AF4016A
:108E80009411F401B41B2C0100006400F82AF401D1
:108E90009411F401431CF401000064008C3CF401C3
:108EA000A00FF401431CF401000064008C3CF401A9
:108EB000A00FF401D21CF40100006400204EF40164
:108EC0009411F401D21CF40100006400204EF4015E
:108ED0009411F401601DF40100006400BC34F4013D
:108EE0007017F401601DF40100006400BC34F4014B
:108EF0007017F401EF1DF401000064008E44F401CA
:108F00007017F401EF1DF401000064008E44F401B9
:108F10007017F4017E1EF401000064001450F40187
:108F20006A18F4017E1EF401000064001450F4017C
:108F30006A18F4010D1FF401000064005046F401AA
:108F40003421F4010D1FF401000064005046F401C7
:108F50003421F4019C1FF401000064001450F4015A
:108F60003A20F4019C1FF401000064001450F40145
:108F70003A20F4012A20F40100006400D859F401D9
:108F8000401FF4012A20F40100006400D859F401C4
:108F9000401FF401B920F40100006400A861F4014D
:108FA0004C1DF401B920F40100006400A861F40133
:108FB0004C1DF4014821F40100006400B068F40184
:108FC0002E22F4014821F40100006400B068F4018D
:108FD0002E22F401D721F401000064009C63F40107
:108FE0001027F401D721F401000064009C63F40110
:108FF0001027F4016622F40100006400A46AF40161
:10900000F22BF4016622F40100006400A46AF4016A
:10901000F22BF401F422F40100006400A861F401D1
:10902000D430F401F422F40100006400A861F401DA
:10903000D430F4018323F401000064001450F401DF
:10904000A438F4018323F401000064001450F401F7
:10905000A438F4011224F40100006400E457F40180
:10906000A438F4011224F40100006400E457F40170
:10907000A438F401A124F40100006400B45FF401F9
:10908000A438F401A124F40100006400B45FF401E9
:10909000A438F4013025F401000064008467F40171
:1090A000A438F4013025F401000064008467F40161
:1090B000A438F401BE25F40100006400286EF40118
:1090C000983AF401BE25F40100006400286EF40112
:1090D000983AF4014D26F401000064007869F40127
:1090E0006E41F4014D26F401000064007869F4013A
:1090F0006E41F401DC26F401000064001F63F401FA
:109100001A41F401DC26F401000064001F63F4013D
:109110001A41F4016B27F40100006400C65CF401FD
:109120001A41F4016B27F40100006400C65CF401ED
:109130001A41F401FA27F401000064006D56F401AD
:109140001A41F401FA27F401000064006D56F4019D
:109150001A41F4018828F401000064001450F4015D
:109160001A41F4018828F401000064001450F4014D
:109170001A41F4011729F401000064006243F4016C
:109180007C47F4011729F401000064006243F401F4
:109190007C47F401A629F401000064001450F40196
:1091A0009049F401A629F401000064001450F40170
:1091B0009049F401352AF401000064006D56F40171
:1091C0009049F401352AF401000064006D56F40161
:1091D0009049F401C42AF40100006400C65CF40163
:1091E0009049F401C42AF40100006400C65CF40153
:1091F0009049F401522BF401000064001F63F40154
:109200009049F401522BF401000064001F63F40143
:109210009049F401E12BF401000064007869F40145
:109220009049F401E12BF401000064007869F40135
:109230009049F401702CF40100006400606DF401A9
:109240000253F401702CF40100006400606DF4011D
:109250000253F401FF2CF40100006400606DF4017E
:10926000CC5BF401FF2CF40100006400606DF4019C
:10927000CC5BF4018E2DF401000064009065F401D4
:109280000852F4018E2DF401000064009065F40191
:109290000852F4011C2EF401000064000C5FF4017C
:1092A0000852F4011C2EF401000064000C5FF4016C
:1092B0000852F401AB2EF401000064008A58F40156
:1092C0000852F401AB2EF401000064008A58F40146
:1092D0000852F4013A2FF401000064000852F4012E
:1092E0000852F4013A2FF401000064000852F4011E
:1092F0000852F401C92FF40100006400D859F401A8
:10930000E457F401C92FF40100006400D859F401B6
:10931000E457F4015830F40100006400204EF401D9
:10932000E457F4015830F40100006400204EF401C9
:10933000E457F401E630F40100006400FC53F4014A
:10934000BA5EF401E630F40100006400FC53F4015D
:10935000BA5EF4017531F40100006400CC5BF401E5
:10936000BA5EF4017531F40100006400CC5BF401D5
:10937000BA5EF4010432F40100006400C05DF4013F
:109380008467F4010432F40100006400C05DF4015C
:109390008467F4019332F40100006400F055F40195
:1093A0008467F4019332F40100006400F055F40185
:1093B0008467F4012233F40100006400204EF401BC
:1093C0009065F4012233F40100006400204EF401A2
:1093D0009065F401B033F401000064005046F401DC
:1093E0000C62F401B033F401000064005046F40153
:1093F0000C62F4013F34F401000064005C44F401A9
:10940000D859F4013F34F401000064005C44F401D5
:10941000D859F401CE34F40100006400B036F401F0
:10942000D859F401CE34F40100006400B036F401E0
:10943000D859F4015D35F40100006400DA2FF4011D
:109440000C62F4015D35F40100006400DA2FF401D0
:109450000C62F401EC35F401000064001027F40103
:109460009065F401EC35F401000064001027F4016C
:109470009065F4017A36F40100006400401FF401A5
:109480008467F4017A36F40100006400401FF4019F
:109490008467F4010937F401000064007017F401D7
:1094A0008467F4010937F401000064007017F401C7
:1094B0008467F4019837F40100006400581BF4013C
:1094C000BA5EF4019837F40100006400581BF401FF
:1094D000BA5EF4012738F401000064002823F40187
:1094E000BA5EF4012738F401000064002823F40177
:1094F000BA5EF401B638F40100006400182EF401DD
:10950000E457F401B638F40100006400182EF401A9
:10951000E457F4014439F401000064003421F401FB
:10952000E457F4014439F401000064003421F401EB
:10953000E457F401D339F40100006400C409F401D4
:109540000253F401D339F40100006400C409F401AA
:109550000253F401623AF40100006400C409F4010A
:10956000CC5BF401623AF40100006400C409F40128
:10957000CC5BF401F13AF401000064009411F401B1
:109580000852F401F13AF401000064009411F4016E
:109590000852F401803BF401000064001618F40145
:1095A0000852F401803BF401000064001618F40135
:1095B0000852F4010E3CF40100006400981EF4010E
:1095C0000852F4010E3CF40100006400981EF401FE
:1095D0000852F4019D3CF401000064001C25F401D4
:1095E0000852F4019D3CF401000064001C25F401C4
:1095F0000852F4012C3DF401000064001027F4012E
:109600009049F4012C3DF401000064001027F4019E
:109610009049F401BB3DF40100006400B720F4015F
:109620009049F401BB3DF40100006400B720F4014F
:109630009049F4014A3EF401000064005E1AF4010E
:109640009049F4014A3EF401000064005E1AF401FE
:109650009049F401D83EF401000064000514F401BF
:109660009049F401D83EF401000064000514F401AF
:109670009049F401673FF40100006400AC0DF4016F
:109680009049F401673FF40100006400AC0DF4015F
:109690009049F401F63FF40100006400FC08F40175
:1096A0006E41F401F63FF40100006400FC08F4018F
:1096B0006E41F4018540F401000064001711F401CB
:1096C0001A41F4018540F401000064001711F4010F
:1096D0001A41F4011441F401000064006A18F40115
