:020000040800F2
:103C0000A0120020E13C00080149000825450008F9
:103C100000000000000000000000000000000000A4
:103C20000000000000000000000000006F490008D4
:103C300000000000000000006D490008C5490008B0
:103C4000F33C0008F33C0008F33C0008F33C000898
:103C5000F33C0008F33C0008F33C0008F33C000888
:103C600000000000F33C0008F33C0008F33C0008AF
:103C7000F33C0008794A0008F33C0008000000000B
:103C8000F33C0008F33C000800000000F33C00088F
:103C9000F33C0008F33C0008F33C0008F33C000848
:103CA000F33C0008F33C0008F33C0008814A00089C
:103CB000F33C0008000000000000000000000000CD
:103CC000F33C000800000000F33C00080348854670
:103CD00000F018FB0048004791630008A012002084
:103CE0000448804704480047FEE7FEE7FEE7FEE79A
:103CF000FEE7FEE7CD490008CD3C000803460B4334
:103D00009B0703D009E008C9121F08C0042AFAD291
:103D100003E00B780370401C491C521EF9D2704717
:103D2000D2B201E00270401C491EFBD27047002253
:103D3000F6E710B513460A4604461946FFF7F0FFAA
:103D4000204610BD30B504460020034600E05B1C51
:103D5000934203D2E05CCD5C401BF8D030BD0246FC
:103D600070B54A40D30FDB0740002DD04A002AD05F
:103D7000010E140E000212020919400A520A841898
:103D8000E50104465443000A120A2E045043A419C4
:103D90004219200CC543AA18120C0125AD03521C70
:103DA000521912047F39240400D0521C104301D44C
:103DB0004000491EC2B20C06C0092018401C400831
:103DC000802A02D003E0002070BD40084000002996
:103DD00000DA0020184370BD70B502464A40D50F86
:103DE00040004A00ED0740085208002814D0002A7D
:103DF00012D0C40DD30D41020120C0055202490A60
:103E0000520AE41A091812187D34914201D3641C35
:103E100000E04900002C01DA002070BD002391422F
:103E200001D3891A0343400849000028F7D100292B
:103E30000AD0914202D10121C90705E0914201D285
:103E4000012101E00121C943E005C018401900F03B
:103E500051F870BD10B500229623114600F052F8BB
:103E600010BDC20F410040020123400ADB05D2070A
:103E7000090EC0187F2901DA00207047962903DC5B
:103E80009623591AC84001E096398840002AF4D098
:103E900040427047F0B51FB40646002082B0054688
:103EA0004024019100901BE0019922460F463046C4
:103EB00000F069FA049A059B801A994110D31046C4
:103EC0001946224600F04FFA361A8F4101972246D2
:103ED00001200021009F00F046FA38184D41009063
:103EE0002046641E0028DFDC019B009829463246EC
:103EF00007B0F0BD002904DA401C490001D1400898
:103F00004000704770B40024050C05D11024000453
:103F100002D1002921D01124050E01D1000208345C
:103F2000050F01D10001241D850F01D18000A41CC3
:103F3000002801DB4000641C002908D020252E1B2E
:103F40000D46F540A14000D0012129430843010658
:103F50001B1B000ADB1D02D5002070BC7047DB056F
:103F6000181880180029F8DA401C4900F5D170BCF7
:103F70004008400070470000F0B50746084658402A
:103F800087B0C00F049048000E4659004008490809
:103F9000BC1A884105D2384631461E4617460B46A4
:103FA00002465800400810434CD0300D03904005A5
:103FB0005900400D490D0590401A0290402872DAD0
:103FC00018030121000B0905084301900498009291
:103FD000002805D0019952420020884100920190AA
:103FE000029840210A1A0199009800F0BCF9054690
:103FF0000C466B4607CB00F0D7F9C0197141039A04
:104000000E0D0023D71756401A467A40164344D067
:10401000049A002A2DD0029A012A039A15DC12056F
:10402000C01A914101263605001C7141D20F059E30
:10403000D2070093019202962A46234600F0D4F953
:1040400007B0F0BD38463146FAE71605224A0F465A
:10405000B218C01AB74101210905001C4F410018D0
:104060007F41114618187941E20F10436D196441E0
:1040700013E0E2076D0815436408C2071443039A6E
:1040800001261205C01A91413605001C7141CE0768
:10409000400830434908C01851412A46234600F0E1
:1040A00096F9CDE7FFE7049801224000C117121AE4
:1040B00000238B4104983146C417381AA141EEE71A
:1040C00030B40124E407634030BC55E730B4012428
:1040D000E407614030BC4FE70000E0FFF0B51FB4DB
:1040E00088B00B990998002448400999C00F4900ED
:1040F00049080991C0070B990090490049080B91A4
:1041000009990898A64608431CD00B990A980843B9
:1041100018D0099801244000420D4800410D09982B
:1041200024050003000B204309900B980003000BAB
:1041300020430B9050181C4940180022019014464F
:10414000104605E0002001460DB0F0BD032801DA5D
:10415000034600E003239C46C11A0AAE0AE05F0052
:1041600008ADED5B4F00F75B7D430027AA187C414B
:10417000491C5B1E6145F2DD410004AB5A5221042B
:10418000120C0A43240C401C0828DFDB0198029023
:104190000099704601910090059B049A0799069832
:1041A00000F022F9D0E700000DFCFFFFF0B50C464F
:1041B0005C4085B0E40FE40703944C0000266408DB
:1041C00059009446490802460296224321D062468D
:1041D0000A431ED06200570D4A000E032303550DFB
:1041E000012402462C492405781B1B0B360B401872
:1041F00023432643614600901C46501AB44103D322
:104200000098401C009002E0921800985B41002842
:1042100003DA0020014605B0F0BD002001210905A8
:104220000746864611E064461D46141BB54106D379
:104230006546521BB341744607430C43A646CD075F
:1042400040084908284392185B4105460D43EAD1CE
:104250001046184313D06046194650407140084339
:1042600006D06046101AB34106D20122002306E0B0
:1042700000220123DB0702E00122D2435310009801
:1042800074460105381C6141029C039D0019694177
:1042900000F09DF8BFE70000FD0300004A0009039D
:1042A0000123090B1B0519430A4B10B5520D9A4205
:1042B00002DA0020014610BD064B34339A4203DC7B
:1042C0009A1A00F060F810BD034BD21800F04BF8BA
:1042D00010BD0000FF030000CDFBFFFF10B500295B
:1042E00004DB0124E40740428C412146002B04DB1F
:1042F0001C460123DB075242A341994200D1904260
:1043000010BD0000064C0125064E05E0E36807CC11
:104310002B430C3C98471034B442F7D3FFF7DAFC38
:10432000ECC800080CC9000870B50446002903D089
:1043300000202022012310E0002801D00020C043EB
:10434000C046C0460DE02546D5408D4205D30D46FA
:104350009540641B1D46954040191546521E002D80
:10436000F1DC214670BD10B5202A04DB0146203A5D
:104370009140002010BD914020239C1A0346E34049
:104380001943904010BD10B5202A04DB0846203A9E
:10439000D040002110BD0B46D340D0402024A21AAB
:1043A00091400843194610BD10B5202A06DBCB17F3
:1043B0000846203A1041C1170B4306E00B46134153
:1043C000D0402024A21A91400843194610BD10B5D0
:1043D000002B08DA0024401C614192185B411A430B
:1043E00001D14008400010BDF0B51FB482B00546B1
:1043F0000C0003D0084603F0B3F902E003F0B0F973
:1044000020300246009021462846FFF7ACFF049B6F
:10441000059A04460F4618431143084314D0184622
:1044200010431BD0009840210A1A18460599FFF73F
:10443000AAFF05460E46009A05990498FFF793FFD8
:10444000084305D0012004E02046394607B0F0BDFE
:104450000020C11705430E432C43374300990E98A3
:104460006305401A7905E40A00220C43FD0A0A306C
:1044700002D500200146E9E70105101969410C9CAD
:104480000D9D00196941FFF7A2FFDFE7B0B58AB0C3
:104490001346044609AD2870089107A802801D49FB
:1044A000069106995A220A700699A5224A70079920
:1044B000491C069A91700999069AD1700699091DAE
:1044C000089A05880490084611462A4603930294E8
:1044D000FFF714FC0699C91C079A521C92B201906E
:1044E0000846114603F000F905A908800598069AC8
:1044F000049B1C88A2181071487806991A885118D4
:10450000487106980799891D89B202F0DBFE0AB04E
:10451000B0BDC0465D020020014800687047C0463B
:10452000A0000020FFE7FEE7F448807F7047C04608
:10453000F248C07F7047C046F0482021405C704779
:1045400080B582B00920C00641F2000101F0EAFD09
:10455000002804D0FFE701A80021017003E001A8B2
:1045600001210170FFE701A8007802B080BDB0B55D
:1045700088B0044606AD287005910492039305980F
:104580000499491E884204D9FFE707A80021017059
:1045900040E001F047FD0290039805990901421897
:1045A000405E0299896841180220125E0023019042
:1045B000184600F033F803980599090108180421FA
:1045C000415E029AD26889180622825E012000901C
:1045D00000F024F803980599090108180821415EA4
:1045E0000A2213464B43029909695918491D825EF4
:1045F000019800F013F8009800F09AF903980599D3
:10460000090108180E21405E00F03EFA07A8009943
:104610000170FFE707A8007808B0B0BD10B583B0FF
:10462000034602AC2070019100922078042801DB3F
:10463000FFE74CE002A80078002809D1FFE70198C5
:104640002449884203DBFFE723480190FFE7FFE7A7
:1046500002A80078012809D1FFE701981D49884286
:1046600003DBFFE71C480190FFE7FFE702A80078A3
:10467000022809D1FFE701981849884203DBFFE7C8
:1046800017480190FFE7FFE7019802A90978890020
:104690009A4A50500098632803DCFFE7642000909A
:1046A000FFE7009802A90A785200944B9A185084A8
:1046B0000878800019181858C968884207D0FFE7A1
:1046C00002A800788D49081801210176FFE703B0A0
:1046D00010BDC04631750000307500005107030061
:1046E0005007030081B001466A4610701078042814
:1046F00001DBFFE748E068460078002809D1FFE7C2
:10470000684600784000EB49081840F2F4114184F3
:10471000FFE768460078012809D1FFE7684600787E
:104720004000E449081840F2F4114184FFE768466C
:104730000078022808D1FFE7684600784000DD498C
:104740000818C8214184FFE768460078032808D18B
:10475000FFE7684600784000D6490818C821418420
:10476000FFE768460178D34A51180123CB760078D9
:104770001018807F002807D1FFE768460078CD49F0
:10478000081801210176FFE701B0704780B582B0BB
:10479000C948022101700020019001F0EBFFC548DB
:1047A000C16801600169416041698160019800F060
:1047B00073F840F2F4114018C0B240F2E8320199A7
:1047C000FFF72CFFFFE70A2000F038FF01F058FD4B
:1047D00000F046F8002801D1FFE700E0F3E70020F1
:1047E00000F05AF840F2F4114018C0B2012140F232
:1047F000E832FFF713FFFFE70A2000F01FFF01F088
:104800003FFD00F02DF8002801D1FFE700E0F3E7BD
:104810000020FFF767FFFFE70A2000F00FFF01F01D
:104820002FFD00F01DF8002801D1FFE700E0F3E7BD
:104830000120FFF757FF0220FFF754FFFFE70A2090
:1048400000F0FCFE01F01CFD00F00AF8002801D188
:10485000FFE700E0F3E798480021017002B080BD57
:1048600081B09448007E00280ED1FFE79148407E39
:10487000002809D1FFE78F48807E002804D1FFE798
:1048800068460021017003E0684601210170FFE7DE
:104890006846007801B0704782B001466A461070E1
:1048A0001078042803DBFFE70020019007E068464A
:1048B000007880007F490818C0680190FFE70198E0
:1048C00002B0704781B07B48C06800280ED1FFE776
:1048D00078480069002809D1FFE776484069002838
:1048E00004D1FFE768460121017003E0684600211A
:1048F0000170FFE76846007801B07047180000209B
:104900007047000080B582B0014601AA107010788F
:10491000002805D1FFE71448022101F0F3FB04E071
:104920001148022101F0F6FBFFE702B080BDC0464E
:1049300080B582B0014601AA10701078002808D115
:10494000FFE70948012101F0DDFB5B480021817090
:1049500008E005480121009101F0DCFB5648009970
:104960008170FFE702B080BD0004004870477047C7
:1049700080B584B002900298401E000E002803D03B
:10498000FFE70120039013E00298401E0A490860E7
:104990000020C143032201900846114600F0E8F8C8
:1049A0000648019901600648072202600391FFE76B
:1049B000039804B080BDC04614E000E018E000E0B9
:1049C00010E000E080B500F027FE80BD80B582B029
:1049D00020480168012211430160FFE71D4800687B
:1049E0008007002801D4FFE7F8E71B4801681B4A4D
:1049F0001140016001681A4A1140016015480168C0
:104A0000184A11400160184801680F229143016063
:104A10001648016840F203129143016001680122C7
:104A20001304994301600168D3079943016010485A
:104A30000168914301600F480021016001920091DB
:104A400002F0A8F90198C006009901F077FE02B0C3
:104A500080BDC04600100240041002400C00FF0858
:104A6000FFFFC277FFFFF2FE2C1002403010024021
:104A7000341002400810024080B502F0A9F980BD50
:104A800080B502F073FB80BD81B00090009864385F
:104A90000849322288540098002804D1FFE70648CC
:104AA0000021C17003E004480121C170FFE701B09B
:104AB0007047C046180000209400002081B00146D5
:104AC0006A461070107840B200280DD4FFE768469F
:104AD000007840B21F2102460A400121914040095E
:104AE0008000024A8150FFE701B0704700E100E01A
:104AF00070B582B0024601AB18700091187840B2D0
:104B0000002817D4FFE701A8017849B20322D24355
:104B10001140384BC958007840B28407E40EFF2595
:104B2000A540A943009DAD01EDB2A5402943104029
:104B3000C1501AE001A801780F221140083903235F
:104B4000DB4319402A4C0959007840B28507ED0E25
:104B5000FF26AE40B143009EB601F6B2AE403143EF
:104B60001040083818400151FFE702B070BDC04640
:104B700070B582B0024601AB18700091187840B24F
:104B8000002817D4FFE701A8017849B20322D243D5
:104B90001140184BC958007840B28407E40EFF2535
:104BA000A540A943009DAD01EDB2A54029431040A9
:104BB000C1501AE001A801780F22114008390323DF
:104BC000DB4319400A4C0959007840B28507ED0EC5
:104BD000FF26AE40B143009EB601F6B2AE4031436F
:104BE0001040083818400151FFE702B070BDC046C0
:104BF0001CED00E000E400E0BFF34F8F03480449E0
:104C00000160BFF34F8FFFE700BFFDE70CED00E051
:104C10000400FA0580B582B00920C006022101F027
:104C200081FA002804D1FFE7FC480121817703E0E5
:104C3000FA4800218177FFE70920C006012101F031
:104C400071FA002804D1FFE7F4480121C17703E09D
:104C5000F2480021C177FFE70920C00640F20011A9
:104C600001F060FA002805D1FFE7EC48202101227D
:104C7000425404E0E948202100224254FFE7E7487B
:104C8000018D64310185418D64314185818D6431AF
:104C9000818500200190FFE70198022800DD25E2D0
:104CA00001984000DD490818018D408C814201DAED
:104CB000FFE717E201984000D84908180022028552
:104CC00001980818C07E012800D0D7E00198D34988
:104CD0000818807F002810D0FFE701988000CF4996
:104CE00008180022C260019880000A500198081834
:104CF000C276019808180276BFE00198FC490818AE
:104D000001220276019808182E21405C002821D14A
:104D1000FFE70198002806D1FFE7F64840F200219E
:104D200001F0F8F915E00198012806D1FFE7F148F4
:104D300041F2000101F0EEF90AE00198022806D1E3
:104D4000FFE7EC4848F2000101F0E4F9FFE7FFE774
:104D5000FFE720E00198002806D1FFE7E54840F290
:104D6000002101F0CFF915E00198012806D1FFE7F5
:104D7000E04841F2000101F0C5F90AE0019802287B
:104D800006D1FFE7DB4848F2000101F0BBF9FFE77D
:104D9000FFE7FFE7FFE70198002821D1FFE701982F
:104DA0008000D3490818806B00280CD1FFE7D14858
:104DB00040F2001101F0AEF901988000CC490818CA
:104DC000012181630BE0CB4840F2001101F09AF918
:104DD00001988000C649081800218163FFE74BE075
:104DE0000198012821D1FFE701988000C0490818E7
:104DF000806B00280CD1FFE7BE4840F6000101F0AF
:104E000089F901988000BA490818012181630BE0F3
:104E1000B84840F6000101F075F901988000B449E6
:104E2000081800218163FFE725E00198022821D1BD
:104E3000FFE701988000AE490818806B00280CD16C
:104E4000FFE7AC4844F2000101F064F901988000EA
:104E5000A7490818012181630BE0A64844F200012C
:104E600001F050F901988000A149081800218163E0
:104E7000FFE7FFE7FFE7FFE7FFE732E10198800088
:104E80009B490A180858D168884200D122E101984C
:104E90009749081801220276019880000A180858DC
:104EA000D168884251DAFFE70198800090490818DC
:104EB000C268521EC260019808182E21405C00286A
:104EC00021D1FFE70198002806D1FFE7894840F289
:104ED000002101F01FF915E00198012806D1FFE734
:104EE000844841F2000101F015F90AE00198022816
:104EF00006D1FFE77F4848F2000101F00BF9FFE718
:104F0000FFE7FFE720E00198002806D1FFE7794896
:104F100040F2002101F0F6F815E00198012806D1D1
:104F2000FFE7744841F2000101F0ECF80AE0019853
:104F3000022806D1FFE76F4848F2000101F0E2F8CD
:104F4000FFE7FFE7FFE7FFE750E0019880006849CF
:104F50000818C268521CC260019808182E21405CD3
:104F6000002821D1FFE70198002806D1FFE761481A
:104F700040F2002101F0C6F815E00198012806D1A1
:104F8000FFE75C4841F2000101F0BCF80AE001983B
:104F9000022806D1FFE7574848F2000101F0B2F8B5
:104FA000FFE7FFE7FFE720E00198002806D1FFE7D1
:104FB000504840F2002101F0ADF815E001980128B9
:104FC00006D1FFE74B4841F2000101F0A3F80AE0E7
:104FD0000198022806D1FFE7464848F2000101F097
:104FE00099F8FFE7FFE7FFE7FFE7FFE701980028F1
:104FF00023D1FFE7019880003D490818806B002805
:105000000ED1FFE73B4840F2001101F083F8019810
:10501000800037490818012181630DE01800002045
:10502000344840F2001101F06DF8019880003049D9
:10503000081800218163FFE74BE00198012821D186
:10504000FFE7019880002A490818806B00280CD1DE
:10505000FFE7284840F6000101F05CF80198800065
:1050600023490818012181630BE0224840F6000122
:1050700001F048F8019880001D490818002181635B
:10508000FFE725E00198022821D1FFE70198800081
:1050900017490818806B00280CD1FFE7154844F227
:1050A000000101F037F8019880001149081801212A
:1050B00081630BE00F4844F2000101F023F80198EE
:1050C00080000B49081800218163FFE7FFE7FFE735
:1050D000FFE705E001980649081800210176FFE77F
:1050E000FFE7FFE70198401C0190D5E502B080BDC5
:1050F000180000200004004880B584B001A80021F9
:105100000181029101910F490A7802704A78427038
:105110008A788270CA78C2700A7902714A794271BB
:105120008A798271CA79C2710A7A0272497A491CF3
:10513000417289210A22009008460099FFF7A6F9DA
:1051400004B080BD9400002080B584B000F06AFFF8
:10515000039002A800218170018003998968017081
:105160000399C968417003990969817090210322EC
:10517000019008460199FFF789F904B080BD00004D
:1051800080B586B00A46049003A80180049801788F
:1051900009024078081802A908800888194988423D
:1051A00003D0FFE70020059028E004988078C01E17
:1051B000F5490881049803AA12881018821E1278F3
:1051C0001202401E0078101848810498C01C0A89F9
:1051D000521C92B20091114602F086FA01A9088091
:1051E00004988078C01C8C21009A50520498C07892
:1051F00010700498001D50600592FFE7059806B0F6
:1052000080BDC046A55A000070B588B0144605465A
:1052100007AE3070069105A80280049304980390AD
:10522000307881381F28019000D947E1019881002A
:1052300001A251188F46C04600F03EB800F05DB89C
:1052400000F07BB800F03AB900F07CB800F09BB8F1
:1052500000F09EB800F0A1B800F0ADB800F0AEB814
:1052600000F02CB900F02AB900F028B900F026B9F6
:1052700000F0DFB800F0DFB800F0E0B800F0EBB805
:1052800000F0F5B800F0FFB800F018B900F001B96F
:1052900000F014B900F012B900F010B900F00EB926
:1052A00000F00CB900F00AB900F008B900F006B936
:1052B00000F004B900F001B906980078039944227F
:1052C000885406980078C000834940180838006860
:1052D000039A106506980078C0004018001F006807
:1052E0000399C8640398002181640398542281546F
:1052F0000398782101224254E1E0069800780830B2
:1053000003994422885406980078C00072494018D6
:10531000806B039A106506980078C0004018C06B37
:105320000399C8640398002181640398542281542E
:105330000398782101224254C1E00698007800F0D9
:10534000CDFABCE003984421405C082808DCFFE764
:10535000A020FFF799FB40F2E83000F06FF9FFE77B
:105360006420FFF791FB03984421FF2242540398E5
:1053700054210022425403987821012242541046BD
:1053800001F02EFC9BE006980078FFF7D1FA96E03A
:1053900006980078FFF7B6FA91E0069800780028A2
:1053A00004D1FFE76420FFF76FFB03E03C20FFF729
:1053B0006BFBFFE783E0FFF79FFE80E0039844214B
:1053C0000022425403985421012343540398782126
:1053D00043540292FFE70298032829DCFFE706986E
:1053E0000299CA008318805C5A78120280189A7851
:1053F00012048018DA7812068018039A890051186E
:10540000886506980299CA001018027943791B0230
:10541000D21883791B04D218C07900061018039A99
:10542000890051188866FFE70298401C0290D2E775
:1054300045E0FFF7E1FBFFF787FE40E006980078C4
:10544000642141430020009001F092FB04990098F0
:1054500001F0F2F833E0069800786421414301201E
:1054600001F086FB0499002001F0E6F827E0069899
:10547000007864214143022001F07AFB0499002066
:1054800001F0DAF81BE006980078049901F0D4F8EE
:1054900015E006980078FFF74BFA40484421632254
:1054A00042540C4901650621C164002181645422E3
:1054B000815478210122425401E000E0FFE707A86F
:1054C0000078892804D0FFE7044802F039F9FFE7A3
:1054D00008B070BD62C50008C4C5000855C8000802
:1054E00080B588B0002000F0C7FA07900798002820
:1054F00001D1FFE745E0244890210590FEF717FC15
:10550000079A05980C30002104900846049900F091
:10551000D1FA1E490722039008460499FEF712FCAF
:10552000002804D1FFE701F0BBFDFFF765FB16483B
:105530000C3017490722029008460299FEF702FC38
:10554000002806D1FFE713480168134802F0F8F875
:10555000FFE707A801880C480C30FFF711FE069002
:105560000698002801D1FFE70BE006980178426811
:1055700000890A4B019008461146019AFFF744FE44
:10558000FFE708B080BDC046CC00002058C8000826
:1055900060C800081400002068C800081800002037
:1055A00080B584B0104801F077FA104801F074FA21
:1055B0000F48012100220F4B03900292019300F04B
:1055C000C6FD032203980299019B00F008FE4021CA
:1055D000039800F04BFE0920C006074B0299029A7F
:1055E00000F0B5FD04B080BD1105000012050000FB
:1055F00000040048FFFF00000319000081B0009084
:10560000009815490860FFE713480068002801D09A
:10561000FFE7F9E701B070470F480068002805D0A0
:10562000FFE70D480168491E0160FFE70248016875
:10563000491C01607047C046A000002081B0009066
:10564000009805490860FFE703480068002801D07A
:10565000FFE7F9E701B07047A400002080B582B0F1
:10566000019000F0BFFC01994870FEF75DFF0199C1
:105670004871FEF75DFF01998871FEF75DFF0199A2
:10568000C871FEF75DFF0199087202B080BD00008D
:1056900010B581B001466A4610701078142242435A
:1056A0007F4813580124A343135001B010BDC046D6
:1056B00010B581B001466A4610701078142242433A
:1056C0007748135801242343135001B010BDC0463E
:1056D00010B581B001466A4610701078142242431A
:1056E0006F4813582024A343135001B010BDC04687
:1056F00070B581B001466A461070107814231C46BC
:105700004443674825580126B543255014781D4663
:10571000654300242C5010781D4645436E482C509C
:1057200010781D4645434D482C501078434353484C
:105730001C50107880000F228240034803681343F6
:10574000036001B070BDC04604000240B0B586B031
:10575000024605AB18700491187802920193FFF786
:1057600097FF0498006801990A7814231C46544353
:105770003A4AA050049880680A781C4654433F4A2D
:10578000A0500498008A0A781C465443524AA050FC
:1057900008781A464243424812580392039A43F645
:1057A0000074A2430392049A5468D5682C4352694A
:1057B0001443039A22430392039A0C7863431A50CA
:1057C0000498007E01280AD1FFE705A8007814217B
:1057D000414333480A5840231A430A5009E005A8B8
:1057E0000078142141432E480A5840239A430A5016
:1057F000FFE70498407E01280AD1FFE705A800785A
:105800001421414326480A5880231A430A5009E0CC
:1058100005A800781421414321480A5880239A435F
:105820000A50FFE70498807E00280AD1FFE705A808
:105830000078142141431A480A5810239A430A5009
:1058400009E005A800781421414315480A5810239F
:105850001A430A50FFE706B0B0BDC0461000024030
:1058600082B0024601AB1870009100981978142399
:105870004B430249585002B07047C04614000240E2
:1058800010B581B001466A46107010781422424368
:105890000348135844F20004A343135001B010BD51
:1058A0000800024082B0024601AB187000916846C1
:1058B0000088197814234B430749585002B07047A9
:1058C00081B001466A4610701078142242430248A3
:1058D000105801B07047C0460C00024080B584B03B
:1058E000014603AA107000200191009200F042FFCF
:1058F00000980178002920D0FFE700200290FFE700
:10590000029801280CDCFFE702A800781A4940F24F
:105910002C12FEF783FEFFE70298401C0290EFE78F
:10592000FFE7FEF79DFF002803D0FFE700F0A8FC8B
:10593000F7E73C20FFF7A8F817E0A020FFF7A4F84E
:1059400040F2E830FFF75AFE6420FFF79DF809485F
:105950004421FF2242545421002242547821012341
:105960004354104601F03CF9FFE700F089FC04B015
:1059700080BDC046180000208C3C000080B588B077
:105980000690059105980699884204D2FFE707A87A
:105990000021017040E00698C00E002805D0FFE706
:1059A00005981F49884204D3FFE707A8002101702A
:1059B00032E005980699401A800A401C04900020A5
:1059C0000390019000F0A8FA342000F011FA02A828
:1059D00001990180FFE702A800880499884212D249
:1059E000FFE7069800F020FB0390039800F00EFA02
:1059F000069940F2004289180691FFE70298401C80
:105A000002A90880E7E7342000F0F2F900F0F8F985
:105A100007A801210170FFE707A8007808B080BD42
:105A20000100010882B001466A4610701078022811
:105A300004DBFFE701A80021017018E06846007848
:105A4000800062490858002809D0FFE768460078BE
:105A500080005E4908580068002804D1FFE701A8CB
:105A60000021017003E001A801210170FFE701A8F6
:105A7000007802B07047C04680B584B0014602AAE3
:105A8000107010780091FFF7CDFF002803D1FFE7D9
:105A9000002003900AE002A8007880004B490858D3
:105AA0000190019800F0ACF80390FFE7039804B070
:105AB00080BDC04610B586B0034604AC207003918B
:105AC000029220780093FFF7ADFF002803D1FFE793
:105AD000002005900CE004A8007880003B4908589D
:105AE000019001980399029A00F09AF80590FFE757
:105AF000059806B010BDC04680B586B0024604AB1E
:105B0000187003911878012808DCFFE704A80078D2
:105B100080002E490858002804D0FFE705A800217E
:105B200001702DE01C2002F0C1FA029002980028BA
:105B300004D1FFE705A80021017021E0039802F0DD
:105B4000B5FA01900198002807D1FFE7029802F00A
:105B500083FA05A80021017012E0029804A90A78CE
:105B600092001A4B98500878800018580199039AAF
:105B70000023009300F0B9F805A801210170FFE7A8
:105B800005A8007806B080BD10B586B0034604AC09
:105B900020700391029220780093FFF743FF0028C2
:105BA00003D1FFE7002005900CE004A800788000F6
:105BB00006490858019001980399029A00F0B3F839
:105BC0000590FFE7059806B010BDC046A80000206C
:105BD00080B584B002900298002803D1FFE700202E
:105BE00003900AE002984168009100F009F80099DA
:105BF000081A019001980390FFE7039804B080BD54
:105C000082B000900098002803D1FFE700200190A7
:105C100003E0009880680190FFE7019802B07047A8
:105C200080B586B00490039102920020019000900C
:105C30000298002808D0FFE70498002804D0FFE766
:105C40000398002803D1FFE7002005904AE004985C
:105C5000FFF7D6FF00900098002803D1FFE700204F
:105C600005903FE000980299884203D2FFE7009830
:105C70000290FFE704984069002804D0FFE70498E9
:105C800040698047FFE702980190FFE70198411EB5
:105C9000019100281AD0FFE7049801694A1C0261AB
:105CA000087803994A1C03920870049801690268F5
:105CB00040681018814204D3FFE70498016801612D
:105CC000FFE704988168491E8160DFE704988069D6
:105CD000002804D0FFE7049880698047FFE7029816
:105CE0000590FFE7059806B080BD10B584B0069C0E
:105CF00003900291019200930198039948600298E1
:105D00000399086003980168C16003980168016104
:105D100003980021816000980399486106980399CF
:105D2000886104B010BD80B586B0049003910292E2
:105D30000020019000900298002808D0FFE7049806
:105D4000002804D0FFE70398002803D1FFE70020D4
:105D500005904AE00498FFF73BFF00900098002868
:105D600003D1FFE7002005903FE0009802998842A8
:105D700003D2FFE700980290FFE702980190049891
:105D80004069002804D0FFE7049840698047FFE796
:105D9000FFE70198411E019100281AD0FFE7039800
:105DA000411C039100780499CA68531CCB601070A1
:105DB0000498C168026840681018814204D3FFE764
:105DC00004980168C160FFE704988168491C8160FC
:105DD000DFE704988069002804D0FFE70498806911
:105DE0008047FFE702980590FFE7059806B080BD61
:105DF00081B0009000984749086001B07047C046E4
:105E000064480168802211430160704780B584B006
:105E100003900F20000400F027F802A9087008780A
:105E200000281BD1FFE75B48016802221143016093
:105E300003990C4B196001684023194301600F213D
:105E4000090401900846009200F00EF802A90870BB
:105E500001980168009A91430160FFE702A8007869
:105E600004B080BD1420024080B584B0039002A825
:105E700001210170FFE700F025F802A908700398DE
:105E8000401E0390FFE702A800780021012801913D
:105E900005D1FFE70398411E88410190FFE7019873
:105EA000C0070028E7D1FFE702A80078012804D145
:105EB000FFE702A805210170FFE702A8007804B0FF
:105EC00080BD000081B06846002101701148006863
:105ED000C007002804D0FFE768460121017015E0E3
:105EE0000C480068C006002804D5FFE76846042176
:105EF00001700AE0074800684007002804D5FFE762
:105F0000684602210170FFE7FFE7FFE76846007877
:105F100001B070470C2002401E48006800060028AF
:105F200006D5FFE703480449016004490160FFE723
:105F30007047C0460420024023016745AB89EFCD7E
:105F400080B586B0059004910F200004FFF78CFF08
:105F500003A908700878002817D1FFE70D480168E9
:105F60000122114301600499059B19600F21090466
:105F7000029008460192FFF777FF03A90870029884
:105F80000168019A91430160FFE703A8007806B019
:105F900080BDC0461020024080B582B001900091C3
:105FA000FFE70848084901F05FFA002801D1FFE740
:105FB000F7E701A80178034801F008FA019802B058
:105FC00080BDC04600380140070700000148024973
:105FD0000160704700300040AAAA000000487047E6
:105FE0009400002080B584B00C48816C0390084672
:105FF000FDF730FF0399CA6C02901046FDF72AFFA7
:106000000299019008460199FDF7E6FE0449FDF763
:10601000A6FEFDF726FF04B080BDC0461800002094
:106020000000C842BE48704781B000900098034904
:1060300008400090009801B07047C04600FCFFFF88
:1060400086B00590049103920598006A0190059826
:10605000406A009002A800210180FFE702A80088A2
:1060600007281ED8FFE702A800880399C140C80787
:10607000002810D0FFE702A8018889000F228A407B
:106080000199914301910499008880008140019811
:1060900008430190FFE7FFE70298401C02A908802F
:1060A000DCE702A808210180FFE702A800880F288A
:1060B00020D8FFE702A800880399C140C80700283C
:1060C00012D0FFE702A80188890020390F228A40F8
:1060D0000099914300910499008880002038814004
:1060E000009808430090FFE7FFE70298401C02A9D0
:1060F0000880DAE7019805990862009805994862D6
:1061000006B0704782B001900091009801998862B2
:1061100002B0704782B001900091009801998861A7
:1061200002B0704783B00190009101980069009916
:10613000084204D0FFE702A80121017003E002A891
:1061400000210170FFE702A8007803B0704787B014
:1061500006900591049203930698006801900698B2
:10616000C068009002A800210180FFE702A8008813
:106170000F282CD8FFE702A800880399C140C80760
:1061800000281ED0FFE702A8018849000322134619
:106190008B40019999430191059903885B009940CF
:1061A000019B0B430193018849008A400099914368
:1061B00000910499008840008140009808430090B5
:1061C000FFE7FFE70298401C02A90880CEE701988C
:1061D0000699086000980699C86007B0704710B526
:1061E00086B00C46059004A80170039202930078D3
:1061F000012806D1FFE7029805994A6802434A60E0
:1062000005E0029805994A6882434A60FFE70598CD
:106210008068009001A800210180FFE701A80088A4
:106220000F281ED8FFE701A800880299C140C807BF
:10623000002810D0FFE701A80188490003228A4006
:106240000099914300910399008840008140009893
:1062500008430090FFE7FFE70198401C01A9088070
:10626000DCE700980599886006B010BD82B00A4648
:1062700001906846018000880199486102B070472A
:1062800080B5FFF7A3FE80BDB0B596B0244803905B
:106290002448029002980088234988420AD0FFE7E8
:1062A0000398002181600398C1600398016115A8DB
:1062B000017031E0039800210161C160816041609B
:1062C0000160029904A844220190FDF717FD03998B
:1062D000019A18CA18C138CA38C1039989780029A7
:1062E00004D1FFE7039800218160FFE70398C0789D
:1062F000002804D1FFE703980021C160FFE703985D
:106300000079002804D1FFE7039800210161FFE72D
:1063100015A801210170FFE715A8007816B0B0BDDF
:10632000B800002000F00008BAAB000080B582B0D1
:10633000FFF754FE007A00281DD0FFE7FEF7ECF8C7
:1063400010490968401A1049884213D3FFE7FEF745
:10635000E3F80C4908600D480178012211400190D2
:106360000846009200F006FA01980178009A8A43E4
:106370000270FFE703E0002000F0FCF9FFE702B045
:1063800080BDC046B4000020E9030000B00000203A
:1063900080B586B0002005900120C10643F600427A
:1063A00004900846114600F0C9F900F0F7FCE1201E
:1063B000400200F015FF134801F0C2F9039000F00D
:1063C00025F8EB480A210290FDF7B1FC04980299E8
:1063D0000870FFF7E5F8FFF757FF019000F018F994
:1063E000094801F0ADF9FFE7FFF74AFFFFF778F83A
:1063F00000F040F800F0B2F940F2E830FFF71EF983
:10640000F2E7C04688C8000894C8000880B588B084
:106410000D20022100F078F9144800F03DFB1448EB
:10642000039000F0F9FC6420069004A84721018045
:106430000021C18081804180017303990290084648
:10644000029900F063FD012003990190084601992B
:1064500000F00CFE039800F0D5FC039800F04CFD12
:106460000398019900F0D0FD08B080BD0B06000034
:10647000002C014080B58AB06E487821405C00282D
:1064800005D1FFE7FEF7ECF9002800D09EE069484F
:106490007821002242544421405C002808900FD00B
:1064A000FFE70898FF2838D1FFE7FEF76FF90020D3
:1064B0000790FEF73DFA5F484421079A425484E072
:1064C0005C485421405C002801D1FFE77DE0A848EA
:1064D00001210170574854210022425409A802703A
:1064E000FFE709A80078022812DCFFE709A8007876
:1064F0008100504A51188A6D896E06911146069A9C
:10650000FEF78CF8FFE70998401C09A90870E8E736
:106510004848406FFEF7B8FA57E046484421405CCF
:10652000082804DCFFE792480321017003E090484B
:1065300004210170FFE73F48816C05900846FDF794
:1065400089FC0599CA6C04901046FDF783FC0499F8
:10655000039008460399FDF73FFC2C49FDF7FFFB2C
:10656000FDF77FFC82494870FFF738FD007900286D
:1065700001D0FFE729E02F484421415C826CC36CC5
:10658000006D0290084611461A46029BFDF7EFFF88
:10659000002814D1FFE76420FEF776FA7448022140
:1065A00001700190FEF7F2F800200090FEF7C0F9AC
:1065B00020484421009A42540198027004E01D488A
:1065C000816C491C8164FFE7FFE71CE06848642197
:1065D0004170FEF745F9002814D1FFE71548442122
:1065E000405C00280ED1FFE7FEF76CF9002804D0CC
:1065F000FFE75F480021017003E05D480121017061
:10660000FFE7FFE7FFE70AB080BDC0460000C842D1
:1066100080B582B007487C210190FDF788FB2E20D1
:106620000021019A11542E32012050709170D170C6
:1066300002B080BD1800002080B586B0024605ABD0
:106640001870049101920093FFF7ECFC03900098FE
:106650000178012904D1FFE727482A49016013E0A6
:1066600005A80078022804D1FFE7234824490160E7
:1066700009E005A80078032804D1FFE71E481F4958
:106680000160FFE7FFE7FFE7049802901A480168FE
:106690000968039A92688918029A91650168896865
:1066A000039AD2688918029AD16501680969039A28
:1066B00012698918029A1166029900224A660168D5
:1066C0004968029B99660168C968029BD96600689F
:1066D00040690299086702986421416702988264C0
:1066E00002984421425402985421012242540298B3
:1066F0007821425406B080BD10000020BCC80008BC
:10670000D4C80008A4C8000810B586B00A460346DD
:1067100005AC207004A80170217849B2007803907C
:1067200008460399029201930094FEF7E1F900985C
:10673000017848B2FEF7C2F906B010BD82B00190F0
:10674000009101980099034A1140084302490860EA
:1067500002B0704780FFFF1F08ED00E080B5FFF733
:10676000E5FD002000F03CFA0148FEF777FF80BD10
:106770009400002080B582B0014601AA1070107804
:10678000002805D0FFE706480421FFF7C3FC04E01A
:1067900003480421FFF7B6FCFFE702B080BDC04606
:1067A0000004004880B586B00490039102920498DA
:1067B0000190FFF7B1FB3420FFF71AFBFFE70198C8
:1067C0000499029A8918884218D2FFE70198039920
:1067D0000968FFF7B5FB002809D0FFE73420FFF771
:1067E00007FBFFF70DFB05A8002101700CE00198E5
:1067F000001D01900398001D0390E0E7FFF700FBE8
:1068000005A801210170FFE705A8007806B080BD4A
:106810009BB001461AAA107000201990189017908A
:1068200016901590149013901290119010900F9054
:106830000E900D900C900B900A908D4A09928D4A03
:1068400008920790069005920490039202908A485D
:1068500000680C22104080081990199800280190B7
:1068600008D0FFE70198012807D0FFE70198022828
:1068700006D045E08448159045E08248159042E0F6
:106880007D4801680F2292041140890C0F91006825
:106890000121C9060840C00E0E900E98012804D1AF
:1068A000FFE70F9811300F900BE00F980F2803D1DE
:1068B000FFE710200F9003E00F98801C0F90FFE778
:1068C000FFE76D480068012109040840000C0D90A5
:1068D0000D9800280ED0FFE7694800680F21084096
:1068E000401C0C900C986749B1FBF0F00F994143A4
:1068F000159104E00F98614941431591FFE702E0CB
:1069000061481590FFE75C480168C9B209090B911D
:106910000B9906AA515C0A9115990A9AD1401491D3
:10692000016840F200721140090A0B910B9904AA08
:10693000515C0A9114990A9AD1401391006843F668
:1069400000010840C00A0B900B9802A9085C0A904D
:1069500014980A99C84012901AA800780528009047
:1069600000D981E00098810001A251188F46C046ED
:1069700000F00AB800F00BB800F00CB800F00DB849
:1069800000F00EB800F041B8159816906DE014981C
:1069900016906AE01398169067E01298169064E0DB
:1069A0003A48006840F20011084088420FD0FFE7E3
:1069B00036480068012109040840884203D0FFE7F7
:1069C0003448119002E032481190FFE71AE0EE4897
:1069D000006880B2800B18902C480068C00F179098
:1069E0001798002807D0FFE714981899491CB0FBA6
:1069F000F1F0119005E012981899B0FBF1F01190A8
:106A0000FFE7FFE7119816902FE020480068800705
:106A1000002803D1FFE71298109022E01B4800687D
:106A200003210840012803D1FFE71598109017E0D3
:106A30001648006803210840022804D1FFE748F205
:106A4000000010900BE01148006803210840032863
:106A500003D1FFE70C48109000E0FFE7FFE7FFE7F6
:106A6000FFE71098169000E0FFE716981BB07047FC
:106A700006070809010203040410024000093D0052
:106A80002C1002400024F40000127A003010024062
:106A9000003FAB01809FD50010B581B001466A462A
:106AA000108010881F220346134001229A4080095B
:106AB000B34BC4581443C45001B010BD10B581B0DD
:106AC00001466A46108010881F22034613400122A7
:106AD0009A408009AA4BC4589443C45001B010BDD9
:106AE00010B581B001466A46108010881F22034607
:106AF000134001229A408009A14BC4581443C4504A
:106B000001B010BD10B598B016901698002804D1A9
:106B1000FFE717A80121017022E005A84421049095
:106B20000391FDF704F9169804990CC80CC11CC810
:106B30001CC10D480D490290FEF720FF02990190FB
:106B400008460499039AFFF72DFE002804D1FFE7B9
:106B500017A80021017003E017A800210170FFE7CA
:106B600017A8007818B010BD00F0000801F0000868
:106B700080B584B0024603AB1870029116480190AC
:106B800001981649018018780028009008D0FFE786
:106B9000009801280BD0FFE7009802280ED014E0DF
:106BA0000198012181700298019988600EE0019896
:106BB0000121C17002980199C86007E00198012184
:106BC000017102980199086100E0FFE70198FFF761
:106BD00099FF04B080BDC046B8000020BAAB0000E9
:106BE00080B584B0014603AA107001910092FFF7AE
:106BF000F5F9001D029000980178C90700290BD112
:106C0000FFE727480221FFF77DFA6420FDF73CFFEC
:106C100002980021017040E00920C00640F6000102
:106C2000FFF780FA002804D1FFE71E480121017018
:106C3000FFE70920C00640F60001FFF773FA0028BD
:106C40002BD0FFE717480078002826D0FFE715482B
:106C5000002101700298007800280BD1FFE702980C
:106C6000012101700E480221FFF754FA6420FDF75C
:106C70000BFF11E002980021017009480221FFF783
:106C800041FAFFF7ABF90078032804D1FFE7412070
:106C9000FDF7FAFEFFE7FFE7FFE704B080BDC0465F
:106CA000000400485C01002083B0002002900190A5
:106CB000334801680122120411430160FFE7029882
:106CC000401C02902E4800680121490408400190B0
:106CD000FFE7019800210028009108D1FFE7029802
:106CE00040F60001401A411E88410090FFE70098DD
:106CF000C0070028E3D1FFE721480068800300288F
:106D000002D4FFE7FFE7FEE71E48016802221143B5
:106D10000522914301601C4801680160016801601F
:106D20000168016019490A6801231A430A60016871
:106D3000174A1140016001681D22120411430160CD
:106D40000F4801681A0611430160FFE70C4800680C
:106D50008001002801D4FFE7F8E70B48016803220F
:106D6000914301600168022211430160FFE7064878
:106D700000680007002801D4FFE7F8E703B0704778
:106D80000010024000200240041002402C1002407B
:106D9000FFFFC27780B5FFF787FF80BD80B582B067
:106DA0000A48006840F2E831B0FBF1F0FDF7E0FD81
:106DB000002802D0FFE7FFE7FEE70020C143019073
:106DC00008460199FDF7D4FE02B080BD0C000020FA
:106DD00080B58748012100F02BF9002810D0FFE78B
:106DE0008348012100F01AF900F0E0FBFFF7F6F804
:106DF0000079002801D0FFE702E0FDF70BFFFFE775
:106E000080BDC04681B00090009801688022114387
:106E1000016001B07047000080B58AB00990099800
:106E200074498842089026D0FFE72D48089981428E
:106E300029D0FFE77048089981422CD0FFE76C48C1
:106E4000089981420FD0FFE76C48089981422BD006
:106E5000FFE76B48089981422FD0FFE769480899FE
:106E6000814232D039E023480790FFF739FE079876
:106E7000FFF724FE32E01E480690FFF731FE069829
:106E8000FFF71CFE2AE019480590FFF729FE059838
:106E9000FFF714FE22E040F208400490FFF720FEC6
:106EA0000498FFF70BFE19E040F210300390FFF753
:106EB00017FE0398FFF702FE10E00B480290FFF761
:106EC0000FFE0298FFF7FAFD08E006480190FFF771
:106ED00007FE0198FFF7F2FD00E0FFE70AB080BD72
:106EE0000010004012030000110300000404000021
:106EF000010400000B03000081B0009000980168BD
:106F000001221143016001B07047000082B001907E
:106F1000009100980088019988620198344988425C
:106F200005D0FFE701983349884212D1FFE7019865
:106F300001687022914301600098408801990A68B5
:106F400002430A600098808801990A6802430A6037
:106F5000FFE7009880680199C86201982449884237
:106F600019D0FFE701982349884214D0FFE7019820
:106F7000214988420FD0FFE70198204988420AD072
:106F8000FFE701981E49884205D0FFE701981D4997
:106F900088420DD1FFE70198016840F20032914329
:106FA00001600098C08801990A6802430A60FFE7FF
:106FB00001980F4988420FD0FFE701980F49884296
:106FC0000AD0FFE701980E49884205D0FFE70198F3
:106FD0000C49884205D1FFE70098007B01990863BE
:106FE000FFE70198416901221143416102B07047F6
:106FF000002C0140000400400020004000400140FF
:10700000004401400048014082B001900091009886
:107010000199CA680243CA6002B0704782B0019009
:107020000091009801990A6982430A6102B0704791
:1070300084B0029001910298C068019908400090C4
:10704000029800690199084208D0FFE700980028DB
:1070500004D0FFE703A80121017003E003A8002189
:107060000170FFE703A8007804B0704782B00A46B9
:107070000190684601700078012807D1FFE7019868
:10708000416C48F200021143416406E00198416CF2
:1070900048F2000291434164FFE702B070470000EC
:1070A00080B58AB003480090684600F005F80AB041
:1070B00080BDC0465AA5AA5570B5ACB02B902B9890
:1070C00003A90A4638C838C238C838C278C878C256
:1070D0000748084A029001911146FEF74FFCA02292
:1070E0000299009008460199FFF75CFB2CB070BD37
:1070F00000FC000827FC000880B586B01A48FFF79E
:10710000CBFC0920C006012140F200220590049129
:107110000392FEF795FF40F2004005990290084661
:107120000499029AFEF78CFF022005990190084607
:107130000199049A039BFFF70AF800200599009033
:1071400008460099049A039BFFF749F805980199AE
:10715000049A029BFEF7FBFF05980099049A029B94
:10716000FFF73DF806B080BD1105000080B588B07E
:10717000AE481A4900F0C8F900282DD0FFE7AB4807
:107180001649069000F0A0F9069800F017F90221C0
:10719000059008460491FEF77BFA0498FEF790FBF1
:1071A00040F20011081A0790079A44480023039000
:1071B0001846039B02911946FEF7E6FC04990190DC
:1071C00008460399FEF74CFB04980299FEF76AFB08
:1071D0000498FEF76DFAFFE708B080BD04000407CD
:1071E00080B584B00390FFF787FF1948FFF754FC80
:1071F0008E48029000F0F6F80399029800F086F8A5
:107200000420029901900846019900F0B0F9082184
:10721000029800F0BBF9029800F01DF900F01CF88C
:107220001B2000210091FFF76FFA0298019900F0EE
:1072300038F940F200210098FEF75EFC002804D1E6
:10724000FFE7044800F07CFAFFE704B080BDC046C9
:107250000E0600006BC8000880B58AB040F20050EE
:10726000FFF71AFC02200290FEF742FA03A8002161
:107270008176124A059201224276069140F200126E
:1072800007920F4A03920176049143F2000108919C
:107290000299019008460199FEF758FA0298FEF704
:1072A00017FA0298FEF7ECFA0298FEF701FA5F4827
:1072B000402100F0C1F80AB080BDC0465D01002049
:1072C0002438014080B582B00A46019068460180AA
:1072D000FFE7684601884A1E0280012912DBFFE7AA
:1072E000FFE75248084900F0BFF8002801D1FFE746
:1072F000F7E7019801784D4800F068F80198401CC4
:107300000190E6E702B080BD0707000080B588B0B5
:107310000790069100200590049003900290079832
:107320004149884201900AD0FFE7404801998142D3
:107330000AD1FFE70520FFF76BFA059005E0022070
:10734000FFF766FA059000E0FFE707980068000481
:10735000002818D5FFE70598400006994A088018CC
:10736000B0FBF1F002900298134908400490029893
:107370000007400F039004A8008803A90988084368
:107380000799C86016E0059806994A088018B0FB6E
:10739000F1F00290029808490840049002980F21E9
:1073A0000840039004A8008803A9098808430799A6
:1073B000C860FFE708B080BDF0FF000081B000901A
:1073C0000098406A0649084001B0704782B00190B9
:1073D00000910098024908400199886202B0704704
:1073E000FF01000080B584B0039003980E498842E5
:1073F00002900DD0FFE70D480299814210D1FFE7BE
:107400000C480190FFF76CFB0198FFF757FB08E071
:1074100007480090FFF764FB0098FFF74FFB00E080
:10742000FFE704B080BDC046004400400038014082
:10743000110400000E03000082B001900091019839
:107440008168402291438160009801998A680243D3
:107450008A6002B0704781B00090009801680122F4
:107460001143016001B0704783B00A46019068463D
:107470000180019903889B09C95800881F2318407F
:10748000C140C807002804D0FFE702A8012101700D
:1074900003E002A800210170FFE702A8007803B012
:1074A000704710B582B00A46019068460180008896
:1074B0001F2103460B4001219940019B80091C5864
:1074C0000C431C5002B010BD82B001900091009896
:1074D0000C49884208D1FFE70198D021425848F270
:1074E00000039A4342500BE000981F210904084012
:1074F000000C012181400198026A0A430262FFE701
:1075000002B0704709340F3410B585B00390029172
:10751000002001900090039802A909888909405829
:1075200002991F22114001231C468C4020400190EB
:1075300003980299890D4058029912041140090CD0
:107540008B40184000900098002808D0FFE7019871
:10755000002804D0FFE704A80121017003E004A87B
:1075600000210170FFE704A8007805B010BD82B0CB
:1075700001900091019801680422914301600098F4
:1075800001990A6802430A6002B0704782B0019014
:1075900000910198016808229143016000980199C7
:1075A0000A6802430A6002B07047000080B588B0E4
:1075B0004B483221405600280ED1FFE7484833217E
:1075C00000224254474810210790FEF79BFD2021DE
:1075D0000798FEF797FD80E0414832214056012888
:1075E0003CDBFFE73E483321425C521C425450B220
:1075F000652805DBFFE73A48332100224254FFE7C4
:107600003748332141563222805681421BDAFFE748
:1076100033483121405C00280AD1FFE7314810216E
:107620000690FEF777FD20210698FEF76BFD09E036
:107630002C4810210590FEF765FD20210598FEF7E6
:1076400069FDFFE709E0274810210490FEF75AFD85
:1076500020210498FEF756FDFFE73DE02048332146
:10766000425C521E425450B26421C943884205DC38
:10767000FFE71B48332100224254FFE7184833211B
:1076800041563222805681421BDDFFE714483121EA
:10769000405C00280AD1FFE7124810210390FEF752
:1076A00031FD20210398FEF735FD09E00D4810213A
:1076B0000290FEF72FFD20210298FEF723FDFFE741
:1076C00009E0084810210190FEF71CFD20210198D7
:1076D000FEF718FDFFE7FFE7FFE708B080BDC046F3
:1076E000180000200004004885B00A46049003A852
:1076F000018002A800210180FFE703A801884A1E3B
:107700000280002916D0FFE702A8417801AA118063
:10771000029909026B46198000991288049B1B7814
:107720005A405200054B9A5A514001800498401C1F
:107730000490E2E702A8008805B070474CC6000834
:107740000FB410B503A9044B044A029800F0E8F8FE
:1077500010BC08BC04B01847995F00080000002066
:107760002021020C01D010211046020A01D010463F
:107770000839020901D01046091F820801D01046BD
:10778000891E420801D0881E7047081A704702E01F
:1077900008C8121F08C1002AFAD17047704700209C
:1077A00001E001C1121F002AFBD17047F0B51FB4E0
:1077B00086B00998089A030D0021024314D051485D
:1077C000514A1818504305141198012810981AD0DE
:1077D000281A401C00264D4F4D49009601910490F7
:1077E000002812DA444211E01198012449A301282B
:1077F00001D11098C1430698119A84600360C26059
:1078000041600BB0F0BD4042E4E704462105002092
:107810003F4A001C51410391029012E0E00707D05B
:1078200032463B4601990098FCF758FC01910090C4
:1078300032463B4610461946FCF750FC06460F46BA
:107840006410002CEAD10498039B0028029A09993D
:10785000089806DAFCF742FC019B009AFCF73EFC14
:1078600005E0FCF7A3FC019B009AFCF79FFC044693
:107870000E460022284BFCF731FD03D80020C04300
:10788000014607E00022254B20463146FCF774FBF9
:10789000FCF704FD102409E0002C0ADB0A22002377
:1078A000FCF7F8FA079B30321A55641E02460A4369
:1078B000F2D11122641C079B121B1C19119B012B76
:1078C00003D0012308430ED10AE0084304D011205D
:1078D00010900020119077E71098151A6D1E0BE09C
:1078E0001098824202DD00236D1C03E0824201DA1F
:1078F00000236D1E002BEED0069811998260C160A6
:1079000030C07EE701FCFFFF104D00000000144076
:107910000000F03F300000000000F0430000E03FB6
:10792000FFB597B00646002518E2252877D1002438
:107930002746FD49049400E00443761C3278012078
:10794000203A90400842F7D130782A280ED00222FF
:10795000307801463039092916D804990A23594349
:10796000303940181443761C0490F1E7189802C887
:1079700004911890002904DA01204003044348428E
:10798000049002200443761C30782E2814D1042061
:1079900004437078761C2A2809D11898761C80C870
:1079A000189009E00A214F43303FC719761C307800
:1079B000014630390929F5D930786C2810D006DC19
:1079C0004C281AD068280ED06A2817D104E07428F1
:1079D00013D07A2812D110E00120400504430CE0B6
:1079E0000121090501E0032109050C437178814259
:1079F00003D1012000052418761C761C30781190E4
:107A000066280BD013DC58287DD009DC00287BD0F9
:107A10004528F6D04628F4D047281AD1A5E118E029
:107A2000632835D0642870D0652812D19DE1702874
:107A30006CD008DC6728F1D069287BD06E280DD087
:107A40006F2806D1BAE073282ED0752871D0782817
:107A500059D01A9A199990476D1C7EE16002400F27
:107A6000022809D003280DD00428189801680DD0E9
:107A70000D60001D189070E11898EA1701680D60FC
:107A80004A60F6E7189801680D80F2E70D70F0E79C
:107A900018986A4601781172001D189000205072E3
:107AA00002A80090012005E0189802C81890002054
:107AB0000091C04361070DD5002101E00199491CE7
:107AC0000191B94212DA8142F8DB009A515C002937
:107AD000F4D10BE0002101E00199491C01918142A0
:107AE000FADB019A0099895C0029F5D10199049883
:107AF0001A9B471A21463846199A00F097FA0199BD
:107B0000401945180BE04FE02CE113E04EE00098DF
:107B100000990078491C00911A9A19999047019888
:107B2000401E0190401CF2D1214638461A9B199AFA
:107B300010E137E00A200021009001916002410F1E
:107B4000022907D0189A01CA1892C217944603292D
:107B500008D00AE01898C01DC108C90005C91891CD
:107B6000944607E000B2C2179446042902D140B2FD
:107B7000C1178C4600226146944506DA0A46002168
:107B8000404291418C462D2102E0210504D52B2154
:107B90006A461173012103E0E10701D02021F7E7D4
:107BA000029155E00A200AE0102008E01020009021
:107BB0000021042004430191082703E0082000214C
:107BC000019100906002410F022907D0189A01CA62
:107BD000189200229446032908D008E01898C01D86
:107BE000C108C90005C91891944603E080B2042970
:107BF00000D1C0B200210291210729D51199702925
:107C000006D0009A1021019B4A401A4305D00EE08D
:107C100040216A461173012108E06146014306D004
:107C200030216A4611731199517302210291009A11
:107C30000821019B4A401A430AD16146014301D100
:107C4000610705D530216A46117301217F1E02911B
:107C50001199582904D035A10E910DA90D910DE06F
:107C600037A1F9E76146019B009AFCF713F90E9BD7
:107C70008C469B5C0D9A521E0D9213706146014317
:107C8000F0D10D9805A9081A20300190600703D59E
:107C900001200004844300E001270198874201DDB0
:107CA000381A00E000200199009041180298091844
:107CB0000498401A0490E00306D421461A9B199AAE
:107CC000049800F0B3F94519002706E003A81A9AB2
:107CD000C05D199990476D1C7F1C02988742F5DBA7
:107CE000E0030CD521461A9B199A049800F09EF9DE
:107CF000451904E01A9A3020199990476D1C009993
:107D0000481E00900029F5DC08E00D980D990078D8
:107D1000491C0D911A9A199990476D1C0199481E9A
:107D200001900029F1DC63E1092801003031323390
:107D300034353637383961626364656600000000A7
:107D40003031323334353637383941424344454691
:107D50000000000000F05AF94519761C3078002820
:107D600000D0E2E528461BB0F0BD600700D406272E
:107D70001898C01DC108C90048680A680831C30FB7
:107D8000DB071891190001D09CA108E0210501D55D
:107D90009BA104E0E10701D09AA100E09AA1430071
:107DA00011985B08109165280CD006DC452809D095
:107DB00046281DD0472841D141E0662818D06728C1
:107DC0003CD13CE00021112F01DB112000E0781CA8
:107DD0000191009008A911A8FFF7E8FC13990591FB
:107DE0000021119A15927F1C12980197009150E082
:107DF0000120C00703900120019008A9009711A855
:107E0000FFF7D4FC139A149905920022119B00925B
:107E100012981593059A0192002901D0104602E0AC
:107E2000791C40180190381A01D5019804E04042AD
:107E3000401E0090781C0190C01B029043E0012F6F
:107E400000DA01270021112F01DD112000E0384662
:107E50000191009008A911A8FFF7A8FC13990591BA
:107E6000119A0021129815920091019721070CD4C4
:107E70000599B94201DB019900E00191012904DD76
:107E8000159A491E515C302906D0B84201DA011D0D
:107E900005DA0121029115E00199491EEDE700285C
:107EA00005DC0099411800910199091A03E0019A33
:107EB000411C914200DD01910099401A401C029042
:107EC0000120C0070390200706D40299019881423F
:107ED00002DB0020C043029000206946C87707AF4C
:107EE000012103980337C907884224D0022011904A
:107EF0002B201290039800280CDA404203902D208A
:107F0000129007E00A210398FCF70EFA30317F1E29
:107F1000039039701199481E11900029F2DC0398E2
:107F20000028EFD1791E129808703078202108407F
:107F30004530BF1E387006A8C01BC01D03901098A6
:107F40000078002800D00120019941180298C0173C
:107F50000918039809180498401A401E0490E00379
:107F600006D421461A9B199A049800F05FF8451927
:107F700010980078002803D01A9A199990476D1C20
:107F8000E00324D521461A9B199A049800F04EF874
:107F900045191CE00098002807DB009905988842E5
:107FA00003DD1598405C199901E0199930201A9A5F
:107FB000904700986D1C401C00900298401E029053
:107FC000002804D11A9A2E20199990476D1C019906
:107FD000481E01900029DDDC05E038781A9A7F1CE4
:107FE000199990476D1C0399481E03900029F4DCF1
:107FF00021461A9B199A0498ACE600002D00000057
:108000002B0000002000000000000000F8B504462E
:1080100000251E461746880404D405E03946202072
:10802000B0476D1C641EF9D52846F8BDFFB504465F
:10803000002581B01E46C80301D5302700E0202767
:10804000880404D505E038460399B0476D1C641ECA
:10805000F9D5284605B0F0BD10B5002823D0124B45
:108060000022001F196803E0814203D80A464968CC
:108070000029F9D1002A0AD01368841A9C4204D13D
:10808000006818181060104602E0506000E01860A8
:10809000002907D002680B1A934203D10B68D2184B
:1080A00002604968416010BD04000020F0B50B304B
:1080B000C108C900144F0026144A0FE003688B4220
:1080C0000BD38B4205D95C1A4318456830C3083B73
:1080D00000E04368136002C004E0021D106800283D
:1080E000ECD13046002803D13868002801D00020A8
:1080F000F0BD064A06481060064A121AD208D2009D
:1081000044C001203860D7E70800002004000020A8
:10811000A4020020A00A002010272C01D4302C013A
:108120000000F4010000640010272C01D4302C0161
:108130009600F401000000001027C800D430C800E9
:108140000000F40100004600D859C800D430C8002F
:108150000000F401000046009065C800A438C80083
:108160000000F40100004600401FC800A438C80009
:108170000000F401000046007017C8007440C800F9
:108180000000F4010000460088132C011450C800C0
:108190000000F40100004600CC5BC8001450C80089
:1081A0000000F40100004600CC5BC800C05DC800C0
:1081B0000000F401000046008813C800C05DFA000A
:1081C0000000F40100004600581BC8007869FA005E
:1081D0000000F401000046001027C8007869C800BC
:1081E0000000F401000046001027C800447AC800CF
:1081F0000000F40100004600BC34C8003C73FA00E3
:108200000000F401000046004448C8003C73C80068
:108210000000F40100004600F055C800447AFA005E
:108220000000F40100004600F055C8007869C8005D
:108230000000F401000046008467C8007869C800A7
:108240000000F401000046008467C8007440C800C4
:108250000000F4010000460084672C0174402C01EA
:108260007800F4010000C80084672C0174402C01E0
:108270000000F4010000C80084672C0174402C0148
:108280000000F40100006400204EF401401FF401DE
:10829000D42F2C0100006400204EF401401FF40193
:1082A0006230F401000064008C3CF4014C1DF401C8
:1082B00062302C01000064008C3CF4014C1DF40180
:1082C000F130F40100006400F82AF401401FF401C9
:1082D000F130F40100006400F82AF401401FF401B9
:1082E0008031F40100006400F82AF4011027F40141
:1082F0008031F40100006400F82AF4011027F40131
:108300000F32F401000064007017F401F82AF40140
:108310000F32F401000064007017F401F82AF40130
:108320009E32F401000064007C15F401C832F401AF
:108330009E32F401000064007C15F401C832F4019F
:108340002C33F40100006400F82AF401803EF401AB
:108350002C33F40100006400F82AF401803EF4019B
:10836000BB33F401000064002224F401803EF401D8
:10837000BB33F401000064002224F401803EF401C8
:108380004A34F401000064004C1DF401803EF40105
:108390004A34F401000064004C1DF401803EF401F5
:1083A000D934F401000064007616F4015541F4015B
:1083B000D934F401000064007616F4015541F4014B
:1083C0006835F40100006400A00FF4015541F40188
:1083D0006835F40100006400A00FF4015541F40178
:1083E000F635F40100006400A00FF4011248F40116
:1083F000F635F40100006400A00FF4011248F40106
:108400008536F401000064007616F4011248F40188
:108410008536F401000064007616F4011248F40178
:108420001437F401000064004C1DF4016F45F401A1
:108430001437F401000064004C1DF4016F45F40191
:10844000A337F401000064002224F4016F45F40115
:10845000A337F401000064002224F4016F45F40105
:108460003238F40100006400F82AF4016F45F40189
:108470003238F40100006400F82AF4016F45F40179
:10848000C038F40100006400F82AF4012C4CF40117
:10849000C038F40100006400F82AF4012C4CF40107
:1084A0004F39F401000064002224F4012C4CF40143
:1084B0004F39F401000064002224F4012C4CF40133
:1084C000DE39F401000064004C1DF4012C4CF40171
:1084D000DE39F401000064004C1DF4012C4CF40161
:1084E0006D3AF401000064007616F401CF4EF401F9
:1084F0006D3AF401000064007616F401CF4EF401E9
:10850000FC3AF40100006400A00FF401CF4EF40126
:10851000FC3AF40100006400A00FF401CF4EF40116
:108520008A3BF401000064008813F401CC5BF40181
:108530008A3BF401000064008813F401CC5BF40171
:10854000193CF40100006400C819F4018C55F401D1
:10855000193CF40100006400C819F4018C55F401C1
:10856000A83CF401000064006022F4018C55F40181
:10857000A83CF401000064006022F4018C55F40171
:10858000373DF401000064001C25F401CC5BF401CC
:10859000373DF401000064001C25F401CC5BF401BC
:1085A000C63DF401000064003421F4019065F4013B
:1085B000C63DF401000064003421F4019065F4012B
:1085C000543EF40100006400D430F401A861F401C9
:1085D000543EF40100006400D430F401A861F401B9
:1085E000E33EF401000064005C44F401A861F4017E
:1085F000E33EF401000064005C44F401A861F4016E
:10860000723FF40100006400F055F4019065F4013C
:10861000723FF40100006400F055F4019065F4012C
:108620000140F401000064000852F401CC5BF40145
:108630000140F401000064000852F401CC5BF40135
:108640009040F40100006400B856F4018C55F40128
:108650009040F40100006400B856F4018C55F40118
:108660001E41F40100006400505FF4018C55F401D8
:108670001E41F40100006400505FF4018C55F401C8
:10868000AD41F401000064009065F401CC5BF4019D
:10869000AD41F401000064009065F401CC5BF4018D
:1086A0003C42F401000064007869F401CF4EF4010B
:1086B0003C42F401000064007869F401CF4EF401FB
:1086C000CB42F40100006400A262F401CF4EF40139
:1086D000CB42F40100006400A262F401CF4EF40129
:1086E0005A43F40100006400CC5BF4012C4CF4010B
:1086F0005A43F40100006400CC5BF4012C4CF401FB
:10870000E843F40100006400F654F4012C4CF40139
:10871000E843F40100006400F654F4012C4CF40129
:108720007744F40100006400204EF4012C4CF40165
:108730007744F40100006400204EF4012C4CF40155
:108740000645F40100006400204EF4016F45F40179
:108750000645F40100006400204EF4016F45F40169
:108760009545F40100006400F654F4016F45F401EE
:108770009545F40100006400F654F4016F45F401DE
:108780002446F40100006400CC5BF4016F45F40161
:108790002446F40100006400CC5BF4016F45F40151
:1087A000B246F40100006400A262F4011248F40130
:1087B000B246F40100006400A262F4011248F40120
:1087C0004147F401000064007869F4011248F401A3
:1087D0004147F401000064007869F4011248F40193
:1087E000D047F401000064007869F4015541F401B8
:1087F000D047F401000064007869F4015541F401A8
:108800005F48F40100006400A262F4015541F401E4
:108810005F48F40100006400A262F4015541F401D4
:10882000EE48F40100006400CC5BF401803EF401EA
:10883000EE48F40100006400CC5BF401803EF401DA
:108840007C49F40100006400F654F401803EF40118
:108850007C49F40100006400F654F401803EF40108
:108860000B4AF40100006400204EF401803EF40144
:108870000B4AF40100006400204EF401803EF40134
:108880009A4AF401000064009C63F401C832F401C8
:108890009A4AF401000064009C63F401C832F401B8
:1088A000294BF40100006400A861F401F82AF401E6
:1088B000294BF40100006400A861F401F82AF401D6
:1088C000B84BF40100006400204EF4011027F401BD
:1088D000B84BF40100006400204EF4011027F401AD
:1088E000464CF40100006400543DF401803EF40164
:1088F000464CF40100006400543DF401803EF40154
:10890000D54CF40100006400543DF4011027F4013B
:10891000D54CF40100006400543DF4011027F4012B
:10892000644DF40100006400204EF401401FF40186
:10893000DC25900100006400204EF401401FF4018A
:108940006B26F401000064006842F401401FF4014A
:108950006B262C01000064006842F401401FF40102
:10896000FA26F40100006400B036F401401FF4015F
:10897000FA26F40100006400B036F401401FF4014F
:108980008827F40100006400F82AF401401FF40174
:108990008827F40100006400F82AF401401FF40164
:1089A0001728F40100006400EC2CF4011027F401F6
:1089B0001728F40100006400EC2CF4011027F401E6
:1089C000A628F401000064007017F401F82AF401ED
:1089D000A628F401000064007017F401F82AF401DD
:1089E0003529F401000064007C15F401C832F4015B
:1089F0003529F401000064007C15F401C832F4014B
:108A0000C429F401000064006419F401983AF401E7
:108A1000C429F401000064006419F401983AF401D7
:108A2000522AF40100006400F82AF401A43DF40184
:108A3000522AF40100006400F82AF401A43DF40174
:108A4000E12AF401000064002224F401A43DF401B1
:108A5000E12AF401000064002224F401A43DF401A1
:108A6000702BF401000064004C1DF401FC3FF40184
:108A7000702BF401000064004C1DF401FC3FF40174
:108A8000FF2BF401000064007616F401FC3FF401B2
:108A9000FF2BF401000064007616F401FC3FF401A2
:108AA0008E2CF40100006400A00FF401FC3FF401DF
:108AB0008E2CF40100006400A00FF401FC3FF401CF
:108AC0001C2DF40100006400A00FF4016045F401C6
:108AD0001C2DF40100006400A00FF4016045F401B6
:108AE000AB2DF401000064007616F4016045F4013A
:108AF000AB2DF401000064007616F4016045F4012A
:108B00003A2EF401000064004C1DF4016045F401AC
:108B10003A2EF401000064004C1DF4016045F4019C
:108B2000C92EF401000064002224F4010843F4017A
:108B3000C92EF401000064002224F4010843F4016A
:108B4000582FF40100006400F82AF4010843F401EE
:108B5000582FF40100006400F82AF4010843F401DE
:108B6000E62FF40100006400F82AF4016C48F401D7
:108B7000E62FF40100006400F82AF4016C48F401C7
:108B80007530F401000064002224F4016C48F40103
:108B90007530F401000064002224F4016C48F401F3
:108BA0000431F401000064004C1DF401C44AF401D6
:108BB0000431F401000064004C1DF401C44AF401C6
:108BC0009331F401000064007616F401C44AF40104
:108BD0009331F401000064007616F401C44AF401F4
:108BE0002232F40100006400A00FF401C44AF40131
:108BF0002232F40100006400A00FF401C44AF40121
:108C0000B032F401000064008813F401CC5BF4017D
:108C1000B032F401000064008813F401CC5BF4016D
:108C20003F33F401000064007616F4012850F4018B
:108C30003F33F401000064007616F4012850F4017B
:108C4000CE33F401000064004C1DF4012850F401FF
:108C5000CE33F401000064004C1DF4012850F401EF
:108C60005D34F401000064002224F401D04DF401CD
:108C70005D34F401000064002224F401D04DF401BD
:108C8000EC34F40100006400F82AF401D04DF40142
:108C9000EC34F40100006400F82AF401D04DF40132
:108CA0007A35F401000064002224F4013453F40105
:108CB0007A35F401000064002224F4013453F401F5
:108CC0000936F401000064004C1DF4018C55F401D8
:108CD0000936F401000064004C1DF4018C55F401C8
:108CE0009836F401000064007616F4018C55F40106
:108CF0009836F401000064007616F4018C55F401F6
:108D00002737F401000064001027F401CC5BF40164
:108D10002737F401000064001027F401CC5BF40154
:108D2000B637F40100006400401FF4019065F401BF
:108D3000B637F40100006400401FF4019065F401AF
:108D40004438F40100006400F82AF4019065F4014D
:108D50004438F40100006400F82AF4019065F4013D
:108D6000D338F40100006400BC34F401A861F401BC
:108D7000D338F40100006400BC34F401A861F401AC
:108D80006239F401000064005C44F401A861F4015C
:108D90006239F401000064005C44F401A861F4014C
:108DA000F139F401000064001450F4019065F401FD
:108DB000F139F401000064001450F4019065F401ED
:108DC000803AF40100006400D859F4019065F40180
:108DD000803AF40100006400D859F4019065F40170
:108DE0000E3BF401000064000852F401CC5BF40176
:108DF0000E3BF401000064000852F401CC5BF40166
:108E00009D3BF40100006400F654F4013453F40176
:108E10009D3BF40100006400F654F4013453F40166
:108E20002C3CF40100006400CC5BF4018C55F4018F
:108E30002C3CF40100006400CC5BF4018C55F4017F
:108E4000BB3CF40100006400A262F4018C55F40103
:108E5000BB3CF40100006400A262F4018C55F401F3
:108E60004A3DF401000064009065F401CC5BF4011C
:108E70004A3DF401000064009065F401CC5BF4010C
:108E8000D83DF40100006400A262F4012850F4010E
:108E9000D83DF40100006400A262F4012850F401FE
:108EA000673EF40100006400CC5BF4012850F4013B
:108EB000673EF40100006400CC5BF4012850F4012B
:108EC000F63EF40100006400F654F401D04DF401C4
:108ED000F63EF40100006400F654F401D04DF401B4
:108EE000853FF40100006400204EF401D04DF401F0
:108EF000853FF40100006400204EF401D04DF401E0
:108F00001440F40100006400204EF4016C48F401A8
:108F10001440F40100006400204EF4016C48F40198
:108F2000A240F40100006400F654F4016C48F4011E
:108F3000A240F40100006400F654F4016C48F4010E
:108F40003141F40100006400CC5BF401C44AF40137
:108F50003141F40100006400CC5BF401C44AF40127
:108F6000C041F40100006400A262F401C44AF401AB
:108F7000C041F40100006400A262F401C44AF4019B
:108F80004F42F401000064007869F401C44AF4011E
:108F90004F42F401000064007869F401C44AF4010E
:108FA000DE42F401000064007869F4016045F401D8
:108FB000DE42F401000064007869F4016045F401C8
:108FC0006C43F40100006400A262F4016045F40106
:108FD0006C43F40100006400A262F4016045F401F6
:108FE000FB43F40100006400CC5BF4016045F40134
:108FF000FB43F40100006400CC5BF4016045F40124
:109000008A44F40100006400F654F4010843F401BA
:109010008A44F40100006400F654F4010843F401AA
:109020001945F40100006400204EF4010843F401E6
:109030001945F40100006400204EF4010843F401D6
:10904000A845F40100006400204EF401A43DF401A1
:10905000A845F40100006400204EF401A43DF40191
:109060003646F40100006400F654F401A43DF40116
:109070003646F40100006400F654F401A43DF40106
:10908000C546F40100006400CC5BF401FC3FF40130
:10909000C546F40100006400CC5BF401FC3FF40120
:1090A0005447F40100006400A262F401FC3FF401A3
:1090B0005447F40100006400A262F401FC3FF40193
:1090C000E347F401000064007869F401FC3FF40117
:1090D000E347F401000064007869F401FC3FF40107
:1090E0007248F40100006400204EF4011027F401DE
:1090F0007248F40100006400204EF4011027F401CE
:109100000049F40100006400A861F401F82AF401A8
:109110000049F40100006400A861F401F82AF40198
:109120008F49F401000064009C63F401C832F4012B
:109130008F49F401000064009C63F401C832F4011B
:109140001E4AF40100006400B45FF401983AF4018F
:109150001E4AF40100006400B45FF401983AF4017F
:10916000AD4AF401000064006842F4017440F40167
:10917000AD4AF401000064006842F4017440F40157
:109180003C4BF40100006400A438F4017440F40185
:109190003C4BF40100006400A438F4017440F40175
:1091A000CA4BF40100006400A438F401A438F401AF
:1091B000CA4BF40100006400A438F401A438F4019F
:1091C000594CF401000064006842F401A438F40131
:1091D000594CF401000064006842F401A438F40121
:1091E000E84CF40100006400543DF4011027F40140
:1091F000E84CF40100006400543DF4011027F40130
:10920000774DF401000064004448F4011027F40194
:10921000B41B2C01000064004448F4011027F40141
:10922000431CF40100006400204EF401401FF401CF
:10923000431C2C0100006400204EF401401FF40187
:10924000D21CF401000064008C3CF4014C1DF401BC
:10925000D21CF401000064008C3CF4014C1DF401AC
:10926000601DF40100006400F82AF401401FF401BD
:10927000601DF40100006400F82AF401401FF401AD
:10928000EF1DF40100006400D430F4011027F40154
:10929000EF1DF40100006400D430F4011027F40144
:1092A0007E1EF401000064007017F401F82AF40136
:1092B0007E1EF401000064007017F401F82AF40126
:1092C0000D1FF401000064002E22F401F82AF401BD
:1092D0000D1FF401000064002E22F401F82AF401AD
:1092E0009C1FF401000064007C15F401C832F401F5
:1092F0009C1FF401000064007C15F401C832F401E5
:109300002A20F401000064006419F401983AF40181
:109310002A20F401000064006419F401983AF40171
:10932000B920F40100006400F82AF401FC3FF401C4
:10933000B920F40100006400F82AF401FC3FF401B4
:109340004821F401000064008025F401FC3FF40191
:109350004821F401000064008025F401FC3FF40181
:10936000D721F401000064000820F401FC3FF4015F
:10937000D721F401000064000820F401FC3FF4014F
:109380006622F40100006400901AF401FC3FF4012D
:109390006622F40100006400901AF401FC3FF4011D
:1093A000F422F401000064001815F401FC3FF401FC
:1093B000F422F401000064001815F401FC3FF401EC
:1093C0008323F40100006400A00FF401FC3FF401CA
:1093D0008323F40100006400A00FF401FC3FF401BA
:1093E0001224F40100006400A00FF4016045F401B0
:1093F0001224F40100006400A00FF4016045F401A0
:10940000A124F401000064001815F4016045F40182
:10941000A124F401000064001815F4016045F40172
:109420003025F40100006400901AF4016045F40155
:109430003025F40100006400901AF4016045F40145
:10944000BE25F401000064000820F4016045F40129
:10945000BE25F401000064000820F4016045F40119
:109460004D26F401000064008025F4016045F401FC
:109470004D26F401000064008025F4016045F401EC
:10948000DC26F40100006400F82AF4016045F401D0
:10949000DC26F40100006400F82AF4016045F401C0
:1094A0006B27F40100006400F82AF401C44AF401B7
:1094B0006B27F40100006400F82AF401C44AF401A7
:1094C000FA27F401000064008025F401C44AF40185
:1094D000FA27F401000064008025F401C44AF40175
:1094E0008828F401000064000820F401C44AF40153
:1094F0008828F401000064000820F401C44AF40143
:109500001729F40100006400901AF401C44AF40120
:109510001729F40100006400901AF401C44AF40110
:10952000A629F401000064001815F401C44AF401EE
:10953000A629F401000064001815F401C44AF401DE
:10954000352AF40100006400A00FF401C44AF401BC
:10955000352AF40100006400A00FF401C44AF401AC
:10956000C42AF40100006400A00FF4012850F401A3
:10957000C42AF40100006400A00FF4012850F40193
:10958000522BF401000064001815F4012850F40176
:10959000522BF401000064001815F4012850F40166
:1095A000E12BF40100006400901AF4012850F4014A
:1095B000E12BF40100006400901AF4012850F4013A
:1095C000702CF401000064000820F4012850F4011C
:1095D000702CF401000064000820F4012850F4010C
:1095E000FF2CF401000064008025F4012850F401F0
:1095F000FF2CF401000064008025F4012850F401E0
:109600008E2DF40100006400F82AF4012850F401C2
:109610008E2DF40100006400F82AF4012850F401B2
:109620001C2EF40100006400F82AF4018C55F401AA
:109630001C2EF40100006400F82AF4018C55F4019A
:10964000AB2EF401000064008025F4018C55F40178
:10965000AB2EF401000064008025F4018C55F40168
:109660003A2FF401000064000820F4018C55F40145
:109670003A2FF401000064000820F4018C55F40135
:10968000C92FF40100006400901AF4018C55F40114
:10969000C92FF40100006400901AF4018C55F40104
:1096A0005830F401000064001815F4018C55F401E1
:1096B0005830F401000064001815F4018C55F401D1
:1096C000E630F401000064008813F401CC5BF4017F
:1096D000E630F401000064008813F401CC5BF4016F
