:020000040800F2
:103C000028120020E13C0008894C0008FD4700080C
:103C100000000000000000000000000000000000A4
:103C2000000000000000000000000000F74C000849
:103C30000000000000000000F54C0008F94C0008EE
:103C4000F33C0008F33C0008F33C0008F33C000898
:103C5000F33C0008F33C0008F33C0008F33C000888
:103C600000000000F33C0008C9470008F33C0008CE
:103C7000F33C0008054E0008F33C0008000000007B
:103C8000F33C0008F33C000800000000F33C00088F
:103C9000F33C0008F33C0008F33C0008F33C000848
:103CA000F33C0008F33C0008F33C0008DD5000083A
:103CB0001951000800000000000000000000000092
:103CC000F33C000800000000F33C00080348854670
:103CD00000F022F900480047A55C000828120020E7
:103CE0000448804704480047FEE7FEE7FEE7FEE79A
:103CF000FEE7FEE7194D0008CD3C000803460B43E4
:103D00009B0703D009E008C9121F08C0042AFAD291
:103D100003E00B780370401C491C521EF9D2704717
:103D2000D2B201E00270401C491EFBD27047002253
:103D3000F6E710B513460A4604461946FFF7F0FFAA
:103D4000204610BD30B504460020034600E05B1C51
:103D5000934203D2E05CCD5C401BF8D030BD0246FC
:103D600070B54A40D30FDB0740002DD04A002AD05F
:103D7000010E140E000212020919400A520A841898
:103D8000E50104465443000A120A2E045043A419C4
:103D90004219200CC543AA18120C0125AD03521C70
:103DA000521912047F39240400D0521C104301D44C
:103DB0004000491EC2B20C06C0092018401C400831
:103DC000802A02D003E0002070BD40084000002996
:103DD00000DA0020184370BD70B502464A40D50F86
:103DE00040004A00ED0740085208002814D0002A7D
:103DF00012D0C40DD30D41020120C0055202490A60
:103E0000520AE41A091812187D34914201D3641C35
:103E100000E04900002C01DA002070BD002391422F
:103E200001D3891A0343400849000028F7D100292B
:103E30000AD0914202D10121C90705E0914201D285
:103E4000012101E00121C943E005C018401900F03B
:103E500021F870BD10B500229623114600F022F81B
:103E600010BDC20F410040020123400ADB05D2070A
:103E7000090EC0187F2901DA00207047962903DC5B
:103E80009623591AC84001E096398840002AF4D098
:103E900040427047002904DA401C490001D1400823
:103EA0004000704770B40024050C05D110240004B4
:103EB00002D1002921D01124050E01D100020834BD
:103EC000050F01D10001241D850F01D18000A41C24
:103ED000002801DB4000641C002908D020252E1B8F
:103EE0000D46F540A14000D00121294308430106B9
:103EF0001B1B000ADB1D02D5002070BC7047DB05D0
:103F0000181880180029F8DA401C4900F5D170BC57
:103F10004008400070470000064C0125064E05E0B1
:103F2000E36807CC2B430C3C98471034B442F7D3DA
:103F3000FFF7D0FEB8B00008D8B0000870B504464E
:103F4000002903D000202022012310E0002801D006
:103F50000020C043C046C0460DE02546D5408D42F6
:103F600005D30D469540641B1D46954040191546E6
:103F7000521E002DF1DC214670BD0000F0B587B067
:103F8000F94D286801F02CFC002800D1A1E204467C
:103F90002868F64D2946224601F044FC2846214671
:103FA00001F07EF9FA4E19200290FA4F07E0022143
:103FB000F94801F075F96D1C641E00D189E228787A
:103FC000314600F01BFB0028F5D0307881381628E8
:103FD000F1D8810001A251188F46C04600F095B873
:103FE00000F0C3B800F0F2B800F08EB800F0F2B8FC
:103FF00000F0FFB800F001B900F003B900F009B912
:1040000000F01AB800F080B800F07EB800F07CB87C
:1040100000F07AB800F05FBA00F017B900F01CB9F0
:1040200000F027B900F03CB900F046B900F073B9D0
:1040300000F089B800F09CB9442000213954B078D0
:10404000F1780902081831790904401871790906D4
:104050004018B865B079F17909020818317A090475
:104060004018717A09064018B866B07AF17A0902E8
:104070000818317B09044018717B09064018F8655F
:10408000B07BF17B09020818317C09044018717C6F
:1040900009064018F866B07CF17C09020818317DE9
:1040A00009044018717D090640183866B07DF17D1D
:1040B00009020818317E09044018717E090640186B
:1040C0003867B07EF17E09020818317F0904401874
:1040D000717F090640187866B01CC17F0191807F0E
:1040E000B27FF37F78270126AA49CE555427A949E4
:1040F000CE55A84FA64E1B029A180004101801991D
:1041000009064018786752E755E7B078431E072B39
:1041100000D9D6E1990002A257180299F24ABF4687
:1041200000F08FB900F00CB800F07AB900F07BB95C
:1041300000F07CB900F07DB900F07EB900F07FB9E5
:104140000299EA4A7DE1B07800F0C0FD44201921CF
:104150003954782001213954542000213954062043
:10416000B964F864F048386525E7B078431E0F2B32
:1041700000D9A6E1482009219A0002A7BF18DC4A0D
:10418000BF46C04600F098B900F01CB800F05EB918
:1041900000F060B900F062B900F063B900F065B9F1
:1041A00000F067B900F069B900F06BB900F06DB9C3
:1041B00000F06FB900F071B900F073B900F075B993
:1041C00000F077B96C200A21CA4A75E1B07801F095
:1041D00011FAECE6642000F059FD782101207854B2
:1041E000542100227A544421FF227A5402F0C2F86A
:1041F000DDE6B07800F06AFDD9E6B07800F054FD55
:10420000D5E6B078002800D1BDE03C2000F03EFDAE
:10421000CDE6E54A107803A9087050784870907888
:104220008870D078C87090790871D0794871107A08
:1042300088715079C871507A0872907A401C48721F
:1042400089200A2200F094FAB5E6B078D3494843B1
:10425000BC4901F093FFAEE6A84A907806A9087021
:10426000D0784870107988709120032200F080FA8D
:10427000A1E60020A14F3871B078B870F078F870DE
:104280003888BC4908433880384602F023F80220B9
:10429000395603203A56A34FB7A002F0A5FA8AE692
:1042A0000127384600F012FDB0780028019700D1B0
:1042B00086E0A549087085E090480288A6490A432F
:1042C0000280B278C1788918C17002F003F8032621
:1042D0008A488157A1A002F087FA642040F2F411C5
:1042E000643940F2F412BA66FA663967786783492E
:1042F00089574143934841609348007803284DD043
:1043000002282FD001287C4E50D1924A07CA3B4642
:10431000583307C34AE07948028840F25A110A43E9
:104320000280B27881788918817001F0D3FF02266B
:10433000724881577DA002F057FA642040F2F411D0
:10434000643940F2F412BA66FA66396778676B49E5
:10435000895741437B4801607B48007803281DD082
:104360000228CFD17A4A1AE0DC030020CC020020D8
:10437000042062490B5603200A560220095660A009
:1043800002F032FA17E6642000F080FC0FE6C04627
:104390009C050020440200206FB000086B4A1068A2
:1043A000516892683B46583307C3534E7820012129
:1043B0003954542039544420002139547966FAE59F
:1043C00061480078642140F2F412643A40F2F41338
:1043D000544FBB66FB663A67796703280BD0022807
:1043E0000BD001284F4B019F10D15A4A07CA98653C
:1043F000D9651A660AE0554A00E0554A10685168C6
:104400009268484B1F46583707C7019F78201F54B2
:1044100054201F5444200021195459661F46CAE5F0
:104420001E21754A0DE01E21724A0AE00921704AD8
:1044300007E009216D4A04E009216B4A01E00921E6
:10444000684A4423374FF854F96439E090200B212F
:10445000634A31E0B2200C21604A2DE00D215E4A12
:104460002AE06C200E215B4A26E090200F21584A5A
:1044700022E0B4201021554A1EE009201121524AA1
:104480001AE0092012214F4A16E0092013214C4A54
:1044900012E009201421494A0EE009201521464A5C
:1044A0000AE009201621434A06E009201721404A64
:1044B00002E0092018213D4A44231A4FF954F864B8
:1044C0003A65782001213954542000213954B964C7
:1044D0006DE507B0F0BDBFF34F8F31483149016042
:1044E000BFF34F8F00BFFDE78269000872A5000887
:1044F000D2AB0008126B00089C050020F0030020DE
:10450000706172616D732072656164206F6B2C2025
:10451000783D25642C20793D25642C207A3D256446
:10452000000000004402002002A7000878207772F3
:10453000697465206F6B2C20646174612069733A23
:1045400020256400C00200200C000020A0B000085C
:10455000ACB0000894B000085A02000079207772CD
:10456000697465206F6B2C20646174612069733AF3
:10457000202564005A030000706172616D7320771A
:1045800072697465206F6B2C20783D25642C20792E
:104590003D25642C207A3D300000000080EE36007E
:1045A0000CED00E00400FA05CC03002002A700088F
:1045B00002A7000802A7000802A7000802A7000837
:1045C00072A5000872A5000872A50008329A0008BA
:1045D00032910008728A0008F2850008D27A000839
:1045E000D2710008D2AB0008D2AB0008D2AB0008F1
:1045F00042AB000862A9000882A70008B0B5534A80
:104600001378082B22D89C0001A52C19A746C04678
:1046100000F010B800F01DB800F025B800F033B875
:1046200000F040B800F052B800F058B800F062B89E
:1046300000F06EB85A2800D086E046485A21017032
:1046400043480121017011700020B0BD002010709E
:104650007AE03F490B783F4CE0545B1C0B70A52877
:1046600052D1022051E03A4B1C783A4D28553D4D2D
:104670002870641C1C70082846D303231370083864
:1046800048700020B0BD324B1C78324D2855641C58
:104690001C7008703548002303701078497899B968
:1046A000801C32E02A4B1C782A4D2855641C1C7053
:1046B0002E4B1C780C19A0701878401C1870497883
:1046C000C0B2884240D31078401C1EE020490B78CD
:1046D000204CE054204C2070062006E01C490B784A
:1046E0001C4CE0541D4C207007201070581C0870A2
:1046F0000020B0BD16490B78164CE0545B1C0B70C3
:10470000AB2801D1082000E0002010700020B0BDCF
:104710000F490B780F4CE054002414705A1C0A7097
:10472000CD2811D10C4800780C49097809020818E5
:104730000B4908800B480078011F064800F03AFE3C
:10474000094908800120B0BD0020B0BD270200202B
:104750002402002024000020EF030020EE030020AC
:104760002200002026020020200000202502002038
:10477000F0B58BB015460091064601AC271D2421EB
:104780003846FFF7D4FAE6702E460836A6700D4874
:104790002080384600992A46FFF7B0FA2F1D2046A0
:1047A000394600F007FEE0552919CD22CA71AB2227
:1047B0008A71000A48712046314600F0DFFD0BB0D7
:1047C000F0BDC0465AA5000080B50120022100F0CE
:1047D000D3FE48B10548002101700120022180BCB0
:1047E00004BC964600F0BEBE80BDC046E00300207B
:1047F000014800687047C046D8030020FEE700006B
:10480000D848807F7047C046D648C07F7047C046B2
:104810002020D449085C70470920C00640F60001FA
:1048200001F092B980B50920C00641F2000101F003
:104830008BF94142484180BDF0B581B0914232D2FE
:104840001C460F01B81C1A5ED85FA74B19681D469D
:104850000918002000F052F93E460E36A05F00F025
:1048600015FAB81D225E381D205E696809180125F9
:10487000284600F043F9A05F00F008FA38460A30F5
:10488000225E0837E05F0A2141439748806840185C
:10489000411D022000F032F9A05F00F0F7F9284630
:1048A00000F014FA00E00025284601B0F0BDC04633
:1048B000F0B585B08A480188491C018089B2894ACF
:1048C00091421CD300210180F648027802A90A70A7
:1048D00042784A7082788A70C278CA7082790A7186
:1048E000C2794A71027A8A714279CA71427A0A722D
:1048F000807A401C487289200A22FFF739FF01F0B4
:10490000A7F90024204601F035FDFFF785FFEE4EA4
:104910007071FFF775FFB071FFF776FFF071FFF769
:1049200077FF3072FFF77EFF70727825DC4F785D7D
:10493000002849D07C554421785C002858D0FF28B5
:10494000019176D10220307002AD287070786870C5
:10495000B078A870F078E870B0792871F079687153
:10496000307AA8717079E871707A2872B07A401C38
:10497000687289270A22009238462946FFF7F8FE16
:1049800000F0F2F8204600F0A1F930782870707835
:104990006870B078A870F078E870B0792871F07914
:1049A0006871307AA8717079E871707A2872B07A7B
:1049B000401C687238462946009AFFF7D9FEB8486D
:1049C0000199445405B0F0BD00F04AF90028B1D077
:1049D0006420707000F044F94421795C014344D1B3
:1049E00000F048F9002877D10120307005B0F0BD03
:1049F0005420395CC9B33C5401253570B86D3A4E2A
:104A000031680918BA6E204600F078F8F86D7168C0
:104A10000918FA6E284600F071F8386EB168091866
:104A20003A6F022000F06AF8786F00F02FF905B0B5
:104A3000F0BD092801D3042000E003203070BD6CD4
:104A40002846FFF707FA0446FF6C3846FFF702FADC
:104A500001462046FFF7C0F92449FFF780F9FFF728
:104A600000FA70702248007808B105B0F0BD8C489B
:104A7000036D0024204629463A46FFF7DDFE28B1A3
:104A80008749886C401C886405B0F0BD642000F044
:104A9000FDF80220307002A9087070784870B07874
:104AA0008870F078C870B0790871F0794871307A00
:104AB00088717079C871707A0872B07A401C487237
:104AC00089200A22FFF754FE00F04EF8204600F03D
:104AD000FDF8019872490C54347005B0F0BDC04621
:104AE000E2030020E9030000C00200200000C842E9
:104AF0001E0600207D48402101F022B8B0B50328F1
:104B000020D8164B99421C461DDDF8B99C4220DD89
:104B1000012800D0234612498B4200DC19460228A6
:104B200000D0194684005E4B1951642A00DC6422CF
:104B300045005D196A841A19D268914202D018188A
:104B400001210176B0BD0C460028DFD00C469C4206
:104B5000DEDC23460128DDD1DDE7C04630750000EC
:104B60005007030044020020F0B581B060490220E4
:104B700008705E48042100F0E3FF494E32460C32D3
:104B800007CA07C60C38C0B240F2E8370C3E03280B
:104B90000BD88100002272504200B218578471185D
:104BA000C96811B13018012101760A24204600F0AD
:104BB00063FC01F014F8307E717E0143B07E08433F
:104BC000F4D1307B0C38C0B203280BD8820001210D
:104BD000B1504300F3185F84B218D268012A01D0A3
:104BE000301801760A24204600F046FC00F0F7FF5A
:104BF000307E717E0143B07E0843F4D10127F77601
:104C000040F2F4157584B07F00B937760A24204647
:104C100000F032FC00F0E3FF307E717E0143B07E95
:104C20000843F4D13777B584F07F00B9777677778A
:104C3000C820F0842020305C00B9B7760A242046D2
:104C400000F01AFC00F0CBFF307E717E0143B07E95
:104C50000843F4D100202649087001B0F0BDC046D9
:104C60000F48017E427E0A43807E1043411E8841E8
:104C70007047C0460A48C168026940690A43024356
:104C8000504250417047C0467047000001466439A9
:104C90003222034B9954411E8841154908717047CF
:104CA00044020020CC03002080B501460F4821B10A
:104CB000022100F047FF012003E0022100F040FF45
:104CC00000200B49C87080BDCC03002010B5014600
:104CD000064821B10124214600F034FF03E0012100
:104CE00000F02EFF00240248847010BD000400482C
:104CF000CC030020704770470548016811B1016876
:104D0000491E016003480168491C01607047C046A4
:104D1000F8030020D8030020F0B43448021F1368C1
:104D200001210B43136013689B07FCD50368304CCB
:104D30001C40046004682F4B1C40046014682E4D16
:104D400025401560846A0F25AC438462C46A40F232
:104D50000315AC43C4620C04C56AA543C562CD0704
:104D6000C66AAE43C662056B8D4305630025456088
:104D70001568254315604C04204D16686F1EAF4220
:104D800002D226403D46F8D0156825422DD01C4D54
:104D90002E68022426430527BE432E600568056061
:104DA0000568056005680560856A0D4385620568CC
:104DB0001D4005601D231B0405681D4305600B068F
:104DC00015681D43156013689B01FCD50268032319
:104DD0009A43026002682243026002681207FCD50F
:104DE000C8060021F0BC01F087B8FEE704100240BD
:104DF0000C00FF08FFFFC277FFFFF2FEFF07000075
:104E000000200240F0B581B0B04C0121204601F0F5
:104E1000CDFB002844D00121204601F0C3FB322005
:104E2000AB4F3856AB4DC0B133217A5C012818DB4B
:104E3000521C53B2642B00DD00227A5451B28142DD
:104E400023DA3120385CD8B11021284600F078FEF2
:104E50002021284600F076FE1FE03320002139543F
:104E600013E06323DB43521E54B29C4200DA00225B
:104E70007A5451B2814208DD3120385C0028E3D0F9
:104E80001021284600F05EFE03E01021284600F0C5
:104E900057FE2021284600F053FE8F48007808B1C5
:104EA00001B0F0BD0920C6060221304600F04CFEDC
:104EB00041424141B97701213046009100F044FE62
:104EC00041424141F977304640F2001100F03CFE8A
:104ED0004142414138461E308170388D64303885FA
:104EE000798D64317985B98D6431B985002609E001
:104EF00010463D46764F0470761C032ED0D07000CD
:104F00003818008D710079184A8C80B29042F3D322
:104F100000240C85B819C17E01290AD1817F49B3CB
:104F200001461B31B200BC50BA18D4600C70183066
:104F3000E1E73B462F46B1005D58024618325B1848
:104F4000D9688D42D4D019460C31009D15700A687D
:104F50001B6893423D4618DA521E0A602E21405CBF
:104F600030B3002E3FD0012E50D0022E584F00D02B
:104F70007EE085E0009901762E21405C88B1CEB3B9
:104F8000012E23D0022E73D189E0521C0A602E21FB
:104F9000405CA0B106B3012E3ED0022E4C4F67D12B
:104FA00068E0002E4FD0012E2AD0022E60D17CE086
:104FB00096B1012E464F23D0022E59D15AE096B118
:104FC000012E434F02D0022E52D159E0284641F221
:104FD000000100F0B5FD25E0284640F2002100F078
:104FE000B1FD3B4F34E0284640F2002100F0A8FD1F
:104FF000374F2DE0284640F2002100F0A1FD27E0C8
:10500000284641F2000100F09DFD0BE0284641F2E8
:10501000000100F095FD04E0284641F2000100F097
:1050200091FD2B4FF86B30B1284640F6000100F09F
:1050300087FDFC631CE0284640F6000100F082FD7D
:105040000098F86314E0284640F2002100F07AFD51
:10505000B86B30B1284640F2001100F071FDBC631E
:1050600006E0284640F2001100F06CFD0098B8639D
:10507000761C44E7284648F2000100F063FD04E096
:10508000284648F2000100F05BFD386CA8B12846C4
:1050900044F2000100F054FD3C6401B0F0BD28462C
:1050A00048F2000100F04CFD04E0284648F20001FF
:1050B00000F048FD386C0028E9D1284644F2000190
:1050C00000F040FD0098386401B0F0BD002C0140B4
:1050D00044020020000400481E06002070B582B083
:1050E0007B4C1C4D2046294601F05EFB88B12046D2
:1050F00001F002FB01AE30702046294601F040FB72
:10510000634800680122314600F032FB307801F03C
:1051100063FA02B070BDC04670B582B0A34C0D4DAD
:105120002046294601F040FB88B1204601F0E4FA10
:1051300001AE30702046294601F022FB5448006839
:105140000122314600F014FB307801F045FA02B03C
:1051500070BDC04605000507F0B589B001904C4808
:1051600001246422214600F09FFA40F2005640F2EA
:10517000005000F0E3FF1B200225294600F088FEC6
:105180000A20032100F084FE1136304600F0D6FFDD
:105190000920C6063046214640F2002200F052FCAB
:1051A0003046214640F2004200F04CFC3046294691
:1051B000224640F2002300F0CCFC0027304639465E
:1051C000224640F2002300F0E5FC30462946224604
:1051D00040F2004300F0BDFC30463946224640F222
:1051E000004300F0D7FC2B4800F0A8FF384E3046B3
:1051F00001F08CFA3046019901F056FA042130464C
:1052000001F0E1FA0821304601F0E5FA304601F0FC
:10521000A1FA0521304601F0AAFA204600F04CF927
:1052200002A98C7640F2001008831B4804900C20E1
:105230000690059730462830029043F20000079010
:105240000397204600F04EF9204600F02DF9204645
:1052500000F0BCF92046294600F07CF90F4801789F
:1052600009B109B0F0BD0470204600F00DF90A49FB
:10527000204600F0A3F90C21204600F0B3F92046A7
:1052800000F00AF98021304601F05CFA09B0F0BD67
:10529000DC0300200E0600000D000020E0030020CB
:1052A000F0B581B0009089B10C460025084E404F02
:1052B0003046394601F053FA0028F9D00098415D94
:1052C000304601F01DFA6D1CA542F1D101B0F0BDD0
:1052D00000380140F0B583B002901C20032100F09B
:1052E000D7FD5F4800F02AFF0920C40601270426E5
:1052F00020463946324600F0A5FB0822019220469E
:10530000394600F09FFB0225204629463A4633469F
:1053100000F01FFC0021009120463A46334600F081
:1053200039FC204629463A46019D2B4600F011FCE7
:10533000204600993A462B4600F02CFC0E4800F01F
:10534000FDFE1A4C204601F0E1F92046029901F0D9
:10535000ABF92046314601F036FA2046294601F0E5
:105360003AFA204601F0F6F90521204603B0F0BCD8
:1053700004BC964601F0FBB911070000F0B581B0FE
:10538000009089B10C460025084E094F3046394639
:1053900001F0E5F90028F9D00098415D304601F0B0
:1053A000AFF96D1CA542F1D101B0F0BD0044004041
:1053B00007070000B0B52B4B39B3154A02E0401C7B
:1053C000491E22D004785C406308E40700D05340B3
:1053D0005C08DB0700D054406308E40700D053406A
:1053E0005C08DB0700D054406308E40700D053405A
:1053F0005C08DB0700D054406508E30700D0554047
:105400006B08EC07DBD05340D9E798B2B0BDC0467B
:1054100001A0000070B5124C204600F08FFE601C09
:1054200000F08CFE9B4D012100240E4E28462246A2
:10543000334600F08EFB032228462146334600F017
:10544000A9FB4021284600F0C8FB0920C006064BF6
:1054500021462246039CA64670BC01B000F079BBF1
:1054600011050000FFFF0000031900000549086056
:1054700008680028FCD170470249086008680028C5
:10548000FCD17047F80300201421414354480A58C6
:1054900001239A430A5070471421414350480A5847
:1054A000012313430B507047142141434C480A58C1
:1054B00020239A430A50704710B5142242432D49C5
:1054C000521853680124A343536000235360936030
:1054D000D360136180000F22824008681043086087
:1054E00010BDC046B0B5142242433D4813580124B4
:1054F000A343135013180C689C608C68DC600C8A02
:105500005C60135843F60074A3434C681C43CB689B
:1055100023434C691C4314500B7E5B1E5C425C4170
:10552000A30114584025AC43E31813504B7E5B1E77
:105530005C425C41E30114588025AC43E3181350EE
:10554000897E4B1E9941090113581024A343591811
:105550001150B0BD14224243214813580B4313503D
:105560007047C04680008140024802680A430260DA
:105570007047C0460400024010B5024600200829CA
:1055800017D801238B4040F21414234203460ED057
:1055900090000C4684400848036823405C1EA341E9
:1055A00014245443201880680840411E8841184044
:1055B00010BD004010BDC04600000240142242430E
:1055C000014811507047C046140002401421414365
:1055D00003480A5844F200039A430A507047C046F1
:1055E000080002401422424388B2014950507047DB
:1055F0000C000240F0B581B00546264C042120463F
:1056000000F09EFA0DB3244C40F22C116184234823
:105610002060E268824201D001222276A18460608B
:105620002169814204D00120607601E000F0D7FAC0
:10563000207E617E0143A07E0843F7D13220D8212D
:1056400021541748012101711EE03225124E3C20E1
:10565000705513480127077140F2E830FFF706FF45
:1056600020460024745578217754542174544422E0
:10567000FF21B1540A490F71022100F061FA7455FB
:10568000074807710748047001B0F0BC01BC8646AA
:1056900000F0A5BA00040048440200208C3C000041
:1056A000CC0300201E060020F0B5804D2C7800238E
:1056B000002C1E461C4644D07C4C257FCDB138259D
:1056C000655DD5B15425655DDDB17025655DE5B1DC
:1056D0008C25655DEDB1A825655DF5B1C425655DD9
:1056E000FDB1E025655D05B3FC25655D0DB30020CA
:1056F000F0BD25461C3501261EE02546383502261C
:105700001AE025465435032616E025467035042652
:1057100012E025468C3505260EE02546A8350626DE
:105720000AE02546C435072606E02546E03508266A
:1057300002E02546FC3509261C277743E419A468B6
:10574000641C514380273F1B8F420FD31C2373439C
:10575000564FFB1800270919491E5C609960DA60F2
:105760001A615F619F6101232B7006601846F0BDCE
:10577000F0B583B0034600200A2B2ED81C245C43CE
:105780004A4B1D5D4DB31F193B69934225D33D46DE
:105790001835BAB17E680097F86802902C6800232B
:1057A000019307E02C60A3190F784148C754491CA6
:1057B000521E05D0641C02988442F3D3019CF1E789
:1057C000009F02E0F86802902C6879691037091B85
:1057D00001D8029809183960012003B0F0BDC04615
:1057E0000A2801D9002070471C2141432F48401846
:1057F000C1680069081A7047FC222C4800218154B6
:10580000E0228154C4228154A82281548C228154E4
:1058100070228154542281543822815401770170BE
:105820007047C046F0B581B0034600200A2B24D84B
:105830001C245C431D4B1D5DFDB11B19DC681D69FB
:10584000651B954219D37AB158685D696D1CA542F4
:1058500000D300251C460C345D612D18144E755D77
:105860000D70012A0BD124681846103059699A69C5
:10587000891A00D809190160012001B0F0BD1E4647
:105880001436521E491C0025009508E037603D186B
:10589000074F7D5D0D70521E491C002AE3D025681C
:1058A00037687F1CAF42F1D3009FEFE7FC03002075
:1058B000180500203D4908607047C046024801684D
:1058C00080220A430260704710200240B0B50146B2
:1058D000364A374C052023461568ED0702D05B1C7D
:1058E000FAD3B0BD1068C00613D410684008022374
:1058F0001840F6D1506818435060916050684021BC
:105900000143516005201168C90704D0641CFAD313
:1059100009E00420B0BD1068C00603D41068400838
:10592000184000E00420516899435160B0BDC04662
:105930000448C168090603D50349016003490160B1
:105940007047C0460420024023016745AB89EFCD74
:1059500070B50246154B164C052025461E68F60705
:1059600002D06D1CFAD370BD1868C00610D4186838
:10597000400802263040F6D1586801252843586077
:10598000116005201968C90704D0641CFAD309E026
:10599000042070BD1868C00603D418684008304061
:1059A00000E004205968A943596070BD0C200240F2
:1059B0000000F1FF70B50446064D074E28463146FB
:1059C00000F0CDFE0028F9D0E1B2284600F098FEA4
:1059D000204670BD003801400707000070B5174B26
:1059E0000E4A1A600E4D01242A46DE68264012B186
:1059F000521C002EF9D1002276B959600221DE68CE
:105A00000E4015B16D1C002EF9D12EB90549084084
:105A10009860074818602246104670BD5555000032
:105A20000200F0FFFF0F00000448014901607047C9
:105A3000AAAA0000014802490160704700300040F6
:105A4000CCCC0000F0B588B00F23DD43036AD40747
:105A500001D02B400B430395F024E6430F0194073C
:105A60000297054601D533403B432F4F08025407A8
:105A7000069001D53B4003432C4F080314070795BC
:105A800001D53B4003430F04D4060196009702D58D
:105A9000274C23403B43274E0F05940601D5334046
:105AA0003B43254D0E065406049601D52B40334347
:105AB0000597224D0F07140601D52B40DB19079DD2
:105AC0006C6A2B62D30502D5039B1C400C43069BDA
:105AD000154D910503D501990C4002990C43134EC5
:105AE000510501D52C401C43124B144D110501D515
:105AF00034400443D10403D50D48044000980443C6
:105B00000598910401D51C40044304980A4B5104A4
:105B100001D51C400443110401D52C40E419079819
:105B2000446208B0F0BDC046FFF0FFFFFF0FFFFF6B
:105B3000FFFFF0FFFFFF0FFFFFFFFFF0FFFFFF0F73
:105B4000816270478161704700690840411E884149
:105B50007047F0B582B0019305680090C0680026D8
:105B6000374603E0B61C7F1C102F0ED0019BFB4074
:105B7000DB07F7D01346B3400324B440A0431843D7
:105B80000B46B340A5431D43ECE700990D60C86088
:105B900002B0F0BDF0B581B0012902D141681943CE
:105BA00001E041689943416000908168002403202E
:105BB000264603E0A41C761C102E0AD01F46F74090
:105BC000FF07F7D01746A7400546A540A94339432C
:105BD000F0E70098816001B0F0BD41617047FFF7C8
:105BE00023BF0000B0B540F6001440F6001000F0EE
:105BF0002BFA0A4D40F6001000F030FA290402D0CA
:105C00006D1E0028F6D0C43404212046FFF7E6FEBE
:105C1000B0BC01BC8646FFF70DBFC046FFFF0000C9
:105C200010B501460020074A13785A2B08D1128874
:105C3000054B1B88054C24888C804B800A8010BD46
:105C4000C04310BD00F0000802F0000804F0000896
:105C50005548407A78B10F480188491C018089B2C3
:105C60000D4A91420BD3002101800C48027801219A
:105C70005140017005E00A480421FFF761BF074861
:105C80000178074811B10421FFF75CBF0421FFF739
:105C900057BFC0469A050020E90300009805002080
:105CA000000400480124E00643F6004100F024F916
:105CB00000F0B0FBFFF796FFFFF79EFDE1204002EA
:105CC000FFF74AFA42F28050FFF704FB00F078F841
:105CD00034480027076047608760C76007614761F5
:105CE0008761314D681C0A21FEF721F82C70FFF7FF
:105CF00091FB2E4D152628463146FFF73FFB2846DF
:105D00003146FFF7CDFA2A4DAF806F802F802846AD
:105D1000FFF786FF60B92888C10531D4810537D4E3
:105D2000400505D50420285664214143214881605F
:105D3000214D7C212846FDF7FAFF2F202C542F8679
:105D4000FEF7D8FE40F2E830FFF796FBFEF70CFFB7
:105D500040F2E830FFF790FB184D142628463146F4
:105D6000FFF70CFB28463146FFF79AFAFFF737FF9B
:105D7000FEF704F9FEF79CFD2046FFF77DFBF5E7F3
:105D80000221695664224A430A490A608105C7D53F
:105D90000321695664224A4306494A604005C1D43A
:105DA000C6E7C04628020020CC0300205AB00008F5
:105DB000F0030020C00200204402002072B000085E
:105DC000B0B584B00D20022100F062F8114800F057
:105DD000B5F9114C204600F049FB694600200873D4
:105DE00064220292019047200090204600F07EFB42
:105DF00001252046294600F0E3FB204600F030FB59
:105E0000204600F06DFB2046294600F0C7FB04B099
:105E1000B0BDC0460B060000002C014070B50D4619
:105E200004461A480880FFF783FD3C263046FFF7FA
:105E300041FD2046FFF74AFD3046FFF73BFD29684C
:105E40002046FFF785FD6968201DFFF781FDA968E1
:105E500020460830FFF77CFDE96820460C30FFF74C
:105E600077FD296920461030FFF772FD69692046E9
:105E70001430FFF76DFDA96918342046FFF768FD5F
:105E800070BC01BC8646FFF719BDC04641970000B3
:105E900070B540B2002817D4032302469A43144B2E
:105EA000D4588507ED0EFF26AE40B4438901C9B230
:105EB000A9402143D1501F21014001228A404009BD
:105EC00080000C49425070BD8207D20EFF249440DE
:105ED0000F230340083B0320834304481D58A54378
:105EE0008901C9B291402943195070BD1CED00E0F1
:105EF00000E400E000E100E0024A0A4002430248F8
:105F00000260704780FFFF1F08ED00E0F0B501461A
:105F1000424B18680007820F414C022A03D0012A25
:105F20001BD1404C19E01A689202120F0F2A01D0BF
:105F3000941C00E010241D682D0101D51132144677
:105F40001A68D20307D59A6A0F2515406A1C354D89
:105F5000B5FBF2F200E0344A54431D6818681A6831
:105F600005291DD82D062D0F30A77F5D2546FD4044
:105F70009204520F314FBB5C2A46DA408B0001A6D7
:105F8000F3189F4600F00AB800F00DB800F00DB805
:105F900000F02BB800F00FB800F016B8224624E04D
:105FA00000221046F0BD2846F0BD4005400F385C89
:105FB000C5402846F0BD1949C86AC00517D4C86A4B
:105FC000C0031ED51F48F0BD144BD86A8007144883
:105FD0000BD0DA6A03210A40012A224605D0DC6A86
:105FE0000C4048F20002022C12D11046F0BD0868A5
:105FF0000004800FC96A002905D4B2FBF0F21046F4
:10600000F0BD0F48F0BD401CB5FBF0F21046F0BDEE
:10601000DA6A0A40032A00D00020F0BD04100240D2
:1060200000127A000024F40000093D000000000086
:1060300000000000010203040607080952B000082E
:10604000809FD500003FAB011F21014001228A4003
:1060500080094949435813434350704710B50146DE
:106060000020324A914213DC51B3102934D0182950
:106070005BD12F4A4048012149060368541E9442CF
:1060800002D20B402246F8D000688001C00F10BD3C
:1060900040F6000291422DD040F60012914237D0D6
:1060A00040F60052914240D1214A33480221436BCD
:1060B000541E944202D20B402246F8D0406B24E09A
:1060C0001C4A2D4802210368541E944202D20B4000
:1060D0002246F8D0006818E02748012149040368E7
:1060E000541E944202D20B402246F8D0006880032E
:1060F000C00F10BD104A20480221036A541E94426A
:1061000002D20B402246F8D0006A8007C00F10BDB3
:10611000074A19480221436A541E944202D20B4096
:106120002246F8D0406A8007C00F10BDFF0700006C
:10613000FEFF0F00FF040000FEFFFF031F210140D0
:1061400001228A4080090C49435813434350704749
:106150001F21014001228A40800907494358934387
:10616000435070471F21014001228A4080090249A3
:10617000435813434350704700100240F0B585B0B8
:1061800004910446FFF72BFD002C00D182E0424F22
:10619000012538462946FFF7D5FC40480395857010
:1061A000042138460191FFF7CBFC3D48844200D3DF
:1061B0000446029400273C4E3C4C642000903D462F
:1061C00005E000270120FFF757F92546374CFFF778
:1061D00006FD307E717E0143B07E084301D02C461F
:1061E0003BE0A8B201018A1CA25E642A00DC009A8E
:1061F0007284615E049A126851182A4B994200DB3E
:1062000019463160C000F268914201D0039931769D
:10621000400006210143615E642900DC6421B184F1
:1062200001990843205E049949680818984200DBE8
:10623000184670603169884201D00398707640F248
:10624000F410F0840024B460706908B10398B0764B
:10625000681C81B2032900D804467F1CB8B21449D7
:106260008842AFD3FEF7C4FA0746FEF7C1FA029997
:10627000884209D8CD1B40F2E830B5FBF0F10DA003
:1062800000F0B2FA002D9CD105B0F0BC01BC8646EE
:10629000FEF76ABC05B0F0BD00040048CC03002046
:1062A0000074B701307500004402002002A7000806
:1062B000E90300006F6C642072756E696E672C20B4
:1062C00072656D61696E696E6720256420730D0AC1
:1062D00000000000F0B583B00024002844D081887D
:1062E0000291018801914788FFF722FB3425284657
:1062F000FFF7E0FA1E4E3046FFF7E8FA2846FFF7B0
:10630000D9FA380401994718FFF7D8FAFFF710FBBC
:1063100030463946FFF71CFB2846FFF7CBFA301D05
:106320000299FFF715FB2846FFF7C4FA30460830FC
:106330002146FFF70DFB2846FFF7BCFA30460C302C
:106340002146FFF705FB2846FFF7B4FA1036304622
:106350002146FFF7FDFA2846FFF7ACFAFFF7AEFA41
:10636000C820FFF789F800E0E443204603B0F0BD01
:1063700000F00008B0B568B121480221FFF7E0FB4A
:106380003220204900220A541F48012101711F4870
:106390000270B0BD0920C406204640F60001FFF798
:1063A000D3FB10B91A4801210170204640F60001C4
:1063B000FFF7CAFBB8B116480178012913D10024B0
:1063C00004701248017879B104700D480221FFF77A
:1063D000B7FB0D480178032905D13221094ADD2395
:1063E000535401210171B0BD0125057004480221FB
:1063F000FFF7A8FB322003490C5403480571B0BDD8
:106400000004004844020020CC0300201E060020A7
:106410001F06002010B50E48006840F2E831B0FBBE
:10642000F1F0411E080E00D0FEE70A480A4A51600A
:106430000A490B6803400324A4071B190B600023BF
:106440009360072313600A6802400A6010BDC046CB
:1064500008000020FFFFFF0010E000E020ED00E05A
:10646000016880220A4302607047000010B5184C92
:10647000184988420ADD1849884212DC3F4988429F
:106480001DD04149884218D1641D18E03C4988421A
:106490000FD01249884211D03E4988420DD1FD34B7
:1064A0000DE03B49884206D03849884205D1E41DB9
:1064B00005E0F63403E0A41D01E010BDF9342046E8
:1064C000FFF750FE204610BC02BC8E46FFF740BED0
:1064D0000B030000FF2B0140FF4301400010004070
:1064E000016801220A4302607047000010B50A8863
:1064F0008262224A904202D0214B98420BD103681B
:106500007024A34303604B8804681C4304608B8899
:1065100004681C4304608B68C3621A4B984208DC11
:10652000174B98420ED01B4B98420BD0904209D08B
:106530001EE0154A904205D0144A904202D0144AF7
:10654000904215D1026840F200339A430260CA8833
:10655000036813430360104A82180A23DA41072AAA
:1065600006D801239340E122134201D0097B016345
:10657000416901220A43426110BDC046002C01401E
:1065800000040040FF3F014000400140004801403E
:10659000004401400020004000D4FEBFC2680A430E
:1065A000C260704702698A4302617047C2680A404C
:1065B000531E9A4100690840411E884110407047AF
:1065C000491E4A424A41D103426C48F200039A43B1
:1065D0005118416470470000B0B5422806D12948DF
:1065E00042210170264801210170B0BD24490A787A
:1065F000092A0DD8234B9854501C08700A2806D13C
:10660000214800681F490A22FDF79CFB18B1B0BD64
:1066100000200870B0BD1D4D28780028FCD1022054
:10662000FEF72AFF28780028FCD101242C70204690
:10663000FEF72AFF16492046FEF7C0FF0A21204632
:10664000FEF7D0FF2046FEF727FF3B48802100F0F1
:1066500079F8104DEC7610482946FFF7DFFB0F481C
:106660002946FFF7DBFB3220FEF706FFBFF34F8F13
:106670000B480C490160BFF34F8F00BFFDE7C046D8
:1066800020060020E403002004000020E003002096
:10669000786900082802002000F4000800F80008CB
:1066A0000CED00E00400FA05B0B50D4604462248A2
:1066B000844204D02148844205D1022000E0052014
:1066C000FFF724FC00E000202168090406D46908D3
:1066D0004018B0FBF5F080B2E060B0BD6908400042
:1066E0004018B0FBF5F0034901400007400F401887
:1066F000E060B0BDF0FF0000416A03480840704709
:10670000014A0A4082627047FF01000010B50A4941
:10671000884204D0094988420BD1094C00E0054C5D
:106720002046FFF71FFD204610BC02BC8E46FFF737
:106730000FBD10BD0E0300000038014000440040B2
:1067400011040000826880239A43826082680A43B1
:1067500082607047016801220A43026070471F226D
:106760000A4089090958D1400120084070471F227A
:106770000A400123934089090A581A430A50704776
:10678000084A914206D1D021425848F200039A4368
:1067900042507047C902C90E01228A40016A114362
:1067A0000162704709340F341F220A400B049B0D0D
:1067B0001B58D3408A0D1258C802C00EC2401A405E
:1067C000012010407047026804239A430260026867
:1067D0000A4302607047026808239A430260026815
:1067E0000A430260704700000FB410B503A9044BC0
:1067F000044A029800F018F810BC08BC04B018470E
:10680000B55900080000002002E008C8121F08C1A6
:10681000002AFAD170477047002001E001C1121F21
:10682000002AFBD170470000FFB58DB0044600255B
:1068300006E025280AD0109A0F999047641C6D1C19
:1068400020780028F5D1284611B0F0BD002701219D
:10685000484A009700E00743641C23780846203B21
:1068600098401042F7D120782E2817D104200743F2
:106870006078641C2A280CD10E98641C02C8009110
:106880000E900BE000990A22514330394018641CE5
:1068900000902078014630390929F3D92078002862
:1068A000D1D0642808D0692806D075281ED0109A47
:1068B0000F9990476D1C5BE00A200E99019001C969
:1068C0000E91002802DA40422D2102E0390504D55C
:1068D0002B216A461172012103E0F90704D020211F
:1068E000F7E70BAE0B910DE00021FAE70A200E99B5
:1068F000019001C90E91F7E70199FDF71FFB3031B7
:10690000761E31700028F7D103A8801B203001903B
:10691000780701D5009801E0012000900199884294
:1069200001DD401A00E000200027009006E002A8E8
:10693000109AC05D0F9990476D1C7F1C0B98874281
:10694000F5DB04E0109A30200F9990476D1C0099F8
:10695000481E00900029F5DC05E03078109A761C7E
:106960000F9990476D1C0199481E01900029F4DC95
:10697000641C65E70928010024434F4D4D5F4F4BD0
:106980002A0010272C0104292C010000F40100002A
:10699000640010272C0104292C01DC05F4010000FF
:1069A00000001027C8000429C8000000F4010000FE
:1069B0004600D859C8000429C8000000F4010000AE
:1069C00046009065C800D430C8000000F401000003
:1069D0004600401FC800D430C8000000F401000089
:1069E00046007017C800A438C8000000F401000079
:1069F000460088132C014448C8000000F401000040
:106A00004600CC5BC8004448C8000000F401000008
:106A10004600CC5BC800F055C8000000F40100003F
:106A200046008813C800F055FA000000F401000089
:106A30004600581BC800A861FA000000F4010000DD
:106A400046001027C800A861C8000000F40100003B
:106A500046001027C8007472C8000000F40100004E
:106A60004600BC34C8006C6BFA000000F401000062
:106A700046004448C8006C6BC8000000F4010000E8
:106A80004600F055C8007472FA000000F4010000DE
:106A90004600F055C800A861C8000000F4010000DD
:106AA00046008467C800A861C8000000F401000027
:106AB00046008467C800A438C8000000F401000044
:106AC000460084672C01A4382C01B004F4010000B6
:106AD000C80084672C01A4382C010000F4010000D8
:106AE000C80084672C01A4382C010000F4010000C8
:106AF00064000000E803D007E80300002C01000058
:106B000064000000E8030000E80300002C0100001E
:106B10006400204EF401401FF401D42F2C0100002A
:106B20006400204EF401401FF4016230F4010000C3
:106B300064008C3CF4014C1DF40162302C01000017
:106B400064008C3CF4014C1DF401F130F4010000B0
:106B50006400F82AF401401FF401F130F401000050
:106B60006400F82AF401401FF4018031F4010000B0
:106B70006400F82AF4011027F4018031F4010000C8
:106B80006400F82AF4011027F4010F32F401000028
:106B900064007017F401F82AF4010F32F4010000C8
:106BA00064007017F401F82AF4019E32F401000029
:106BB00064007C15F401C832F4019E32F401000037
:106BC00064007C15F401C832F4012C33F401000098
:106BD0006400F82AF401803EF4012C33F401000033
:106BE0006400F82AF401803EF401BB33F401000094
:106BF00064002224F401803EF401BB33F401000060
:106C000064002224F401803EF4014A34F4010000BF
:106C100064004C1DF401803EF4014A34F40100008C
:106C200064004C1DF401803EF401D934F4010000ED
:106C300064007616F4015541F401D934F4010000E2
:106C400064007616F4015541F4016835F401000042
:106C50006400A00FF4015541F4016835F40100000F
:106C60006400A00FF4015541F401F635F401000071
:106C70006400A00FF4011248F401F635F40100009D
:106C80006400A00FF4011248F4018536F4010000FD
:106C900064007616F4011248F4018536F401000010
:106CA00064007616F4011248F4011437F401000070
:106CB00064004C1DF4016F45F4011437F401000029
:106CC00064004C1DF4016F45F401A337F40100008A
:106CD00064002224F4016F45F401A337F40100009D
:106CE00064002224F4016F45F4013238F4010000FD
:106CF0006400F82AF4016F45F4013238F401000011
:106D00006400F82AF4016F45F401C038F401000072
:106D10006400F82AF4012C4CF401C038F40100009E
:106D20006400F82AF4012C4CF4014F39F4010000FE
:106D300064002224F4012C4CF4014F39F4010000CA
:106D400064002224F4012C4CF401DE39F40100002B
:106D500064004C1DF4012C4CF401DE39F4010000F8
:106D600064004C1DF4012C4CF4016D3AF401000058
:106D700064007616F401CF4EF4016D3AF401000080
:106D800064007616F401CF4EF401FC3AF4010000E1
:106D90006400A00FF401CF4EF401FC3AF4010000AE
:106DA0006400A00FF401CF4EF4018A3BF40100000F
:106DB00064008813F401CC5BF4018A3BF401000009
:106DC00064008813F401CC5BF401193CF401000069
:106DD0006400C819F4018C55F401193CF401000059
:106DE0006400C819F4018C55F401A83CF4010000BA
:106DF00064006022F4018C55F401A83CF401000009
:106E000064006022F4018C55F401373DF401000068
:106E100064001C25F401CC5BF401373DF401000053
:106E200064001C25F401CC5BF401C63DF4010000B4
:106E300064003421F4019065F401C63DF4010000C2
:106E400064003421F4019065F401543EF401000023
:106E50006400D430F401A861F401543EF401000050
:106E60006400D430F401A861F401E33EF4010000B1
:106E700064005C44F401A861F401E33EF401000005
:106E800064005C44F401A861F401723FF401000065
:106E90006400F055F4019065F401723FF4010000C4
:106EA0006400F055F4019065F4010140F401000024
:106EB00064000852F401CC5BF4010140F4010000CD
:106EC00064000852F401CC5BF4019040F40100002E
:106ED0006400B856F4018C55F4019040F4010000B0
:106EE0006400B856F4018C55F4011E41F401000011
:106EF0006400505FF4018C55F4011E41F401000060
:106F00006400505FF4018C55F401AD41F4010000C0
:106F100064009065F401CC5BF401AD41F401000024
:106F200064009065F401CC5BF4013C42F401000084
:106F300064007869F401CF4EF4013C42F401000092
:106F400064007869F401CF4EF401CB42F4010000F3
:106F50006400A262F401CF4EF401CB42F4010000C0
:106F60006400A262F401CF4EF4015A43F401000020
:106F70006400CC5BF4012C4CF4015A43F401000092
:106F80006400CC5BF4012C4CF401E843F4010000F4
:106F90006400F654F4012C4CF401E843F4010000C1
:106FA0006400F654F4012C4CF4017744F401000021
:106FB0006400204EF4012C4CF4017744F4010000ED
:106FC0006400204EF4012C4CF4010645F40100004D
:106FD0006400204EF4016F45F4010645F401000001
:106FE0006400204EF4016F45F4019545F401000062
:106FF0006400F654F4016F45F4019545F401000076
:107000006400F654F4016F45F4012446F4010000D5
:107010006400CC5BF4016F45F4012446F4010000E8
:107020006400CC5BF4016F45F401B246F40100004A
:107030006400A262F4011248F401B246F4010000B7
:107040006400A262F4011248F4014147F401000017
:1070500064007869F4011248F4014147F40100002A
:1070600064007869F4011248F401D047F40100008B
:1070700064007869F4015541F401D047F40100003F
:1070800064007869F4015541F4015F48F40100009F
:107090006400A262F4015541F4015F48F40100006C
:1070A0006400A262F4015541F401EE48F4010000CD
:1070B0006400CC5BF401803EF401EE48F401000072
:1070C0006400CC5BF401803EF4017C49F4010000D3
:1070D0006400F654F401803EF4017C49F4010000A0
:1070E0006400F654F401803EF4010B4AF401000000
:1070F0006400204EF401803EF4010B4AF4010000CC
:107100006400204EF401803EF4019A4AF40100002C
:1071100064009C63F401C832F4019A4AF40100004F
:1071200064009C63F401C832F401294BF4010000AF
:107130006400A861F401F82AF401294BF40100006D
:107140006400A861F401F82AF401B84BF4010000CE
:107150006400204EF4011027F401B84BF401000044
:107160006400204EF4011027F401464CF4010000A5
:107170006400543DF401803EF401464CF4010000EB
:107180006400543DF401803EF401D54CF40100004C
:107190006400543DF4011027F401D54CF4010000C3
:1071A0006400543DF4011027F401644DF401000023
:1071B00064000000E803D007E80300002C01000091
:1071C00064000000E8030000E80300002C01000058
:1071D0006400204EF401401FF401DC259001000002
:1071E0006400204EF401401FF4016B26F4010000FE
:1071F00064006842F401401FF4016B262C0100007A
:1072000064006842F401401FF401FA26F401000012
:107210006400B036F401401FF401FA26F4010000C6
:107220006400B036F401401FF4018827F401000027
:107230006400F82AF401401FF4018827F4010000DB
:107240006400F82AF401401FF4011728F40100003B
:107250006400EC2CF4011027F4011728F40100005D
:107260006400EC2CF4011027F401A628F4010000BE
:1072700064007017F401F82AF401A628F401000054
:1072800064007017F401F82AF4013529F4010000B4
:1072900064007C15F401C832F4013529F4010000C2
:1072A00064007C15F401C832F401C429F401000023
:1072B00064006419F401983AF401C429F40100004F
:1072C00064006419F401983AF401522AF4010000B0
:1072D0006400F82AF401A43DF401522AF4010000EC
:1072E0006400F82AF401A43DF401E12AF40100004D
:1072F00064002224F401A43DF401E12AF401000019
:1073000064002224F401A43DF401702BF401000078
:1073100064004C1DF401FC3FF401702BF4010000EB
:1073200064004C1DF401FC3FF401FF2BF40100004C
:1073300064007616F401FC3FF401FF2BF401000019
:1073400064007616F401FC3FF4018E2CF401000079
:107350006400A00FF401FC3FF4018E2CF401000046
:107360006400A00FF401FC3FF4011C2DF4010000A7
:107370006400A00FF4016045F4011C2DF40100002D
:107380006400A00FF4016045F401AB2DF40100008E
:1073900064007616F4016045F401AB2DF4010000A1
:1073A00064007616F4016045F4013A2EF401000001
:1073B00064004C1DF4016045F4013A2EF401000014
:1073C00064004C1DF4016045F401C92EF401000075
:1073D00064002224F4010843F401C92EF4010000E2
:1073E00064002224F4010843F401582FF401000042
:1073F0006400F82AF4010843F401582FF401000056
:107400006400F82AF4010843F401E62FF4010000B7
:107410006400F82AF4016C48F401E62FF40100003E
:107420006400F82AF4016C48F4017530F40100009E
:1074300064002224F4016C48F4017530F40100006A
:1074400064002224F4016C48F4010431F4010000CA
:1074500064004C1DF401C44AF4010431F40100003D
:1074600064004C1DF401C44AF4019331F40100009E
:1074700064007616F401C44AF4019331F40100006B
:1074800064007616F401C44AF4012232F4010000CB
:107490006400A00FF401C44AF4012232F401000098
:1074A0006400A00FF401C44AF401B032F4010000FA
:1074B00064008813F401CC5BF401B032F4010000E5
:1074C00064008813F401CC5BF4013F33F401000045
:1074D00064007616F4012850F4013F33F4010000F3
:1074E00064007616F4012850F401CE33F401000054
:1074F00064004C1DF4012850F401CE33F401000067
:1075000064004C1DF4012850F4015D34F4010000C6
:1075100064002224F401D04DF4015D34F401000034
:1075200064002224F401D04DF401EC34F401000095
:107530006400F82AF401D04DF401EC34F4010000A9
:107540006400F82AF401D04DF4017A35F40100000A
:1075500064002224F4013453F4017A35F40100006C
:1075600064002224F4013453F4010936F4010000CC
:1075700064004C1DF4018C55F4010936F40100003F
:1075800064004C1DF4018C55F4019836F4010000A0
:1075900064007616F4018C55F4019836F40100006D
:1075A00064007616F4018C55F4012737F4010000CD
:1075B00064001027F401CC5BF4012737F4010000CC
:1075C00064001027F401CC5BF401B637F40100002D
:1075D0006400401FF4019065F401B637F401000027
:1075E0006400401FF4019065F4014438F401000088
:1075F0006400F82AF4019065F4014438F4010000B5
:107600006400F82AF4019065F401D338F401000015
:107610006400BC34F401A861F401D338F401000023
:107620006400BC34F401A861F4016239F401000083
:1076300064005C44F401A861F4016239F4010000C3
:1076400064005C44F401A861F401F139F401000024
:1076500064001450F4019065F401F139F401000064
:1076600064001450F4019065F401803AF4010000C4
:107670006400D859F4019065F401803AF4010000E7
:107680006400D859F4019065F4010E3BF401000048
:1076900064000852F401CC5BF4010E3BF4010000DD
:1076A00064000852F401CC5BF4019D3BF40100003E
:1076B0006400F654F4013453F4019D3BF4010000DE
:1076C0006400F654F4013453F4012C3CF40100003E
:1076D0006400CC5BF4018C55F4012C3CF4010000F7
:1076E0006400CC5BF4018C55F401BB3CF401000058
:1076F0006400A262F4018C55F401BB3CF40100006B
:107700006400A262F4018C55F4014A3DF4010000CA
:1077100064009065F401CC5BF4014A3DF401000083
:1077200064009065F401CC5BF401D83DF4010000E5
:107730006400A262F4012850F401D83DF401000075
:107740006400A262F4012850F401673EF4010000D5
:107750006400CC5BF4012850F401673EF4010000A2
:107760006400CC5BF4012850F401F63EF401000003
:107770006400F654F401D04DF401F63EF40100002B
:107780006400F654F401D04DF401853FF40100008B
:107790006400204EF401D04DF401853FF401000057
:1077A0006400204EF401D04DF4011440F4010000B7
:1077B0006400204EF4016C48F4011440F401000010
:1077C0006400204EF4016C48F401A240F401000072
:1077D0006400F654F4016C48F401A240F401000086
:1077E0006400F654F4016C48F4013141F4010000E6
:1077F0006400CC5BF401C44AF4013141F40100009F
:107800006400CC5BF401C44AF401C041F4010000FF
:107810006400A262F401C44AF401C041F401000012
:107820006400A262F401C44AF4014F42F401000072
:1078300064007869F401C44AF4014F42F401000085
:1078400064007869F401C44AF401DE42F4010000E6
:1078500064007869F4016045F401DE42F40100003F
:1078600064007869F4016045F4016C43F4010000A0
:107870006400A262F4016045F4016C43F40100006D
:107880006400A262F4016045F401FB43F4010000CE
:107890006400CC5BF4016045F401FB43F40100009B
:1078A0006400CC5BF4016045F4018A44F4010000FB
:1078B0006400F654F4010843F4018A44F401000022
:1078C0006400F654F4010843F4011945F401000082
:1078D0006400204EF4010843F4011945F40100004E
:1078E0006400204EF4010843F401A845F4010000AF
:1078F0006400204EF401A43DF401A845F401000009
:107900006400204EF401A43DF4013646F401000069
:107910006400F654F401A43DF4013646F40100007D
:107920006400F654F401A43DF401C546F4010000DE
:107930006400CC5BF401FC3FF401C546F401000097
:107940006400CC5BF401FC3FF4015447F4010000F7
:107950006400A262F401FC3FF4015447F40100000A
:107960006400A262F401FC3FF401E347F40100006B
:1079700064007869F401FC3FF401E347F40100007E
:1079800064007869F401FC3FF4017248F4010000DE
:107990006400204EF4011027F4017248F401000045
:1079A0006400204EF4011027F4010049F4010000A6
:1079B0006400A861F401F82AF4010049F401000010
:1079C0006400A861F401F82AF4018F49F401000071
:1079D00064009C63F401C832F4018F49F401000093
:1079E00064009C63F401C832F4011E4AF4010000F3
:1079F0006400B45FF401983AF4011E4AF4010000F7
:107A00006400B45FF401983AF401AD4AF401000057
:107A100064006842F4017440F401AD4AF4010000CE
:107A200064006842F4017440F4013C4BF40100002E
:107A30006400A438F4017440F4013C4BF4010000EC
:107A40006400A438F4017440F401CA4BF40100004E
:107A50006400A438F401A438F401CA4BF401000016
:107A60006400A438F401A438F401594CF401000076
:107A700064006842F401A438F401594CF401000098
:107A800064006842F401A438F401E84CF4010000F9
:107A90006400543DF4011027F401E84CF4010000A7
:107AA0006400543DF4011027F401774DF401000007
:107AB00064000000E803D007E80300002C01000088
:107AC00064000000E8030000E80300002C0100004F
:107AD00064004448F4011027F401B41B2C01000099
:107AE00064004448F4011027F401431CF401000031
:107AF0006400204EF401401FF401431C2C010000DF
:107B00006400204EF401401FF401D21CF401000077
:107B100064008C3CF4014C1DF401D21CF401000003
:107B200064008C3CF4014C1DF401601DF401000064
:107B30006400F82AF401401FF401601DF401000004
:107B40006400F82AF401401FF401EF1DF401000065
:107B50006400D430F4011027F401EF1DF40100009B
:107B60006400D430F4011027F4017E1EF4010000FB
:107B700064007017F401F82AF4017E1EF40100007D
:107B800064007017F401F82AF4010D1FF4010000DD
:107B900064002E22F401F82AF4010D1FF401000004
:107BA00064002E22F401F82AF4019C1FF401000065
:107BB00064007C15F401C832F4019C1FF40100003C
:107BC00064007C15F401C832F4012A20F40100009D
:107BD00064006419F401983AF4012A20F4010000C9
:107BE00064006419F401983AF401B920F40100002A
:107BF0006400F82AF401FC3FF401B920F40100000C
:107C00006400F82AF401FC3FF4014821F40100006B
:107C100064008025F401FC3FF4014821F4010000D8
:107C200064008025F401FC3FF401D721F401000039
:107C300064000820F401FC3FF401D721F4010000A6
:107C400064000820F401FC3FF4016622F401000006
:107C50006400901AF401FC3FF4016622F401000074
:107C60006400901AF401FC3FF401F422F4010000D6
:107C700064001815F401FC3FF401F422F401000043
:107C800064001815F401FC3FF4018323F4010000A3
:107C90006400A00FF401FC3FF4018323F401000011
:107CA0006400A00FF401FC3FF4011224F401000071
:107CB0006400A00FF4016045F4011224F4010000F7
:107CC0006400A00FF4016045F401A124F401000058
:107CD00064001815F4016045F401A124F4010000CA
:107CE00064001815F4016045F4013025F40100002A
:107CF0006400901AF4016045F4013025F40100009D
:107D00006400901AF4016045F401BE25F4010000FE
:107D100064000820F4016045F401BE25F401000070
:107D200064000820F4016045F4014D26F4010000D0
:107D300064008025F4016045F4014D26F401000043
:107D400064008025F4016045F401DC26F4010000A4
:107D50006400F82AF4016045F401DC26F401000017
:107D60006400F82AF4016045F4016B27F401000077
:107D70006400F82AF401C44AF4016B27F4010000FE
:107D80006400F82AF401C44AF401FA27F40100005F
:107D900064008025F401C44AF401FA27F4010000CC
:107DA00064008025F401C44AF4018828F40100002D
:107DB00064000820F401C44AF4018828F40100009A
:107DC00064000820F401C44AF4011729F4010000FA
:107DD0006400901AF401C44AF4011729F401000068
:107DE0006400901AF401C44AF401A629F4010000C9
:107DF00064001815F401C44AF401A629F401000036
:107E000064001815F401C44AF401352AF401000095
:107E10006400A00FF401C44AF401352AF401000003
:107E20006400A00FF401C44AF401C42AF401000064
:107E30006400A00FF4012850F401C42AF4010000EA
:107E40006400A00FF4012850F401522BF40100004B
:107E500064001815F4012850F401522BF4010000BD
:107E600064001815F4012850F401E12BF40100001E
:107E70006400901AF4012850F401E12BF401000091
:107E80006400901AF4012850F401702CF4010000F1
:107E900064000820F4012850F401702CF401000063
:107EA00064000820F4012850F401FF2CF4010000C4
:107EB00064008025F4012850F401FF2CF401000037
:107EC00064008025F4012850F4018E2DF401000097
:107ED0006400F82AF4012850F4018E2DF40100000A
:107EE0006400F82AF4012850F4011C2EF40100006B
:107EF0006400F82AF4018C55F4011C2EF4010000F2
:107F00006400F82AF4018C55F401AB2EF401000052
:107F100064008025F4018C55F401AB2EF4010000BF
:107F200064008025F4018C55F4013A2FF40100001F
:107F300064000820F4018C55F4013A2FF40100008C
:107F400064000820F4018C55F401C92FF4010000ED
:107F50006400901AF4018C55F401C92FF40100005B
:107F60006400901AF4018C55F4015830F4010000BB
:107F700064001815F4018C55F4015830F401000028
:107F800064001815F4018C55F401E630F40100008A
:107F900064008813F401CC5BF401E630F4010000C6
:107FA00064008813F401CC5BF4017531F401000026
:107FB00064002823F401CC5BF4017531F401000066
:107FC00064002823F401CC5BF4010432F4010000C6
:107FD00064000429F401CC5BF4010432F4010000D4
:107FE00064000429F401CC5BF4019332F401000035
:107FF00064003421F4019065F4019332F40100002F
:1080000064003421F4019065F4012233F40100008E
:108010006400F82AF4019065F4012233F4010000B1
:108020006400F82AF4019065F401B033F401000013
:108030006400D430F401C05DF401B033F4010000F9
:108040006400D430F401C05DF4013F34F401000059
:1080500064005046F401C05DF4013F34F4010000B7
:1080600064005046F401C05DF401CE34F401000018
:108070006400204EF4019065F401CE34F401000058
:108080006400204EF4019065F4015D35F4010000B8
:108090006400D859F4019065F4015D35F4010000E5
:1080A0006400D859F4019065F401EC35F401000046
:1080B00064001A4FF401CC5BF401EC35F4010000CC
:1080C00064001A4FF401CC5BF4017A36F40100002D
:1080D0006400E457F401CC5BF4017A36F40100004B
:1080E0006400E457F401CC5BF4010937F4010000AB
:1080F00064007869F401CC5BF4010937F4010000F5
:1081000064007869F401CC5BF4019837F401000055
:1081100064000064F4018C55F4019837F401000008
:1081200064000064F4018C55F4012738F401000068
:108130006400885EF4018C55F4012738F4010000D6
:108140006400885EF4018C55F401B638F401000037
:1081500064001059F4018C55F401B638F4010000A4
:1081600064001059F4018C55F4014439F401000005
:1081700064009853F4018C55F4014439F401000073
:1081800064009853F4018C55F401D339F4010000D4
:108190006400204EF4018C55F401D339F401000041
:1081A0006400204EF4018C55F401623AF4010000A1
:1081B0006400204EF4012850F401623AF4010000FA
:1081C0006400204EF4012850F401F13AF40100005B
:1081D00064009853F4012850F401F13AF4010000CE
:1081E00064009853F4012850F401803BF40100002E
:1081F00064001059F4012850F401803BF4010000A0
:1082000064001059F4012850F4010E3CF401000000
:108210006400885EF4012850F4010E3CF401000073
:108220006400885EF4012850F4019D3CF4010000D4
:1082300064000064F4012850F4019D3CF401000046
:1082400064000064F4012850F4012C3DF4010000A6
:1082500064007869F4012850F4012C3DF401000019
:1082600064007869F4012850F401BB3DF40100007A
:1082700064007869F401C44AF401BB3DF4010000D4
:1082800064007869F401C44AF4014A3EF401000034
:1082900064000064F401C44AF4014A3EF4010000A1
:1082A00064000064F401C44AF401D83EF401000003
:1082B0006400885EF401C44AF401D83EF401000071
:1082C0006400885EF401C44AF401673FF4010000D1
:1082D00064001059F401C44AF401673FF40100003E
:1082E00064001059F401C44AF401F63FF40100009F
:1082F00064009853F401C44AF401F63FF40100000D
:1083000064009853F401C44AF4018540F40100006C
:108310006400204EF401C44AF4018540F4010000D9
:108320006400204EF401C44AF4011441F401000039
:108330006400204EF4016045F4011441F401000092
:108340006400204EF4016045F401A241F4010000F4
:1083500064009853F4016045F401A241F401000067
:1083600064009853F4016045F4013142F4010000C7
:1083700064001059F4016045F4013142F401000039
:1083800064001059F4016045F401C042F40100009A
:108390006400885EF4016045F401C042F40100000D
:1083A0006400885EF4016045F4014F43F40100006D
:1083B00064000064F4016045F4014F43F4010000DF
:1083C00064000064F4016045F401DE43F401000040
:1083D00064007869F4016045F401DE43F4010000B3
:1083E00064007869F4016045F4016C44F401000014
:1083F00064007869F401FC3FF4016C44F40100006E
:1084000064007869F401FC3FF401FB44F4010000CE
:1084100064000064F401FC3FF401FB44F40100003B
:1084200064000064F401FC3FF4018A45F40100009B
:108430006400885EF401FC3FF4018A45F401000009
:108440006400885EF401FC3FF4011946F401000069
:1084500064001059F401FC3FF4011946F4010000D6
:1084600064001059F401FC3FF401A846F401000037
:1084700064009853F401FC3FF401A846F4010000A5
:1084800064009853F401FC3FF4013647F401000006
:108490006400204EF401FC3FF4013647F401000073
:1084A0006400204EF401FC3FF401C547F4010000D4
:1084B0006400A861F401983AF401C547F401000092
:1084C0006400A861F401983AF4015448F4010000F2
:1084D00064009C63F401C832F4015448F4010000C4
:1084E00064009C63F401C832F401E348F401000025
:1084F0006400A861F401F82AF401E348F4010000E3
:108500006400A861F401F82AF4017249F401000042
:108510006400E457F401F82AF4017249F401000000
:108520006400E457F401F82AF401004AF401000061
:1085300064006842F4017440F401004AF401000050
:1085400064006842F4017440F4018F4AF4010000B1
:108550006400A438F4017440F4018F4AF40100006F
:108560006400A438F4017440F4011E4BF4010000CF
:108570006400A438F401A438F4011E4BF401000097
:108580006400A438F401A438F401AD4BF4010000F8
:1085900064006842F401A438F401AD4BF40100001A
:1085A00064006842F401A438F4013C4CF40100007A
:1085B0006400543DF4011027F4013C4CF401000028
:1085C0006400543DF4011027F401CA4CF40100008A
:1085D00064000000E803D007E80300002C0100005D
:1085E00064000000E8030000E80300002C01000024
:1085F00064008813F4012823F401023A2C010000DE
:1086000064008813F4012823F401903A2C0100003F
:108610006400F82AF4014C1DF401903AF4010000C2
:108620006400F82AF4014C1DF4011F3BF401000022
:1086300064008C3CF401C012F4011F3BF401000003
:1086400064008C3CF401C012F401AE3BF401000064
:108650006400204EF4014C1DF401AE3BF401000017
:108660006400204EF4014C1DF4013D3CF401000077
:108670006400A861F4012823F4013D3CF4010000EA
:108680006400A861F4012823F401CC3CF40100004B
:108690006400A46AF401502DF401CC3CF401000004
:1086A0006400A46AF401502DF4015A3DF401000065
:1086B00064009C63F401B036F4015A3DF4010000FB
:1086C00064009C63F401B036F401E93DF40100005C
:1086D0006400F055F401983AF401E93DF40100001A
:1086E0006400F055F401983AF401783EF40100007A
:1086F00064000852F4016842F401783EF40100007D
:1087000064000852F4016842F401073FF4010000DC
:108710006400B45FF401803EF401073FF4010000FF
:108720006400B45FF401803EF401963FF401000060
:108730006400606DF401803EF401963FF401000096
:108740006400606DF401803EF4012440F4010000F7
:1087500064006C6BF4015046F4012440F401000005
:1087600064006C6BF4015046F401B340F401000066
:108770006400C05DF4015046F401B340F401000010
:108780006400C05DF4015046F4014241F401000070
:1087900064000852F401384AF4014241F401000037
:1087A00064000852F401384AF401D141F401000098
:1087B0006400F055F4010852F401D141F4010000C5
:1087C0006400F055F4010852F4016042F401000025
:1087D0006400B45FF401204EF4016042F401000033
:1087E0006400B45FF401204EF401EE42F401000095
:1087F0006400606DF4010852F401EE42F4010000DF
:108800006400606DF4010852F4017D43F40100003E
:108810006400F055F401A861F4017D43F401000007
:108820006400F055F401A861F4010C44F401000067
:1088300064005046F401D859F4010C44F4010000DE
:1088400064005046F401D859F4019B44F40100003F
:108850006400E02EF401D859F4019B44F4010000B7
:108860006400E02EF401D859F4012A45F401000017
:108870006400401FF401A861F4012A45F4010000DE
:108880006400401FF401A861F401B845F401000040
:1088900064002823F4010852F401B845F4010000F3
:1088A00064002823F4010852F4014746F401000053
:1088B00064006419F401204EF4014746F4010000FD
:1088C00064006419F401204EF401D646F40100005E
:1088D0006400B80BF4010852F401D646F40100001C
:1088E0006400B80BF4010852F4016547F40100007C
:1088F0006400AC0DF4015046F4016547F40100003A
:108900006400AC0DF4015046F401F447F40100009A
:108910006400581BF4015046F401F447F4010000D0
:108920006400581BF4015046F4018248F401000031
:1089300064001027F401384AF4018248F401000071
:1089400064001027F401384AF4011149F4010000D1
:1089500064001027F4016842F4011149F401000099
:1089600064001027F4016842F401A049F4010000FA
:1089700064006419F401803EF401A049F401000090
:1089800064006419F401803EF4012F4AF4010000F0
:108990006400B80BF401803EF4012F4AF40100009A
:1089A0006400B80BF401803EF401BE4AF4010000FB
:1089B0006400A00FF401F82AF401BE4AF40100009B
:1089C0006400A00FF401F82AF4014C4BF4010000FC
:1089D00064007C15F401B036F4014C4BF401000046
:1089E00064007C15F401B036F401DB4BF4010000A7
:1089F00064002823F401983AF401DB4BF4010000F1
:108A000064002823F401983AF4016A4CF401000050
:108A100064008C3CF401A438F4016A4CF4010000B9
:108A200064008C3CF401A438F401F94CF40100001A
:108A300064008C3CF401401FF401F94CF401000087
:108A400064008C3CF401401FF401884DF4010000E7
:108A500064000000E803D007E80300002C010000D8
:108A600064000000E8030000E80300002C0100009F
:108A700064007C15F4014C1DF401D42F2C0100007E
:108A800064007C15F4014C1DF4016230F401000017
:108A90006400BC34F4017017F4016230F40100008A
:108AA0006400BC34F4017017F401F130F4010000EB
:108AB0006400EC2CF4019411F401F130F401000095
:108AC0006400EC2CF4019411F4018031F4010000F5
:108AD00064008C3CF401A00FF4018031F40100002B
:108AE00064008C3CF401A00FF4010F32F40100008B
:108AF00064002C4CF4019411F4010F32F4010000D5
:108B000064002C4CF4019411F4019E32F401000035
:108B100064005C44F4017017F4019E32F40100001B
:108B200064005C44F4017017F4012C33F40100007C
:108B30006400A861F4014C1DF4012C33F401000021
:108B40006400A861F4014C1DF401BB33F401000082
:108B500064009065F4011C25F401BB33F4010000AE
:108B600064009065F4011C25F4014A34F40100000E
:108B70006400A46AF401EC2CF4014A34F40100000E
:108B80006400A46AF401EC2CF401D934F40100006F
:108B900064001450F401A438F401D934F401000045
:108BA00064001450F401A438F4016835F4010000A5
:108BB0006400D859F401A438F4016835F4010000C8
:108BC0006400D859F401A438F401F635F40100002A
:108BD00064009C63F401A438F401F635F40100004C
:108BE00064009C63F401A438F4018536F4010000AC
:108BF0006400606DF401863DF4018536F4010000E7
:108C00006400606DF401863DF4011437F401000046
:108C10006400606DF4015C44F4011437F401000059
:108C20006400606DF4015C44F401A337F4010000BA
:108C300064009C63F4011A41F401A337F4010000BD
:108C400064009C63F4011A41F4013238F40100001D
:108C50006400D859F4011A41F4013238F4010000DB
:108C60006400D859F4011A41F401C038F40100003D
:108C700064001450F4011A41F401C038F4010000FA
:108C800064001450F4011A41F4014F39F40100005A
:108C900064000852F4019049F4014F39F4010000D6
:108CA00064000852F4019049F401DE39F401000037
:108CB0006400D859F4019049F401DE39F401000050
:108CC0006400D859F4019049F4016D3AF4010000B0
:108CD00064009C63F4019049F4016D3AF4010000D2
:108CE00064009C63F4019049F401FC3AF401000033
:108CF0006400606DF401FC53F401FC3AF4010000DF
:108D00006400606DF401FC53F4018A3BF40100003F
:108D100064009C63F4010852F4018A3BF4010000F2
:108D200064009C63F4010852F401193CF401000052
:108D30006400D859F401FC53F401193CF40100001B
:108D40006400D859F401FC53F401A83CF40100007C
:108D500064001450F401FC53F401A83CF401000039
:108D600064001450F401FC53F401373DF401000099
:108D70006400D859F401C05DF401373DF4010000EE
:108D80006400D859F401C05DF401C63DF40100004F
:108D90006400D859F4018467F401C63DF401000071
:108DA0006400D859F4018467F401543EF4010000D2
:108DB0006400384AF401A861F401543EF401000053
:108DC0006400384AF401A861F401E33EF4010000B4
:108DD0006400E02EF401A861F401E33EF401000018
:108DE0006400E02EF401A861F401723FF401000078
:108DF0006400401FF4018467F401723FF401000035
:108E00006400401FF4018467F4010140F401000094
:108E10006400401FF401C05DF4010140F401000052
:108E20006400401FF401C05DF4019040F4010000B3
:108E300064008813F4010852F4019040F40100002A
:108E400064008813F4010852F4011E41F40100008B
:108E500064004C1DF401FC53F4011E41F4010000B8
:108E600064004C1DF401FC53F401AD41F401000019
:108E700064001027F401E457F401AD41F40100004F
:108E800064001027F401E457F4013C42F4010000AF
:108E900064001027F4019049F4013C42F401000001
:108EA00064001027F4019049F401CB42F401000062
:108EB00064004C1DF4019049F401CB42F401000020
:108EC00064004C1DF4019049F4015A43F401000080
:108ED00064008813F4019049F4015A43F40100003E
:108EE00064008813F4019049F401E843F4010000A0
:108EF0006400C409F401FC53F401E843F4010000E8
:108F00006400C409F401FC53F4017744F401000047
:108F10006400C409F4015C44F4017744F4010000E6
:108F20006400C409F4015C44F4010645F401000046
:108F300064008813F4011A41F4010645F4010000AD
:108F400064008813F4011A41F4019545F40100000E
:108F500064004C1DF4011A41F4019545F401000030
:108F600064004C1DF4011A41F4012446F401000090
:108F700064001027F4011A41F4012446F4010000B2
:108F800064001027F4011A41F401B246F401000014
:108F900064001027F401A438F401B246F401000083
:108FA00064001027F401A438F4014147F4010000E3
:108FB00064004C1DF401A438F4014147F4010000A1
:108FC00064004C1DF401A438F401D047F401000002
:108FD00064008813F401A438F401D047F4010000C0
:108FE00064008813F401A438F4015F48F401000020
:108FF0006400C409F401863DF4015F48F4010000F7
:109000006400C409F401863DF401EE48F401000057
:1090100064009411F4011C25F401EE48F4010000F1
:1090200064009411F4011C25F4017C49F401000052
:109030006400A00FF401EC2CF4017C49F401000061
:109040006400A00FF401EC2CF4010B4AF4010000C1
:109050006400A438F401BC34F4010B4AF4010000AC
:109060006400A438F401BC34F4019A4AF40100000D
:1090700064007440F401BC34F4019A4AF401000025
:1090800064007440F401BC34F401294BF401000085
:1090900064008C3CF401983AF401294BF40100007F
:1090A00064008C3CF401983AF401B84BF4010000E0
:1090B00064000429F4014C1DF401B84BF4010000D4
:1090C00064000429F4014C1DF401464CF401000035
:1090D00064008C3CF401401FF401464CF401000094
:1090E00064008C3CF401401FF401D54CF4010000F5
:1090F0006400FC53F4014C1DF401D54CF401000054
:109100006400FC53F4014C1DF401644DF4010000B3
:1091100064000000E803D007E80300002C01000011
:1091200064000000E8030000E80300002C010000D8
:109130006400F82AF4019411F401DC259001000088
:109140006400F82AF4019411F4016B26F401000084
:1091500064008C3CF401A00FF4016B26F4010000C4
:1091600064008C3CF401A00FF401FA26F401000025
:109170006400204EF4019411F401FA26F401000079
:109180006400204EF4019411F4018827F4010000DA
:109190006400C233F4017017F4018827F401000061
:1091A0006400C233F4017017F4011728F4010000C1
:1091B00064005645F4017017F4011728F40100000B
:1091C00064005645F4017017F401A628F40100006C
:1091D00064005046F4013421F401A628F401000093
:1091E00064005046F4013421F4013529F4010000F3
:1091F0006400F055F401401FF4013529F40100002A
:109200006400F055F401401FF401C429F40100008A
:109210006400A861F4014C1DF401C429F4010000AC
:109220006400A861F4014C1DF401522AF40100000D
:1092300064009C63F4011C25F401522AF40100002F
:1092400064009C63F4011C25F401E12AF401000090
:109250006400A46AF401EC2CF401E12AF40100009A
:109260006400A46AF401EC2CF401702BF4010000FA
:109270006400A861F401D430F401702BF401000003
:109280006400A861F401D430F401FF2BF401000064
:1092900064001450F401A438F401FF2BF401000021
:1092A00064001450F401A438F4018E2CF401000081
:1092B0006400E457F401A438F4018E2CF40100009A
:1092C0006400E457F401A438F4011C2DF4010000FB
:1092D0006400B45FF401A438F4011C2DF401000013
:1092E0006400B45FF401A438F401AB2DF401000074
:1092F00064008467F401A438F401AB2DF40100008C
:1093000064008467F401A438F4013A2EF4010000EB
:109310006400286EF401983AF4013A2EF40100003A
:109320006400286EF401983AF401C92EF40100009B
:1093300064007869F4016E41F401C92EF401000063
:1093400064007869F4016E41F401582FF4010000C3
:1093500064001F63F4011A41F401582FF401000066
:1093600064001F63F4011A41F401E62FF4010000C8
:109370006400C65CF4011A41F401E62FF401000018
:109380006400C65CF4011A41F4017530F401000078
:1093900064006D56F4011A41F4017530F4010000C7
:1093A00064006D56F4011A41F4010431F401000027
:1093B00064001450F4011A41F4010431F401000076
:1093C00064001450F4011A41F4019331F4010000D7
:1093D00064006243F4017C47F4019331F40100001E
:1093E00064006243F4017C47F4012232F40100007E
:1093F00064001450F4019049F4012232F401000099
:1094000064001450F4019049F401B032F4010000FA
:1094100064006757F4019049F401B032F401000090
:1094200064006757F4019049F4013F33F4010000F0
:109430006400BA5EF4019049F4013F33F401000086
:109440006400BA5EF4019049F401CE33F4010000E7
:1094500064000D66F4019049F401CE33F40100007C
:1094600064000D66F4019049F4015D34F4010000DC
:109470006400606DF401FC53F4015D34F4010000FC
:109480006400606DF401FC53F401EC34F40100005D
:1094900064001365F4010852F401EC34F401000097
:1094A00064001365F4010852F4017A35F4010000F8
:1094B0006400C05DF4010852F4017A35F401000043
:1094C0006400C05DF4010852F4010936F4010000A3
:1094D0006400F055F4010852F4010936F40100006B
:1094E0006400F055F4010852F4019836F4010000CC
:1094F0006400D859F401E457F4019836F4010000EF
:109500006400D859F401E457F4012737F40100004E
:109510006400204EF401E457F4012737F401000001
:109520006400204EF401E457F401B637F401000062
:109530006400FC53F401BA5EF401B637F401000094
:109540006400FC53F401BA5EF4014438F4010000F5
:109550006400D859F4018467F4014438F401000030
:109560006400D859F4018467F401D338F401000091
:109570006400384AF4019065F401D338F401000026
:109580006400384AF4019065F4016239F401000086
:1095900064006842F401EA56F4016239F401000003
:1095A00064006842F401EA56F401F139F401000064
:1095B0006400B036F401EA56F401F139F401000018
:1095C0006400B036F401EA56F401803AF401000078
:1095D0006400E02EF4019065F401803AF40100008B
:1095E0006400E02EF4019065F4010E3BF4010000EC
:1095F0006400401FF4018467F4010E3BF401000095
:109600006400401FF4018467F4019D3BF4010000F5
:1096100064001027F401BA5EF4019D3BF4010000E0
:1096200064001027F401BA5EF4012C3CF401000040
:109630006400182EF401E457F4012C3CF4010000FE
:109640006400182EF401E457F401BB3CF40100005F
:109650006400401FF401E457F401BB3CF401000036
:109660006400401FF401E457F4014A3DF401000096
:1096700064006810F4010852F4014A3DF40100004E
:1096800064006810F4010852F401D83DF4010000B0
:109690006400C21AF4010852F401D83DF40100003C
:1096A0006400C21AF4010852F401673EF40100009C
:1096B00064001C25F4010852F401673EF401000027
:1096C00064001C25F4010852F401F63EF401000088
:1096D00064001027F4019049F401F63EF401000003
