:020000040800F2
:1000000068140020E10000084508000841080008C5
:1000100000000000000000000000000000000000E0
:100020000000000000000000000000004908000877
:10003000000000000000000047080008A1080008B8
:10004000F3000008F3000008F3000008F3000008C4
:10005000F3000008F3000008F3000008F3000008B4
:1000600000000000F3000008F3000008F30000089F
:10007000F3000008F3000008F3000008000000008F
:10008000F3000008F300000800000000F30000087F
:10009000F3000008F3000008F3000008F300000874
:1000A000F3000008F3000008F300000855090008F9
:1000B000F300000800000000000000000000000045
:1000C000F300000800000000F30000080348854624
:1000D00000F0DCFA00480047A1190008681400206D
:1000E0000448804704480047FEE7FEE7FEE7FEE7D6
:1000F000FEE7FEE7A9080008CD00000803460B4311
:100100009B0703D009E008C9121F08C0042AFAD2CD
:1001100003E00B780370401C491C521EF9D2704753
:10012000D2B201E00270401C491EFBD2704700228F
:10013000F6E710B513460A4604461946FFF7F0FFE6
:10014000204610BD30B505462A460B4610781C786F
:10015000521C5B1C002801D0A042F7D0002C03D019
:10016000002802D06D1CEFE7284630BD421C017804
:10017000401C0029FBD1801A7047F7B582B00F46AA
:100180000026029C02F074FC009000680190257823
:10019000641C002D05D000F05BF80068405DC007CE
:1001A000F5D12B2D02D02D2D1CD0641E00980021DE
:1001B000016039462046049A00F04EF80146002FAF
:1001C00004D03868A04201D10298386000980068D5
:1001D00002280BD00098019A0260700506D54842AB
:1001E00005B0F0BD012080020643DFE70846F7E7CF
:1001F000F0B51FB40646002082B0054640240191A8
:1002000000901BE0019922460F46304600F07FFA2D
:10021000049A059B801A994110D31046194622462C
:1002200000F065FA361A8F4101972246012000211D
:10023000009F00F05CFA38184D4100902046641E83
:100240000028DFDC019B00982946324607B0F0BD4C
:100250000048704788340008F7B582B0029C002738
:100260002078641C15460197302802D0002D15D047
:1002700015E020780127641C782804D0582802D083
:10028000002D09D00BE0002D01D0102D07D1002743
:1002900010252078641C02E0082500E00A250026CD
:1002A000009610E00099012769430818020C2946BE
:1002B00080B2714300908E183804864201D3012029
:1002C00001902078641C294600F045FA0028E9DAFC
:1002D0000398002805D0002F01D0641E00E0029C86
:1002E00004600198002806D002F0C2FB02210160E0
:1002F000C81E05B0F0BD009930040843F9E70000BE
:10030000F0B507460846584087B0C00F0490480033
:100310000E46590040084908BC1A884105D23846A3
:1003200031461E4617460B46024658004008104309
:100330004CD0300D039040055900400D490D0590FB
:10034000401A0290402872DA18030121000B0905B7
:100350000843019004980092002805D00199524268
:100360000020884100920190029840210A1A0199C8
:10037000009800F0BCF905460C466B4607CB00F030
:10038000D7F9C0197141039A0E0D0023D7175640B3
:100390001A467A40164344D0049A002A2DD0029A75
:1003A000012A039A15DC1205C01A9141012636056F
:1003B000001C7141D20F059ED20700930192029654
:1003C0002A46234600F0E3F907B0F0BD384631462F
:1003D000FAE71605224A0F46B218C01AB7410121A2
:1003E0000905001C4F4100187F411146181879413A
:1003F000E20F10436D19644113E0E2076D081543E5
:100400006408C2071443039A01261205C01A9141D9
:100410003605001C7141CE07400830434908C0181A
:1004200051412A46234600F0A5F9CDE7FFE704989D
:1004300001224000C117121A00238B410498314653
:10044000C417381AA141EEE730B40124E407634031
:1004500030BC55E730B40124E407614030BC4FE7BD
:100460000000E0FFF0B51FB488B00B990998002494
:1004700048400999C00F490049080991C0070B99E4
:100480000090490049080B9109990898A64608432D
:100490001CD00B990A98084318D0099801244000F1
:1004A000420D4800410D099824050003000B20432C
:1004B00009900B980003000B20430B9050181C4927
:1004C0004018002201901446104605E00020014625
:1004D0000DB0F0BD032801DA034600E003239C467B
:1004E000C11A0AAE0AE05F0008ADED5B4F00F75B92
:1004F0007D430027AA187C41491C5B1E6145F2DD43
:10050000410004AB5A522104120C0A43240C401C33
:100510000828DFDB01980290009970460191009055
:10052000059B049A0799069800F031F9D0E700007E
:100530000DFCFFFFF0B50C465C4085B0E40FE4070E
:1005400003944C000026640859009446490802466A
:100550000296224321D062460A431ED06200570D04
:100560004A000E032303550D012402462C4924059D
:10057000781B1B0B360B4018234326436146009023
:100580001C46501AB44103D30098401C009002E06E
:10059000921800985B41002803DA0020014605B05C
:1005A000F0BD0020012109050746864611E064469A
:1005B0001D46141BB54106D36546521BB341744614
:1005C00007430C43A646CD07400849082843921824
:1005D0005B4105460D43EAD11046184313D06046EF
:1005E000194650407140084306D06046101AB34186
:1005F00006D20122002306E000220123DB0702E0ED
:100600000122D2435310009874460105381C614101
:10061000029C039D0019694100F0ACF8BFE700009F
:10062000FD0300004A0009030123090B1B051943C0
:100630000A4B10B5520D9A4202DA0020014610BD55
:10064000064B34339A4203DC9A1A00F060F810BD6E
:10065000034BD21800F04BF810BD0000FF03000060
:10066000CDFBFFFF10B5002904DB0124E407404265
:100670008C412146002B04DB1C460123DB07524240
:10068000A341994200D1904210BD0000064C0125C3
:10069000064E05E0E36807CC2B430C3C984710342A
:1006A000B442F7D3FFF716FDCC360008EC3600084D
:1006B00070B50446002903D000202022012310E059
:1006C000002801D00020C043C046C0460DE02546AA
:1006D000D5408D4205D30D469540641B1D4695407F
:1006E00040191546521E002DF1DC214670BD10B593
:1006F000202A04DB0146203A9140002010BD9140A1
:1007000020239C1A0346E3401943904010BD10B5C6
:10071000202A04DB0846203AD040002110BD0B46B9
:10072000D340D0402024A21A91400843194610BD5E
:1007300010B5202A06DBCB170846203A1041C11716
:100740000B4306E00B461341D0402024A21A9140EF
:100750000843194610BD3A2800D2303820230246FB
:100760009A43412A01D310463738884201D30020EA
:10077000C043704710B5002B08DA0024401C6141CB
:1007800092185B411A4301D14008400010BDF0B5FA
:100790001FB482B005460C0003D0084602F050F9A1
:1007A00002E002F04DF92030024600902146284632
:1007B000FFF79DFF049B059A04460F46184311431B
:1007C000084314D0184610431BD0009840210A1A41
:1007D00018460599FFF79BFF05460E46009A0599B6
:1007E0000498FFF784FF084305D0012004E0204669
:1007F000394607B0F0BD0020C11705430E432C4316
:10080000374300990E986305401A7905E40A0022DF
:100810000C43FD0A0A3002D500200146E9E7010534
:10082000101969410C9C0D9D00196941FFF7A2FF49
:10083000DFE70000014800687047C0463000002034
:10084000FFE7FEE7704770477047000080B584B04F
:1008500002900298401E000E002803D0FFE70120FE
:10086000039013E00298401E0A4908600020C1432B
:10087000032201900846114600F08AF806480199C3
:1008800001600648072202600391FFE7039804B065
:1008900080BDC04614E000E018E000E010E000E099
:1008A00080B500F0A1FA80BD80B582B02048016813
:1008B000012211430160FFE71D48006880070028FE
:1008C00001D4FFE7F8E71B4801681B4A11400160AB
:1008D00001681A4A1140016015480168184A114020
:1008E0000160184801680F229143016016480168B1
:1008F00040F20312914301600168012213049943FD
:1009000001600168D3079943016010480168914371
:1009100001600F48002101600192009101F016FC76
:100920000198C006009901F071F802B080BDC04680
:1009300000100240041002400C00FF08FFFFC277C5
:10094000FFFFF2FE2C100240301002403410024033
:100950000810024080B501F0F5FC80BD81B0014671
:100960006A461070107840B200280DD4FFE7684640
:10097000007840B21F2102460A40012191404009FF
:100980008000024A8150FFE701B0704700E100E0BB
:1009900070B582B0024601AB18700091187840B271
:1009A000002817D4FFE701A8017849B20322D243F7
:1009B0001140384BC958007840B28407E40EFF2537
:1009C000A540A943009DAD01EDB2A54029431040CB
:1009D000C1501AE001A801780F2211400839032301
:1009E000DB4319402A4C0959007840B28507ED0EC7
:1009F000FF26AE40B143009EB601F6B2AE40314391
:100A00001040083818400151FFE702B070BDC046E1
:100A100070B582B0024601AB18700091187840B2F0
:100A2000002817D4FFE701A8017849B20322D24376
:100A30001140184BC958007840B28407E40EFF25D6
:100A4000A540A943009DAD01EDB2A540294310404A
:100A5000C1501AE001A801780F2211400839032380
:100A6000DB4319400A4C0959007840B28507ED0E66
:100A7000FF26AE40B143009EB601F6B2AE40314310
:100A80001040083818400151FFE702B070BDC04661
:100A90001CED00E000E400E0BFF34F8F0348044981
:100AA0000160BFF34F8FFFE700BFFDE70CED00E0F3
:100AB0000400FA0580B584B0014602AA107001A8AE
:100AC0000122C64B009111461A4601F09DFE0028F6
:100AD00004D1FFE703A80021017009E001A8007814
:100AE00002A90978401A4142484103A90870FFE76A
:100AF00003A8007804B080BD80B588B00790069147
:100B0000079806994018401F059004A8002101800D
:100B1000079A069B5B1F9BB20390104602911946F1
:100B200001F038FE039908804878059A12789042BF
:100B30000298019009D1FFE704A800780599497847
:100B4000401A414248410190FFE7019801210840C5
:100B500008B080BD10B588B00A46034606AC2070C8
:100B600005A801800088802807DCFFE704A885210C
:100B7000018003A80121017006E004A896490180C4
:100B800003A802210170FFE79248006802900298D2
:100B900004A90988914A01F037FE002807D1FFE730
:100BA0008F480221017007A80021017031E00298EE
:100BB000007803A90978884210D1FFE702984078AD
:100BC00006A90978884209D1FFE70298807806A92A
:100BD0000978FF225140884207D0FFE7804803216F
:100BE000017007A80021017013E00298C11C04AA3B
:100BF0001388DB1E01921A46FFF780FA0299019AC8
:100C00001388009008461946FFF776FF07A9087079
:100C1000FFE707A8007808B010BDC04680B588B0CF
:100C20006C4800680690069885216C4A01F0ECFD3E
:100C3000002807D1FFE76A480221017007A80021B8
:100C4000017075E00698007801280AD1FFE7069840
:100C50004078002805D1FFE706988078FF2807D064
:100C6000FFE75F480321017007A8002101705FE0E2
:100C70000698C11C8222FFF741FA0699852203904B
:100C800008461146FFF738FF002807D1FFE7544810
:100C90000321017007A80021017049E00698C01CDB
:100CA000254900F049FD05900598401C002807D112
:100CB000FFE74B480321017007A80021017037E0CE
:100CC0001E4801680022CA618A614A610A61CA60DD
:100CD0008A604A600A600168069AD21C059B1B1D47
:100CE0000290084611461A46FFF708FA0699059A37
:100CF0005118083104AA0A230190084611461A46E1
:100D0000FFF73BFA02990A6810620868006AEE4A27
:100D100012685268904207D9FFE7EA48042101703F
:100D200007A80021017003E007A801210170FFE777
:100D300007A8007808B080BDC43600084000002035
:100D400080B586B0014604AA1080E0480068039090
:100D50000398214A214B029111461A4601F054FD95
:100D6000002807D1FFE7D7480221017005A800211C
:100D700001702AE003980078022810D1FFE7039859
:100D8000407804A90988884209D1FFE70398807850
:100D900004A90978FF225140884207D0FFE7C948DB
:100DA0000321017005A8002101700EE00398C11C09
:100DB0000C4AFFF7A3F90399074A01900846114628
:100DC000FFF79AFE05A90870FFE705A8007806B0AE
:100DD00080BDC0464800002005040000B80B00009C
:100DE00014000020020400000F480068002805D00D
:100DF000FFE70D480168491E0160FFE702480168EE
:100E0000491C01607047C0463000002081B000904E
:100E1000009805490860FFE703480068002801D0F2
:100E2000FFE7F9E701B070473400002010B581B04A
:100E300001466A4610701078142242437F481358C6
:100E40000124A343135001B010BDC04610B581B0BA
:100E500001466A46107010781422424377481358AE
:100E600001242343135001B010BDC04610B581B01A
:100E700001466A4610701078142242436F48135896
:100E80002024A343135001B010BDC04670B581B0FB
:100E900001466A461070107814231C464443674884
:100EA00025580126B543255014781D466543002476
:100EB0002C5010781D4645436E482C5010781D4626
:100EC00045434D482C501078434353481C501078EC
:100ED00080000F228240034803681343036001B07F
:100EE00070BDC04604000240B0B586B0024605ABF6
:100EF00018700491187802920193FFF797FF0498F5
:100F0000006801990A7814231C4654433A4AA050B9
:100F1000049880680A781C4654433F4AA0500498BD
:100F2000008A0A781C465443524AA05008781A4650
:100F30004243424812580392039A43F60074A24374
:100F40000392049A5468D5682C4352691443039A57
:100F500022430392039A0C7863431A500498007E4C
:100F600001280AD1FFE705A800781421414333483E
:100F70000A5840231A430A5009E005A800781421B2
:100F800041432E480A5840239A430A50FFE70498E9
:100F9000407E01280AD1FFE705A8007814214143CB
:100FA00026480A5880231A430A5009E005A8007809
:100FB0001421414321480A5880239A430A50FFE7ED
:100FC0000498807E00280AD1FFE705A80078142144
:100FD00041431A480A5810239A430A5009E005A8C9
:100FE00000781421414315480A5810231A430A5027
:100FF000FFE706B0B0BDC0461000024082B0024616
:1010000001AB187000910098197814234B430249E2
:10101000585002B07047C0461400024010B581B06D
:1010200001466A4610701078142242430348135850
:1010300044F20004A343135001B010BD0800024065
:1010400082B0024601AB187000916846008819789A
:1010500014234B430749585002B0704781B00146F2
:101060006A4610701078142242430248105801B0AA
:101070007047C0460C00024080B584B00420FFF7E2
:1010800019FD002804D1FFE703A80021017015E035
:10109000062001F0E9FB0B48002101700A480160BD
:1010A0000A48026802901046019102F04BF901983B
:1010B0000299086003AA01231370FFE703A80078D0
:1010C00004B080BD1400002064040020480000200B
:1010D00080B588B00690059105980699884204D29B
:1010E000FFE707A80021017040E00698C00E002825
:1010F00005D0FFE705981F49884204D3FFE707A8FA
:101100000021017032E005980699401A800A401CBF
:10111000049000200390019000F0A8FA342000F021
:1011200011FA02A801990180FFE702A8008804993A
:10113000884212D2FFE7069800F0F2FA0390039873
:1011400000F00EFA069940F2004289180691FFE776
:101150000298401C02A90880E7E7342000F0F2F969
:1011600000F0F8F907A801210170FFE707A800784F
:1011700008B080BD0100010882B001466A461070C7
:101180001078022804DBFFE701A80021017018E0B5
:1011900068460078800062490858002809D0FFE7B7
:1011A0006846007880005E4908580068002804D12D
:1011B000FFE701A80021017003E001A801210170EF
:1011C000FFE701A8007802B07047C04680B584B040
:1011D000014602AA107010780091FFF7CDFF002899
:1011E00003D1FFE7002003900AE002A80078800006
:1011F0004B4908580190019800F0ACF80390FFE7C4
:10120000039804B080BDC04610B586B0034604AC58
:1012100020700391029220780093FFF7ADFF002821
:1012200003D1FFE7002005900CE004A800788000BF
:101230003B490858019001980399029A00F09AF8E6
:101240000590FFE7059806B010BDC04680B586B092
:10125000024604AB187003911878012808DCFFE7F8
:1012600004A8007880002E490858002804D0FFE721
:1012700005A8002101702DE01C2002F08DF80290DD
:101280000298002804D1FFE705A80021017021E0A1
:10129000039802F081F801900198002807D1FFE738
:1012A000029802F04FF805A80021017012E00298A0
:1012B00004A90A7892001A4B9850087880001858B0
:1012C0000199039A0023009300F0B9F805A80121C1
:1012D0000170FFE705A8007806B080BD10B586B0A4
:1012E000034604AC20700391029220780093FFF72C
:1012F00043FF002803D1FFE7002005900CE004A87D
:101300000078800006490858019001980399029AD4
:1013100000F0B3F80590FFE7059806B010BDC04691
:101320003800002080B584B002900298002803D1D4
:10133000FFE7002003900AE002984168009100F066
:1013400009F80099081A019001980390FFE70398A3
:1013500004B080BD82B000900098002803D1FFE760
:101360000020019003E0009880680190FFE7019859
:1013700002B0704780B586B00490039102920020BD
:10138000019000900298002808D0FFE704980028F8
:1013900004D0FFE70398002803D1FFE70020059061
:1013A0004AE00498FFF7D6FF00900098002803D188
:1013B000FFE7002005903FE000980299884203D2A1
:1013C000FFE700980290FFE704984069002804D0E6
:1013D000FFE7049840698047FFE702980190FFE724
:1013E0000198411E019100281AD0FFE70498016975
:1013F0004A1C0261087803994A1C039208700498F9
:101400000169026840681018814204D3FFE704981C
:1014100001680161FFE704988168491E8160DFE788
:1014200004988069002804D0FFE704988069804709
:10143000FFE702980590FFE7059806B080BD10B55C
:1014400084B0069C03900291019200930198039945
:10145000486002980399086003980168C160039886
:101460000168016103980021816000980399486137
:1014700006980399886104B010BD80B586B00490C9
:10148000039102920020019000900298002808D059
:10149000FFE70498002804D0FFE70398002803D151
:1014A000FFE7002005904AE00498FFF73BFF00901B
:1014B0000098002803D1FFE7002005903FE0009846
:1014C0000299884203D2FFE700980290FFE7029852
:1014D000019004984069002804D0FFE7049840690F
:1014E0008047FFE7FFE70198411E019100281AD0CD
:1014F000FFE70398411C039100780499CA68531CC4
:10150000CB6010700498C16802684068101881426E
:1015100004D3FFE704980168C160FFE7049881687D
:10152000491C8160DFE704988069002804D0FFE748
:10153000049880698047FFE702980590FFE70598C7
:1015400006B080BD81B0009000984749086001B0A6
:101550007047C046644801688022114301607047AB
:1015600080B584B003900F20000400F027F802A992
:101570000870087800281BD1FFE75B480168022249
:101580001143016003990C4B196001684023194312
:1015900001600F21090401900846009200F00EF846
:1015A00002A9087001980168009A91430160FFE761
:1015B00002A8007804B080BD1420024080B584B039
:1015C000039002A801210170FFE700F025F802A9AD
:1015D00008700398401E0390FFE702A800780021DE
:1015E0000128019105D1FFE70398411E8841019030
:1015F000FFE70198C0070028E7D1FFE702A80078BD
:10160000012804D1FFE702A805210170FFE702A825
:10161000007804B080BD000081B0684600210170F0
:1016200011480068C007002804D0FFE76846012180
:10163000017015E00C480068C006002804D5FFE7DB
:101640006846042101700AE0074800684007002846
:1016500004D5FFE7684602210170FFE7FFE7FFE7D7
:101660006846007801B070470C2002401E480068B0
:101670000006002806D5FFE7034804490160044935
:101680000160FFE77047C046042002402301674520
:10169000AB89EFCD80B586B0059004910F20000492
:1016A000FFF78CFF03A908700878002817D1FFE71F
:1016B0000D4801680122114301600499059B1960DE
:1016C0000F210904029008460192FFF777FF03A952
:1016D000087002980168019A91430160FFE703A82E
:1016E000007806B080BDC0461020024080B582B0B0
:1016F00001900091FFE70848084900F0A9FF002881
:1017000001D1FFE7F7E701A80178034800F052FF95
:10171000019802B080BDC0460038014007070000B4
:1017200081B000900098034908400090009801B0F3
:101730007047C04600FCFFFF80B586B0049003915F
:1017400004980399FEF7FEFC02900298002804D149
:10175000FFE70020C04305900CE00498FEF706FD6B
:1017600001900298FEF702FD009001980099401A3E
:101770000590FFE7059806B080BD86B005900491FE
:1017800003920598006A01900598406A009002A8AB
:1017900000210180FFE702A8008807281ED8FFE784
:1017A00002A800880399C140C807002810D0FFE7AD
:1017B00002A8018889000F228A4001999143019172
:1017C0000499008880008140019808430190FFE758
:1017D000FFE70298401C02A90880DCE702A8082164
:1017E0000180FFE702A800880F2820D8FFE702A8A1
:1017F00000880399C140C807002812D0FFE702A85B
:101800000188890020390F228A4000999143009174
:101810000499008880002038814000980843009097
:10182000FFE7FFE70298401C02A90880DAE7019869
:101830000599086200980599486206B0704787B01C
:10184000069005910492039306980068019006980B
:10185000C068009002A800210180FFE702A800886C
:101860000F282CD8FFE702A800880399C140C807B9
:1018700000281ED0FFE702A8018849000322134672
:101880008B40019999430191059903885B00994028
:10189000019B0B430193018849008A4000999143C1
:1018A000009104990088400081400098084300900E
:1018B000FFE7FFE70298401C02A90880CEE70198E5
:1018C0000699086000980699C86007B0704710B57F
:1018D00086B00C46059004A801700392029300782C
:1018E000012806D1FFE7029805994A6802434A6039
:1018F00005E0029805994A6882434A60FFE7059827
:101900008068009001A800210180FFE701A80088FD
:101910000F281ED8FFE701A800880299C140C80718
:10192000002810D0FFE701A80188490003228A405F
:1019300000999143009103990088400081400098EC
:1019400008430090FFE7FFE70198401C01A90880C9
:10195000DCE700980599886006B010BD80B582B0BC
:101960000090009800680C4908400121490788420E
:101970000DD1FFE7009840680849086000980068AA
:101980000190019880F308880868804701E0FFF71C
:1019900083F802B080BDC0460000FE2F4400002046
:1019A00080B582B00020019000F00CFC002804D12A
:1019B000FFE70848FFF7D2FFFFE700F0CBFBE1208D
:1019C000400200F0F9FC00F047FCFFE700F0DCFB10
:1019D000FCE7C046003C000810B586B00A46034646
:1019E00005AC207004A80170217849B200780390FA
:1019F00008460399029201930094FFF709F80098B2
:101A0000017848B2FEF7AAFF06B010BD82B001907F
:101A1000009101980099034A114008430249086067
:101A200002B0704780FFFF1F08ED00E080B586B070
:101A300004900391029204980190FFF717FE34205E
:101A4000FFF780FDFFE701980499029A8918884200
:101A500018D2FFE7019803990968FFF71BFE0028D9
:101A600009D0FFE73420FFF76DFDFFF773FD05A8F0
:101A7000002101700CE00198001D01900398001DE9
:101A80000390E0E7FFF766FD05A801210170FFE77D
:101A900005A8007806B080BD9BB001461AAA107058
:101AA000002019901890179016901590149013908C
:101AB0001290119010900F900E900D900C900B9032
:101AC0000A908D4A09928D4A0892079006900592D5
:101AD0000490039202908A4800680C22104080080B
:101AE000199019980028019008D0FFE70198012863
:101AF00007D0FFE70198022806D045E084481590FA
:101B000045E08248159042E07D4801680F2292042A
:101B10001140890C0F9100680121C9060840C00ED0
:101B20000E900E98012804D1FFE70F9811300F9006
:101B30000BE00F980F2803D1FFE710200F9003E070
:101B40000F98801C0F90FFE7FFE76D4800680121A8
:101B500009040840000C0D900D9800280ED0FFE7F6
:101B6000694800680F210840401C0C900C98674998
:101B7000B1FBF0F00F994143159104E00F986149D2
:101B800041431591FFE702E061481590FFE75C488B
:101B90000168C9B209090B910B9906AA515C0A9117
:101BA00015990A9AD1401491016840F200721140CF
:101BB000090A0B910B9904AA515C0A9114990A9A8B
:101BC000D1401391006843F600010840C00A0B9011
:101BD0000B9802A9085C0A9014980A99C8401290C0
:101BE0001AA800780528009000D981E000988100AB
:101BF00001A251188F46C04600F00AB800F00BB899
:101C000000F00CB800F00DB800F00EB800F041B8CC
:101C1000159816906DE0149816906AE01398169037
:101C200067E01298169064E03A48006840F20011AC
:101C3000084088420FD0FFE73648006801210904B8
:101C40000840884203D0FFE73448119002E0324850
:101C50001190FFE71AE02A48006880B2800B1890C4
:101C60002C480068C00F17901798002807D0FFE78E
:101C700014981899491CB0FBF1F0119005E01298E6
:101C80001899B0FBF1F01190FFE7FFE7119816905B
:101C90002FE0204800688007002803D1FFE7129852
:101CA000109022E01B48006803210840012803D15E
:101CB000FFE71598109017E01648006803210840C8
:101CC000022804D1FFE748F2000010900BE0114811
:101CD000006803210840032803D1FFE70C48109057
:101CE00000E0FFE7FFE7FFE7FFE71098169000E04E
:101CF000FFE716981BB070470607080901020304A6
:101D00000410024000093D002C1002400024F400A1
:101D100000127A0030100240003FAB01809FD500D6
:101D200010B581B001466A46108010881F22034614
:101D3000134001229A408009144BC4581443C450E4
:101D400001B010BD10B581B001466A461080108800
:101D50001F220346134001229A408009F64BC458C3
:101D60009443C45001B010BD10B581B001466A461D
:101D7000108010881F220346134001229A408009D8
:101D8000ED4BC4581443C45001B010BD00100240C4
:101D900080B588B00790FEF74DFD06900798059036
:101DA00004A800210180FFE70020FFF70FFA04A933
:101DB00008800120FFF72AF8FFE704A800880599AA
:101DC000496800228842039211D2FFE7FEF732FDF4
:101DD0000699401A059989680122002388420293D6
:101DE000019201D30298019001980390FFE70398B4
:101DF000C0070028D8D1FFE7059801684268002095
:101E0000FFF702FA08B080BD85B0039002910192FD
:101E1000039800900398C00E002805D0FFE70398B0
:101E20001049884204D3FFE704A80021017015E09F
:101E3000FFE700980399019A891888420AD2FFE7C0
:101E40000098006802990A1D029208600098001D1F
:101E50000090EEE704A801210170FFE704A80078D4
:101E600005B070470100010880B586B004A80021C4
:101E700001800520039050480168096A890A02AA76
:101E800011800068006A02998902401A01A908803D
:101E9000432000F0E9FCFFE704A8008802A90988B4
:101EA000884233DAFFE70498401C80B2FEF748FF0F
:101EB00000280DD1FFE70398401E0390002801D5AC
:101EC000FFE723E000F092FC152000F0CDFCE3E7F3
:101ED0003C480068006804A909888902401837490D
:101EE000096840F2004200F0F1FC002804D1FFE74D
:101EF00005A8002101705BE0062000F0B5FC049805
:101F0000401C04A9088005200390C5E704A80088A8
:101F100002A90988884204DAFFE705A800210170B8
:101F200046E0FFE70398401E0390012834DBFFE7FB
:101F30000498401C01A90988C0B2FEF70BFE0028D6
:101F400004D1FFE7152000F08FFCEBE71B48016888
:101F500001AA128889181A4B9A1AFF230090084682
:101F600011461A46FEF7DCF816480068006804A916
:101F70000988890240180099096840F2004200F07F
:101F8000A5FC002804D1FFE705A8002101700FE09F
:101F9000062000F069FCFFE70398002804D5FFE75E
:101FA00005A80021017003E005A801210170FFE7E9
:101FB00005A8007806B080BD400000204800002041
:101FC000050400006404002080B584B003900398E9
:101FD000029002980168808801900846019900F0FB
:101FE0005DFA0020C04304B080BD80B582B04320BC
:101FF00000F03AFCFEF712FE002806D1FFE700F0E1
:10200000F5FB01A80021017006E0062000F02CFC81
:1020100001A801210170FFE701A8007802B080BD8E
:1020200080B586B0049004980390039801684268D4
:102030008068019008461146019AFFF7F7FC02A953
:1020400008700878C007002803D1FFE70620059034
:1020500003E00020C0430590FFE7059806B080BD6F
:1020600083B00020029001903348016801221204DD
:1020700011430160FFE70298401C02902E4800685F
:102080000121490408400190FFE701980021002840
:10209000009108D1FFE7029840F60001401A411E66
:1020A00088410090FFE70098C0070028E3D1FFE7D0
:1020B000214800688003002802D4FFE7FFE7FEE71D
:1020C0001E480168022211430522914301601C4809
:1020D00001680160016801600168016019490A68CE
:1020E00001231A430A600168174A11400160016820
:1020F0001D221204114301600F4801681A061143A2
:102100000160FFE70C4800688001002801D4FFE768
:10211000F8E70B480168032291430160016802223D
:1021200011430160FFE7064800680007002801D45A
:10213000FFE7F8E703B070470010024000200240BC
:10214000041002402C100240FFFFC27780B5FFF759
:1021500087FF80BD80B582B00A48006840F2E83150
:10216000B0FBF1F0FEF772FB002802D0FFE7FFE7BB
:10217000FEE70020C143019008460199FEF708FCE4
:1021800002B080BD1000002080B582B000F0D4FB0A
:1021900001A908700878002809D1FFE700F0C8FB02
:1021A00000F034F86420FEF731FEFEF775FC01A85C
:1021B0000078062802D1FFE7FEF76EFCFFE702B0C9
:1021C00080BD000080B58EB0684600F039F82C481C
:1021D0000AA90822FFF718FE00990B4A914207D07E
:1021E000FFE70B980A990140481C002804D1FFE73B
:1021F0000DA80121017003E00DA800210170FFE787
:102200000DA800780EB080BD5AA5AA55B0B58CB007
:102210000B900B98002801D1FFE70EE001A8011DEB
:102220000B9A38CA38C138CA38C138CA38C10021F7
:10223000C943019100F02CF8FFE70CB0B0BD0000DD
:1022400080B582B020492822019008460199FFF705
:10225000DBFD02B080BDC04680B582B008480949A8
:10226000FEF736FF08490190084600F099FB002868
:1022700004D1FFE7054800F0D3FBFFE702B080BDC3
:10228000003C0008FFEF000818000020A9360008F5
:1022900070B5ACB02B902B9803A90A4638C838C249
:1022A00038C838C278C878C20748084A02900191F5
:1022B0001146FEF70DFFA0220299009008460199F1
:1022C000FFF7B4FB2CB070BD00FC000827FC000831
:1022D00080B586B01A48FFF723FD0920C00601210A
:1022E00040F20022059004910392FFF746FA40F273
:1022F00000400599029008460499029AFFF73DFABA
:1023000002200599019008460199049A039BFFF762
:1023100096FA00200599009008460099049A039BBC
:10232000FFF7D5FA05980199049A029BFFF787FAFF
:1023300005980099049A029BFFF7C9FA06B080BD80
:102340001105000080B588B0B2481A4900F0D0F9F4
:1023500000282DD0FFE7AF481649069000F0A8F9F5
:10236000069800F01FF90221059008460491FEF737
:102370005DFD0498FEF772FE40F21841081A0790BE
:10238000079A4448002303901846039B029119467C
:10239000FEF7A4FF0499019008460399FEF72EFE6C
:1023A00004980299FEF74CFE0498FEF74FFDFFE7F4
:1023B00008B080BD0400040780B584B00390FFF727
:1023C00087FF1948FFF7ACFC9248029000F0FEF836
:1023D0000399029800F08EF80420029901900846B3
:1023E000019900F0B8F90821029800F0C3F90298A9
:1023F00000F025F900F01CF81B2000210091FFF7E8
:10240000EBFA0298019900F040F940F2006100985F
:10241000FEF71CFF002804D1FFE7044800F000FB92
:10242000FFE704B080BDC0460E0600008C360008F1
:1024300080B58AB040F20050FFF772FC0220029093
:10244000FEF724FD03A800218176124A059201229D
:102450004276069140F2184207920F4A03920176A3
:10246000049143F2000108910299019008460199F4
:10247000FEF73AFD0298FEF7F9FC0298FEF7CEFD52
:102480000298FEF7E3FC6348402100F0C9F80AB067
:1024900080BDC0464C0000202438014080B584B087
:1024A0000A46039002A8018001A800210180FFE7ED
:1024B00001A8008802A90988884216DAFFE7FFE729
:1024C00054480B4900F0C4F8002801D1FFE7F7E7B2
:1024D000039801A90988415C4E4800F06BF8FFE7BA
:1024E0000198401C01A90880E2E704B080BDC04605
:1024F0000707000080B588B007900691002005907E
:1025000004900390029007984149884201900AD0B4
:10251000FFE74048019981420AD1FFE70520FFF714
:10252000BBFA059005E00220FFF7B6FA059000E03F
:10253000FFE7079800680004002818D5FFE7059812
:10254000400006994A088018B0FBF1F0029002980A
:1025500013490840049002980007400F039004A814
:10256000008803A9098808430799C86016E0059800
:1025700006994A088018B0FBF1F0029002980849C9
:102580000840049002980F210840039004A8008896
:1025900003A9098808430799C860FFE708B080BD10
:1025A000F0FF000081B000900098406A06490840A2
:1025B00001B0704782B00190009100980249084034
:1025C0000199886202B07047FF01000080B584B0B5
:1025D000039003980E49884202900DD0FFE70D4802
:1025E0000299814210D1FFE70C480190FFF7BCFB34
:1025F0000198FFF7A7FB08E007480090FFF7B4FB3E
:102600000098FFF79FFB00E0FFE704B080BDC046E5
:102610000044004000380140110400000E03000097
:1026200082B00190009101988168402291438160BD
:10263000009801998A6802438A6002B0704781B0AD
:1026400000900098016801221143016001B07047B9
:1026500083B00A46019068460180019903889B096E
:10266000C95800881F231840C140C807002804D05B
:10267000FFE702A80121017003E002A80021017018
:10268000FFE702A8007803B0704710B582B00A4691
:1026900001906846018000881F2103460B400121FC
:1026A0009940019B80091C580C431C5002B010BD7E
:1026B00082B00190009100980C49884208D1FFE750
:1026C0000198D021425848F200039A4342500BE04F
:1026D00000981F2109040840000C01218140019845
:1026E000026A0A430262FFE702B0704709340F34FE
:1026F00010B585B0039002910020019000900398DE
:1027000002A909888909405802991F221140012312
:102710001C468C402040019003980299890D405836
:10272000029912041140090C8B4018400090009847
:10273000002808D0FFE70198002804D0FFE704A88C
:102740000121017003E004A800210170FFE704A843
:10275000007805B010BD82B0019000910198016829
:10276000042291430160009801990A6802430A60BB
:1027700002B0704782B00190009101980168082270
:1027800091430160009801990A6802430A6002B00F
:102790007047000085B00A46049003A8018002A893
:1027A00000210180FFE703A801884A1E028000295A
:1027B00016D0FFE702A8417801AA11800299090208
:1027C0006B46198000991288049B1B785A4052006E
:1027D000054B9A5A514001800498401C0490E2E74E
:1027E00002A8008805B070478C34000880B582B01C
:1027F000FFE701A80121002200F006F8002801D01F
:10280000FFE7F6E702B080BD10B58AB013460C466C
:10281000089007A8018006A8028080480068006927
:10282000002804D1FFE709A80021017018E00898EA
:10283000039007A80188049106A9098805917749A2
:102840000968096903AA0190104688470290019817
:102850000188029A891A4A42514109AA1170FFE778
:1028600009A800780AB010BD80B584B0014603AA5B
:102870001070039802AA1070012001901046019A6E
:102880000091114600F002F804B080BD80B586B01A
:102890000A46059004A8018060480068C0680028C6
:1028A00001D1FFE70FE00598019004A8008802908D
:1028B0000020039059480068C06801A900900846AC
:1028C00000998847FFE706B080BDC04680B58AB052
:1028D000089007910692514800688068002804D14A
:1028E000FFE709A8002101701DE0089803900798F0
:1028F00004900698059049480068806803A90190F3
:1029000008460199884702900298062807D1FFE7F8
:1029100022480621017009A80021017003E009A8DE
:1029200001210170FFE709A800780AB080BDC04608
:10293000384800687047C04680B582B017480078B4
:10294000002804D1FFE701A80021017021E0FFF772
:102950004CFB002805D1FFE71048007801A908705A
:1029600017E0FFF781FA002805D1FFE70B48007850
:1029700001A908700DE0FEF77FFB002805D1FFE7F5
:102980000648007801A9087003E001A80021017041
:10299000FFE701A8007802B080BDC0461400002007
:1029A00080B584B002900298002804D1FFE703A804
:1029B0000021017027E0242000F0EEFC0190019836
:1029C000002804D1FFE703A8002101701BE0104894
:1029D00000F0E2FC00900098002807D1FFE7019882
:1029E00000F0B0FC03A8002101700CE00198094937
:1029F000086000980849086002980849086003A820
:102A000001210170FFE703A8007804B080BDC04633
:102A1000050400004000002048000020640400205D
:102A20000FB410B503A9044B044A029800F0EEF865
:102A300010BC08BC04B01847ED16000800000020C8
:102A40002021020C01D010211046020A01D01046AC
:102A50000839020901D01046091F820801D010462A
:102A6000891E420801D0881E7047081A704700006E
:102A7000004870470C00002002E008C8121F08C17F
:102A8000002AFAD170477047002001E001C1121FEF
:102A9000002AFBD170470000F0B51FB486B009983A
:102AA000089A030D0021024314D05148514A1818C6
:102AB000504305141198012810981AD0281A401C68
:102AC00000264D4F4D49009601910490002812DADE
:102AD000444211E01198012449A3012801D1109822
:102AE000C1430698119A84600360C26041600BB0D4
:102AF000F0BD4042E4E70446210500203F4A001CA7
:102B000051410391029012E0E00707D032463B4664
:102B100001990098FDF7A6FC0191009032463B46D2
:102B200010461946FDF79EFC06460F466410002C21
:102B3000EAD10498039B0028029A0999089806DABA
:102B4000FDF790FC019B009AFDF78CFC05E0FDF77A
:102B5000F1FC019B009AFDF7EDFC04460E460022B5
:102B6000284BFDF77FFD03D80020C043014607E056
:102B70000022254B20463146FDF7C2FBFDF752FDF2
:102B8000102409E0002C0ADB0A220023FDF730FBA9
:102B9000079B30321A55641E02460A43F2D11122B5
:102BA000641C079B121B1C19119B012B03D00123D2
:102BB00008430ED10AE0084304D0112010900020F1
:102BC000119077E71098151A6D1E0BE0109882424D
:102BD00002DD00236D1C03E0824201DA00236D1E3A
:102BE000002BEED0069811998260C16030C07EE75C
:102BF00001FCFFFF104D0000000014400000F03FFA
:102C0000300000000000F0430000E03FFFB597B047
:102C10000646002518E2252877D100242746FD49DD
:102C2000049400E00443761C32780120203A90405E
:102C30000842F7D130782A280ED002223078014697
:102C40003039092916D804990A23594330394018D4
:102C50001443761C0490F1E7189802C80491189068
:102C6000002904DA01204003044348420490022072
:102C70000443761C30782E2814D104200443707845
:102C8000761C2A2809D11898761C80C8189009E06B
:102C90000A214F43303FC719761C3078014630393E
:102CA0000929F5D930786C2810D006DC4C281AD0C8
:102CB00068280ED06A2817D104E0742813D07A2827
:102CC00012D110E00120400504430CE00121090568
:102CD00001E0032109050C437178814203D10120F1
:102CE00000052418761C761C3078119066280BD0CD
:102CF00013DC58287DD009DC00287BD04528F6D08D
:102D00004628F4D047281AD1A5E118E0632835D029
:102D1000642870D0652812D19DE170286CD008DC41
:102D20006728F1D069287BD06E280DD06F2806D196
:102D3000BAE073282ED0752871D0782859D01A9A05
:102D4000199990476D1C7EE16002400F022809D05E
:102D500003280DD00428189801680DD00D60001DBF
:102D6000189070E11898EA1701680D604A60F6E75C
:102D7000189801680D80F2E70D70F0E718986A4620
:102D800001781172001D18900020507202A8009066
:102D9000012005E0189802C8189000200091C04357
:102DA00061070DD5002101E00199491C0191B9424B
:102DB00012DA8142F8DB009A515C0029F4D10BE071
:102DC000002101E00199491C01918142FADB019A3D
:102DD0000099895C0029F5D1019904981A9B471A3A
:102DE00021463846199A00F097FA0199401945187A
:102DF0000BE04FE02CE113E04EE0009800990078E2
:102E0000491C00911A9A199990470198401E019007
:102E1000401CF2D1214638461A9B199A10E137E03E
:102E20000A200021009001916002410F022907D081
:102E3000189A01CA1892C2179446032908D00AE0CA
:102E40001898C01DC108C90005C91891944607E02B
:102E500000B2C2179446042902D140B2C1178C4671
:102E600000226146944506DA0A460021404291411B
:102E70008C462D2102E0210504D52B216A461173D1
:102E8000012103E0E10701D02021F7E7029155E09D
:102E90000A200AE0102008E0102000900021042001
:102EA00004430191082703E00820002101910090CC
:102EB0006002410F022907D0189A01CA1892002215
:102EC0009446032908D008E01898C01DC108C9001D
:102ED00005C91891944603E080B2042900D1C0B21C
:102EE00000210291210729D51199702906D0009A55
:102EF0001021019B4A401A4305D00EE040216A464A
:102F00001173012108E06146014306D030216A4671
:102F100011731199517302210291009A0821019BAA
:102F20004A401A430AD16146014301D1610705D5E0
:102F300030216A46117301217F1E0291119958298F
:102F400004D035A10E910DA90D910DE037A1F9E73F
:102F50006146019B009AFDF74BF90E9B8C469B5CEA
:102F60000D9A521E0D92137061460143F0D10D98D7
:102F700005A9081A20300190600703D5012000043C
:102F8000844300E001270198874201DD381A00E000
:102F90000020019900904118029809180498401ADD
:102FA0000490E00306D421461A9B199A049800F075
:102FB000B3F94519002706E003A81A9AC05D1999CC
:102FC00090476D1C7F1C02988742F5DBE0030CD50F
:102FD00021461A9B199A049800F09EF9451904E0BD
:102FE0001A9A3020199990476D1C0099481E00903C
:102FF0000029F5DC08E00D980D990078491C0D9129
:103000001A9A199990476D1C0199481E0190002940
:10301000F1DC63E1092801003031323334353637D1
:103020003839616263646566000000003031323314
:1030300034353637383941424344454600000000B4
:1030400000F05AF94519761C3078002800D0E2E5E6
:1030500028461BB0F0BD600700D406271898C01D95
:10306000C108C90048680A680831C30FDB07189116
:10307000190001D09CA108E0210501D59BA104E025
:10308000E10701D09AA100E09AA1430011985B08E2
:10309000109165280CD006DC452809D046281DD0A3
:1030A000472841D141E0662818D067283CD13CE050
:1030B0000021112F01DB112000E0781C019100900C
:1030C00008A911A8FFF7E8FC139905910021119AAE
:1030D00015927F1C12980197009150E00120C007C3
:1030E00003900120019008A9009711A8FFF7D4FCD4
:1030F000139A149905920022119B0092129815932D
:10310000059A0192002901D0104602E0791C40186E
:103110000190381A01D5019804E04042401E009009
:10312000781C0190C01B029043E0012F00DA0127B8
:103130000021112F01DD112000E03846019100909F
:1031400008A911A8FFF7A8FC13990591119A00216D
:10315000129815920091019721070CD40599B94254
:1031600001DB019900E00191012904DD159A491E56
:10317000515C302906D0B84201DA011D05DA01217F
:10318000029115E00199491EEDE7002805DC009940
:10319000411800910199091A03E0019A411C9142DA
:1031A00000DD01910099401A401C02900120C007E7
:1031B0000390200706D402990198814202DB002087
:1031C000C043029000206946C87707AF01210398E9
:1031D0000337C907884224D0022011902B20129077
:1031E000039800280CDA404203902D20129007E04B
:1031F0000A210398FDF75CFA30317F1E0390397085
:103200001199481E11900029F2DC03980028EFD193
:10321000791E129808703078202108404530BF1E72
:10322000387006A8C01BC01D0390109800780028B5
:1032300000D00120019941180298C017091803987D
:1032400009180498401A401E0490E00306D4214651
:103250001A9B199A049800F05FF8451910980078A5
:10326000002803D01A9A199990476D1CE00324D5C1
:1032700021461A9B199A049800F04EF845191CE053
:103280000098002807DB00990598884203DD15980F
:10329000405C199901E0199930201A9A90470098DA
:1032A0006D1C401C00900298401E0290002804D122
:1032B0001A9A2E20199990476D1C0199481E019069
:1032C0000029DDDC05E038781A9A7F1C19999047AF
:1032D0006D1C0399481E03900029F4DC21461A9BBB
:1032E000199A0498ACE600002D0000002B000000A5
:1032F0002000000000000000F8B5044600251E462E
:103300001746880404D405E039462020B0476D1CD8
:10331000641EF9D52846F8BDFFB50446002581B0E6
:103320001E46C80301D5302700E02027880404D5B5
:1033300005E038460399B0476D1C641EF9D5284650
:1033400005B0F0BD10B5002823D0124B0022001F9D
:10335000196803E0814203D80A4649680029F9D177
:10336000002A0AD01368841A9C4204D100681818F5
:103370001060104602E0506000E01860002907D09D
:1033800002680B1A934203D10B68D2180260496895
:10339000416010BD04000020F0B50B30C108C90029
:1033A000144F0026144A0FE003688B420BD38B4264
:1033B00005D95C1A4318456830C3083B00E04368F0
:1033C000136002C004E0021D10680028ECD13046F2
:1033D000002803D13868002801D00020F0BD064A3B
:1033E00006481060064A121AD208D20044C00120D2
:1033F0003860D7E708000020040000206C0400209B
:103400006810002000404040404040404040414162
:1034100041414140404040404040404040404040A9
:103420004040404040050202020202020202020243
:103430000202020202202020202020202020200240
:1034400002020202020290909090909010101010D0
:10345000101010101010101010101010101010106C
:103460000202020202028888888888880808080800
:1034700008080808080808080808080808080808CC
:103480000202020240000000053400080000211082
:10349000422063308440A550C660E77008812991BE
:1034A0004AA16BB18CC1ADD1CEE1EFF13112100266
:1034B00073325222B5529442F772D662399318830E
:1034C0007BB35AA3BDD39CC3FFF3DEE36224433432
:1034D00020040114E664C774A44485546AA54BB55E
:1034E00028850995EEE5CFF5ACC58DD55336722606
:1034F00011163006D776F6669556B4465BB77AA7AE
:1035000019973887DFF7FEE79DD7BCC7C448E55851
:103510008668A7784008611802282338CCC9EDD9FD
:103520008EE9AFF9488969990AA92BB9F55AD44AA5
:10353000B77A966A711A500A333A122AFDDBDCCB4D
:10354000BFFB9EEB799B588B3BBB1AABA66C877C71
:10355000E44CC55C222C033C600C411CAEED8FFD9D
:10356000ECCDCDDD2AAD0BBD688D499D977EB66E45
:10357000D55EF44E133E322E511E700E9FFFBEEFED
:10358000DDDFFCCF1BBF3AAF599F788F8891A981AF
:10359000CAB1EBA10CD12DC14EF16FE18010A10099
:1035A000C230E3200450254046706760B983989389
:1035B000FBA3DAB33DC31CD37FE35EF3B1029012E9
:1035C000F322D2323542145277625672EAB5CBA555
:1035D000A89589856EF54FE52CD50DC5E234C32439
:1035E000A01481046674476424540544DBA7FAB729
:1035F0009987B8975FE77EF71DC73CD7D326F23689
:103600009106B01657667676154634564CD96DC974
:103610000EF92FE9C899E9898AB9ABA944586548D8
:1036200006782768C018E1088238A3287DCB5CDBC8
:103630003FEB1EFBF98BD89BBBAB9ABB754A545A28
:10364000376A167AF10AD01AB32A923A2EFD0FED94
:103650006CDD4DCDAABD8BADE89DC98D267C076C78
:10366000645C454CA23C832CE01CC10C1FEF3EFF68
:103670005DCF7CDF9BAFBABFD98FF89F176E367EC8
:10368000554E745E932EB23ED10EF01E757361726C
:1036900074206669666F207265676973746572204D
:1036A0006661696C65640D0A00796D6F64656D20F3
:1036B000736C61766520696E6974206661696C65FA
:1036C000640D0A002E62696E00000000F0360008EA
:1036D0000000002030000000782A00082037000891
:1036E0003000002038140000882A00080000000084
:1036F00000000000000000000000000000000000CA
:1037000000A24A0401000000003C000800B40000D0
:1037100021200008C91F0008911D000800000000BA
:04000005080000CD22
:00000001FF
