:020000040800F2
:1000000068140020E1000008F3020008F102000873
:1000100000000000000000000000000000000000E0
:10002000000000000000000000000000F7020008CF
:100030000000000000000000F5020008F9020008BE
:10004000F3000008F3000008F3000008F3000008C4
:10005000F3000008F3000008F3000008F3000008B4
:1000600000000000F3000008F3000008F30000089F
:10007000F3000008F3000008F3000008000000008F
:10008000F3000008F300000800000000F30000087F
:10009000F3000008F3000008F3000008F300000874
:1000A000F3000008F3000008F3000008E90300086B
:1000B000F300000800000000000000000000000045
:1000C000F300000800000000F30000080348854624
:1000D00000F0E6F800480047810D00086814002091
:1000E0000448804704480047FEE7FEE7FEE7FEE7D6
:1000F000FEE7FEE7FD020008CD00000803460B43C3
:100100009B0703D009E008C9121F08C0042AFAD2CD
:1001100003E00B780370401C491C521EF9D2704753
:10012000D2B201E00270401C491EFBD2704700228F
:10013000F6E710B513460A4604461946FFF7F0FFE6
:10014000204610BD30B505462A460B4610781C786F
:10015000521C5B1C002801D0A042F7D0002C03D019
:10016000002802D06D1CEFE7284630BD421C017804
:10017000401C0029FBD1801A7047F7B582B00F46AA
:100180000026029C01F0C8FB0090006801902578D1
:10019000641C002D05D000F02BF80068405DC007FE
:1001A000F5D12B2D02D02D2D1CD0641E00980021DE
:1001B000016039462046049A00F01EF80146002FDF
:1001C00004D03868A04201D10298386000980068D5
:1001D00002280BD00098019A0260700506D54842AB
:1001E00005B0F0BD012080020643DFE70846F7E7CF
:1001F00000487047A41A0008F7B582B0029C002797
:100200002078641C15460197302802D0002D15D0A7
:1002100015E020780127641C782804D0582802D0E3
:10022000002D09D00BE0002D01D0102D07D10027A3
:1002300010252078641C02E0082500E00A2500262D
:10024000009610E00099012769430818020C29461E
:1002500080B2714300908E183804864201D3012089
:1002600001902078641C294600F02CF80028E9DA77
:100270000398002805D0002F01D0641E00E0029CE6
:1002800004600198002806D001F046FB02210160BD
:10029000C81E05B0F0BD009930040843F9E700001E
:1002A000064C0125064E05E0E36807CC2B430C3CC9
:1002B00098471034B442F7D3FFF70CFFB81C00087E
:1002C000D81C00083A2800D23038202302469A432E
:1002D000412A01D310463738884201D30020C04359
:1002E00070470000014800687047C0463000002099
:1002F000FEE770477047704700F012BAF0B4344818
:10030000021F136801210B43136013689B07FCD580
:100310000368304C1C40046004682F4B1C40046090
:1003200014682E4D25401560846A0F25AC43846205
:10033000C46A40F20315AC43C4620C04C56AA54309
:10034000C562CD07C66AAE43C662056B8D430563C1
:10035000002545601568254315604C04204D16683E
:100360006F1EAF4202D226403D46F8D015682542A6
:100370002DD01C4D2E68022426430527BE432E6037
:10038000056805600568056005680560856A0D43B8
:10039000856205681D4005601D231B0405681D431B
:1003A00005600B0615681D43156013689B01FCD59D
:1003B000026803239A4302600268224302600268D3
:1003C0001207FCD5C8060021F0BC00F021BDFEE7F5
:1003D000041002400C00FF08FFFFC277FFFFF2FE8F
:1003E000FF0700000020024000F0C8BF80B584B0C5
:1003F000014602AA107001A80122C64B00911146C5
:100400001A4601F07DF9002804D1FFE703A8002176
:10041000017009E001A8007802A90978401A414258
:10042000484103A90870FFE703A8007804B080BD25
:1004300080B588B007900691079806994018401F2C
:10044000059004A800210180079A069B5B1F9BB2C0
:10045000039010460291194601F018F9039908809B
:100460004878059A127890420298019009D1FFE7E6
:1004700004A8007805994978401A41424841019002
:10048000FFE701980121084008B080BD10B588B091
:100490000A46034606AC207005A801800088802823
:1004A00007DCFFE704A88521018003A80121017072
:1004B00006E004A89649018003A802210170FFE725
:1004C000924800680290029804A90988914A01F0B4
:1004D00017F9002807D1FFE78F480221017007A80C
:1004E0000021017031E00298007803A90978884260
:1004F00010D1FFE70298407806A90978884209D10F
:10050000FFE70298807806A90978FF2251408842C7
:1005100007D0FFE7E5480321017007A8002101701B
:1005200013E00298C11C04AA1388DB1E01921A462C
:10053000FFF7E4FD0299019A1388009008461946D6
:10054000FFF776FF07A90870FFE707A8007808B053
:1005500010BDC04680B588B0D648006806900698A1
:1005600085216C4A01F0CCF8002807D1FFE7CF487D
:100570000221017007A80021017075E0069800783B
:1005800001280AD1FFE706984078002805D1FFE747
:1005900006988078FF2807D0FFE7C4480321017040
:1005A00007A8002101705FE00698C11C8222FFF7B6
:1005B000A5FD06998522039008461146FFF738FFEE
:1005C000002807D1FFE7B9480321017007A80021DF
:1005D000017049E00698C01C254900F0CDFA05904D
:1005E0000598401C002807D1FFE7B048032101709F
:1005F00007A80021017037E01E4801680022CA6187
:100600008A614A610A61CA608A604A600A60016858
:10061000069AD21C059B1B1D0290084611461A46DD
:10062000FFF76CFD0699059A5118083104AA0A23B0
:100630000190084611461A46FFF79FFD02990A6885
:1006400010620868006A9A4A12685268904207D994
:10065000FFE796480421017007A80021017003E01C
:1006600007A801210170FFE707A8007808B080BD46
:10067000B01C00084000002080B586B0014604AAE6
:1006800010808C48006803900398214A214B029106
:1006900011461A4601F034F8002807D1FFE78348D5
:1006A0000221017005A8002101702AE0039800785A
:1006B000022810D1FFE70398407804A909888842EE
:1006C00009D1FFE70398807804A90978FF225140F7
:1006D000884207D0FFE775480321017005A8002173
:1006E00001700EE00398C11C0C4AFFF707FD039947
:1006F000074A019008461146FFF79AFE05A90870BF
:10070000FFE705A8007806B080BDC046480000207D
:1007100005040000B80B00001400002002040000D3
:100720000948016811B10168491E01600248016869
:10073000491C01607047C046300000200249086033
:1007400008680028FCD17047340000201421414380
:100750003B480A5801239A430A50704714214143E9
:1007600037480A58012313430B5070471421414363
:1007700033480A5820239A430A50704710B5142270
:1007800042430949521853680124A343536000238C
:1007900053609360D360136180000F228240086829
:1007A0001043086010BDC04604000240B0B51422DA
:1007B0004243234813580124A343135013180C68D1
:1007C0009C608C68DC600C8A5C60135843F6007493
:1007D000A3434C681C43CB6823434C691C4314500F
:1007E0000B7E5B1E5C425C41A30114584025AC4368
:1007F000E31813504B7E5B1E5C425C41E3011458CE
:100800008025AC43E3181350897E4B1E99410901A2
:1008100013581024A34359181150B0BD1422424359
:10082000014811507047C046140002401421414352
:1008300003480A5844F200039A430A507047C046DE
:10084000080002401422424388B2044950507047C5
:1008500014214143014808587047C0460C0002402B
:1008600080B584B00420FFF7C1FD002804D1FFE764
:1008700003A80021017015E0062000F071FF0B486D
:10088000002101700A4801600A480268029010467F
:10089000019101F055F801980299086003AA01231B
:1008A0001370FFE703A8007804B080BD1400002097
:1008B0006404002048000020F0B581B00446002008
:1008C000A1421FD30D46E10E1CD00F498D4219D80D
:1008D00000F0FCF8342000F0BBF8281B850A002645
:1008E00040F2004720460949084000F0BDF8E419ED
:1008F000761CB0B28542F5D2342000F0A9F800F0A1
:10090000ABF8012001B0F0BD0000010800FCFFFFC2
:1009100001460020012906D889004C4A515811B1DE
:100920000A6802B18868704770B50C46014600201D
:10093000012929D88900454B5D582DB3296819B381
:1009400014B30AB3AE68FEB1964200D31646686986
:1009500000B180472969304604E0641CAA68521E31
:10096000AA6068B14A1C2A61097821702A686968FE
:100970005318401E29699942EFD32A611146ECE7CA
:10098000A86910B18047304670BD304670BDC04682
:10099000F0B581B0002401281ED887002B48C0592B
:1009A000D0B90D461C2000F0F5FFA8B10646284638
:1009B00000F0F0FF044650B12448C0190660002042
:1009C00030C630607460B460F060306102E0304680
:1009D00000F0B6FF601E8441204601B0F0BDC04665
:1009E00070B50C460146002001292BD88900174B11
:1009F0005D583DB3296829B324B31AB36968AB685D
:100A0000CE1A1FD0964200D31646686900B18047BF
:100A1000E968304604E0641CAA68521CAA6068B108
:100A200022784B1CEB600A702A6869685318401ED4
:100A3000E9689942EFD3EA601146ECE7A86910B182
:100A40008047304670BD304670BDC046380000203B
:100A50003D4908607047C0460248016880220A4349
:100A60000260704710200240B0B50146364A374C4C
:100A7000052023461568ED0702D05B1CFAD3B0BDF4
:100A80001068C00613D41068400802231840F6D13D
:100A90005068184350609160506840210143516094
:100AA00005201168C90704D0641CFAD309E00420AA
:100AB000B0BD1068C00603D410684008184000E0BC
:100AC0000420516899435160B0BDC0460448C168D4
:100AD000090603D503490160034901607047C04618
:100AE0000420024023016745AB89EFCD70B5024673
:100AF000154B164C052025461E68F60702D06D1CC6
:100B0000FAD370BD1868C00610D4186840080226D1
:100B10003040F6D1586801252843586011600520FF
:100B20001968C90704D0641CFAD309E0042070BD19
:100B30001868C00603D418684008304000E004205C
:100B40005968A943596070BD0C2002400000F1FFB4
:100B500070B50446064D074E2846314600F051FD5B
:100B60000028F9D0E1B2284600F01CFD204670BDF7
:100B7000003801400707000080B586B0049003915B
:100B800004980399FFF7DEFA02900298002804D136
:100B9000FFE70020C04305900CE00498FFF7E6FA59
:100BA00001900298FFF7E2FA009001980099401A2C
:100BB0000590FFE7059806B080BD0000F0B588B04D
:100BC0000F23DD43036AD40701D02B400B43039569
:100BD000F024E6430F0194070297054601D5334000
:100BE0003B432F4F08025407069001D53B40034377
:100BF0002C4F08031407079501D53B4003430F040E
:100C0000D4060196009702D5274C23403B43274E3C
:100C10000F05940601D533403B43254D0E0654067F
:100C2000049601D52B4033430597224D0F07140638
:100C300001D52B40DB19079D6C6A2B62D30502D5C9
:100C4000039B1C400C43069B154D910503D5019950
:100C50000C4002990C43134E510501D52C401C4306
:100C6000124B144D110501D534400443D10403D572
:100C70000D480440009804430598910401D51C4098
:100C8000044304980A4B510401D51C400443110449
:100C900001D52C40E4190798446208B0F0BDC04665
:100CA000FFF0FFFFFF0FFFFFFFFFF0FFFFFF0FFF52
:100CB000FFFFFFF0FFFFFF0FF0B582B00193056863
:100CC0000090C0680026374603E0B61C7F1C102F3A
:100CD0000ED0019BFB40DB07F7D01346B340032443
:100CE000B440A04318430B46B340A5431D43ECE773
:100CF00000990D60C86002B0F0BDF0B581B0012967
:100D000002D14168194301E0416899434160009074
:100D1000816800240320264603E0A41C761C102EC4
:100D20000AD01F46F740FF07F7D01746A7400546F1
:100D3000A540A9433943F0E70098816001B0F0BDB8
:100D400001680B4A0A40012149078A4207D14168DC
:100D50000A4A1160006880F3088810680047BFF3F2
:100D60004F8F044804490160BFF34F8F00BFFDE778
:100D70000000FE2F0CED00E00400FA054400002006
:100D800000F0BAFA10B90748FFF7DAFF00F052FA9C
:100D9000E120400200F022FB00F0CCFA00F070FAF3
:100DA000FCE7C046003C000870B540B2002817D4EC
:100DB000032302469A43144BD4588507ED0EFF26B1
:100DC000AE40B4438901C9B2A9402143D1501F218B
:100DD000014001228A40400980000C49425070BD08
:100DE0008207D20EFF2494400F230340083B0320C8
:100DF000834304481D58A5438901C9B29140294342
:100E0000195070BD1CED00E000E400E000E100E0DE
:100E1000024A0A40024302480260704780FFFF1FF7
:100E200008ED00E0F0B581B014460D460646FFF728
:100E30004DFE3420FFF70CFEA7190124B7420DD94F
:100E400029683046FFF752FE20B92D1D361DBE42DF
:100E5000F6D303E03420FFF7FBFD0024FFF7FCFD91
:100E6000204601B0F0BD0000F0B50146424B1868C5
:100E70000007820F414C022A03D0012A1BD1404CAB
:100E800019E01A689202120F0F2A01D0941C00E098
:100E900010241D682D0101D5113214461A68D203A1
:100EA00007D59A6A0F2515406A1C354DB5FBF2F23D
:100EB00000E0344A54431D6818681A6805291DD893
:100EC0002D062D0F30A77F5D2546FD409204520F61
:100ED000314FBB5C2A46DA408B0001A6F3189F46CF
:100EE00000F00AB800F00DB800F00DB800F02BB813
:100EF00000F00FB800F016B8224624E00022104699
:100F0000F0BD2846F0BD4005400F385CC54028467E
:100F1000F0BD1949C86AC00517D4C86AC0031ED5F8
:100F20001F48F0BD144BD86A800714480BD0DA6A0A
:100F300003210A40012A224605D0DC6A0C4048F20F
:100F40000002022C12D11046F0BD08680004800F88
:100F5000C96A002905D4B2FBF0F21046F0BD0F4873
:100F6000F0BD401CB5FBF0F21046F0BDDA6A0A4055
:100F7000032A00D00020F0BD0410024000127A00C5
:100F80000024F40000093D00000000000000000003
:100F90000102030406070809A81C0008809FD50069
:100FA000003FAB011F21014001228A4080090C490A
:100FB00043581343435070471F21014001228A4088
:100FC0008009074943589343435070471F2101400C
:100FD00001228A4080090249435813434350704715
:100FE00000100240F0B581B00446FFF77BF9009095
:100FF000002601273046FFF78BFC05463846FFF7F1
:101000009DFB6268A8B2904207D2FFF76BF9009986
:10101000401AA1688842EDD362682168002001B0BF
:10102000F0BC08BC9E46FFF77FBC0000B0B503468D
:101030001F20C0061C1801200504AC4206D8D21897
:101040009A4203D920CB20C19342FBD302498C4260
:1010500000D30020B0BDC0460100010080B586B0BD
:1010600004A8002101800520039056480168096A00
:10107000890A02AA11800068006A02998902401A4E
:1010800001A90880432000F06BFBFFE704A800885B
:1010900002A90988884233DAFFE70498401C80B22D
:1010A000FFF7EAFA00280DD1FFE70398401E0390EE
:1010B000002801D5FFE723E000F014FB152000F025
:1010C0004FFBE3E742480068006804A909888902E9
:1010D00040183D49096840F2004200F073FB0028C7
:1010E00004D1FFE705A80021017066E0062000F0AA
:1010F00037FB0498401C04A9088005200390C5E72D
:1011000004A8008802A90988884204DAFFE705A834
:101110000021017051E001A80088002804D1FFE7F8
:1011200005A80121017048E005200390FFE703981E
:10113000401E0390012834DBFFE70498401C01A9FE
:101140000988C0B2FFF7A2F9002804D1FFE71520F3
:1011500000F006FBEBE71C48016801AA1288891819
:101160001A4B9A1AFF230090084611461A46FEF7BA
:10117000D7FF17480068006804A909888902401849
:101180000099096840F2004200F01CFB002804D1DD
:10119000FFE705A8002101700FE0062000F0E0FA4B
:1011A000FFE70398002804D5FFE705A80021017098
:1011B00003E005A801210170FFE705A8007806B04B
:1011C00080BDC0464000002048000020050400000B
:1011D0006404002080B58188006800F09DF900203B
:1011E000C04380BD80B582B0432000F0B9FAFFF75C
:1011F000B1F9002806D1FFE700F074FA01A8002138
:10120000017006E0062000F0ABFA01A80121017090
:10121000FFE701A8007802B080BD80B5036841688F
:1012200082681846FFF7FEFD08B9062080BD002041
:10123000C04380BD10B50E48006840F2E831B0FBF5
:10124000F1F0411E080E00D0FEE70A480A4A51603C
:101250000A490B6803400324A4071B190B600023F1
:101260009360072313600A6802400A6010BDC046FD
:1012700010000020FFFFFF0010E000E020ED00E084
:10128000B0B5A8B000F0D4FA062825D068BB00F0AD
:10129000CBFAA8B10021C94300916C46211D2CC88E
:1012A0002CC12CC82CC12CC82CC1204D294627315B
:1012B0002846FFF701FBA02228462146FFF7B2FD92
:1012C0006420FFF73BFABFF34F8F094809490160DB
:1012D000BFF34F8F00BFFDE7BFF34F8F04480549B1
:1012E0000160BFF34F8F00BFFDE728B0B0BDC0461F
:1012F0000CED00E00400FA0580B58CB00B4869469F
:101300002822FFF793FE13480AA90822FFF78EFE52
:10131000074800990818414241410B980A9A024037
:10132000521C5042504108430CB080BD00FC0008E4
:10133000A65A55AA80B507480749FFF7BDFA0748DE
:1013400000F0AAFA00B180BD05A080BC02BC8E46A8
:1013500000F056BB003C0008FFF700081800002012
:10136000796D6F64656D20736C61766520696E6957
:1013700074206661696C65640D000000B0B5974C1F
:10138000154D2046294600F061F920B32046294634
:1013900000F048F9204600F001F902242046FFF74A
:1013A000D5F92046FFF754FA40F218410A1A0020F6
:1013B000514D2946FFF714FB20462946FFF72EFA28
:1013C000204640F21841FFF73DFA2046B0BC02BC6F
:1013D0008E46FFF7C3B9B0BD04000407F0B589B06D
:1013E000019040F200501130FFF7DCFD0920C706E4
:1013F00001263846314640F20022FFF7DFFB38462F
:10140000314640F20042FFF7D9FB02253846294613
:10141000324640F20023FFF74FFC002438462146B5
:10142000324640F20023FFF768FC38462946324630
:1014300040F20043FFF740FC38462146324640F276
:101440000043FFF75AFC2A48FFF7ACFD294E30460F
:1014500000F0AEF83046019900F078F804273046E5
:10146000394600F002F90821304600F006F930460E
:1014700000F0C2F840F20050FFF794FD2846FFF755
:101480007DF902A98C7640F2001008831A48049076
:1014900040F2004018300690059430462430029007
:1014A00043F20000079003942846FFF77FF928468F
:1014B000FFF75CF92846FFF7B9F92846FFF74EF920
:1014C0004021304600F090F81B202146FFF76CFCCD
:1014D0003046394600F09DF8204640F20061FFF7A3
:1014E00057FA10B905A000F08BFA09B0F0BDC0465C
:1014F0000E060000003801404C0000207573617238
:1015000074206669666F20726567697374657220FE
:101510006661696C65640D00F0B581B0009089B1B9
:101520000C4600252D4E084F3046394600F069F82C
:101530000028F9D00098415D304600F033F86D1C6A
:10154000A542F1D101B0F0BD07070000B0B50D46CE
:1015500004462248844204D02148844205D1022016
:1015600000E00520FFF780FC00E00020216809046E
:1015700006D469084018B0FBF5F080B2E060B0BD59
:10158000690840004018B0FBF5F00349014000072E
:10159000400F4018E060B0BDF0FF0000416A034812
:1015A00008407047014A0A4082627047FF0100000C
:1015B00010B50A49884204D0094988420BD1094C28
:1015C00000E0054C2046FFF701FD204610BC02BCA0
:1015D0008E46FFF7F1BC10BD0E030000003801403D
:1015E0000044004011040000826840239A43826056
:1015F00082680A4382607047016801220A430260E0
:1016000070471F220A4089090958D140012008402B
:1016100070471F220A400123934089090A581A4340
:101620000A507047084A914206D1D021425848F2E8
:1016300000039A4342507047C902C90E01228A40F2
:10164000016A11430162704709340F341F220A40B6
:101650000B049B0D1B58D3408A0D1258C802C00EB4
:10166000C2401A40012010407047026804239A4388
:10167000026002680A4302607047026808239A43C6
:10168000026002680A4302607047000085B00A46A3
:10169000049003A8018002A800210180FFE703A8AD
:1016A00001884A1E0280002916D0FFE702A841786F
:1016B00001AA1180029909026B46198000991288CB
:1016C000049B1B785A405200054B9A5A51400180A6
:1016D0000498401C0490E2E702A8008805B0704717
:1016E000A81A000880B582B0FFE701A801210022F6
:1016F00000F006F8002801D0FFE7F6E702B080BD51
:1017000010B58AB013460C46089007A8018006A8B9
:101710000280804800680069002804D1FFE709A81A
:101720000021017018E00898039007A8018804912F
:1017300006A90988059177490968096903AA0190F2
:1017400010468847029001980188029A891A4A42F5
:10175000514109AA1170FFE709A800780AB010BD2D
:1017600080B584B0014603AA1070039802AA1070D5
:10177000012001901046019A0091114600F002F8F4
:1017800004B080BD80B586B00A46059004A80180EB
:1017900060480068C068002801D1FFE70FE00598A5
:1017A000019004A800880290002003905948006826
:1017B000C06801A90090084600998847FFE706B075
:1017C00080BDC04680B58AB0089007910692514806
:1017D00000688068002804D1FFE709A80021017093
:1017E0001DE00898039007980490069805904948D2
:1017F0000068806803A90190084601998847029013
:101800000298062807D1FFE722480621017009A89F
:101810000021017003E009A801210170FFE709A878
:1018200000780AB080BDC046384800687047C0469E
:1018300080B582B017480078002804D1FFE701A8DE
:101840000021017021E0FFF7CDFC002805D1FFE762
:101850001048007801A9087017E0FFF7FFFB002887
:1018600005D1FFE70B48007801A908700DE0FEF7ED
:10187000F7FF002805D1FFE70648007801A90870A6
:1018800003E001A800210170FFE701A8007802B081
:1018900080BDC0461400002080B584B0029002983C
:1018A000002804D1FFE703A80021017027E02420CD
:1018B00000F070F801900198002804D1FFE703A818
:1018C000002101701BE0104800F064F800900098BF
:1018D000002807D1FFE7019800F032F803A80021A3
:1018E00001700CE0019809490860009808490860F7
:1018F00002980849086003A801210170FFE703A8C6
:10190000007804B080BDC0460504000040000020FF
:101910004800002064040020004870470C000020AC
:1019200002E008C8121F08C1002AFAD170477047A8
:10193000002001E001C1121F002AFBD17047000006
:1019400010B5002823D0124B0022001F196803E0B5
:10195000814203D80A4649680029F9D1002A0AD0F1
:101960001368841A9C4204D100681818106010464D
:1019700002E0506000E01860002907D002680B1AEE
:10198000934203D10B68D21802604968416010BDD0
:1019900004000020F0B50B30C108C900144F002628
:1019A000144A0FE003688B420BD38B4205D95C1AB3
:1019B0004318456830C3083B00E04368136002C029
:1019C00004E0021D10680028ECD13046002803D145
:1019D0003868002801D00020F0BD064A0648106093
:1019E000064A121AD208D20044C001203860D7E754
:1019F00008000020040000206C0400206810002073
:101A000010B5044601E0FFF7A3F82078641C0349F1
:101A10000028F8D10A20FFF79BF810BD0000002035
:101A200000404040404040404040414141414140F1
:101A300040404040404040404040404040404040A6
:101A40004005020202020202020202020202020235
:101A5000022020202020202020202002020202023A
:101A60000202909090909090101010101010101092
:101A7000101010101010101010101010020202029E
:101A800002028888888888880808080808080808E2
:101A900008080808080808080808080802020202DE
:101AA00040000000211A000800002110422063308D
:101AB0008440A550C660E770088129914AA16BB1A6
:101AC0008CC1ADD1CEE1EFF131121002733252224E
:101AD000B5529442F772D662399318837BB35AA3F6
:101AE000BDD39CC3FFF3DEE362244334200401141E
:101AF000E664C774A44485546AA54BB52885099546
:101B0000EEE5CFF5ACC58DD55336722611163006ED
:101B1000D776F6669556B4465BB77AA71997388795
:101B2000DFF7FEE79DD7BCC7C448E5588668A778AD
:101B30004008611802282338CCC9EDD98EE9AFF9E5
:101B4000488969990AA92BB9F55AD44AB77A966A8D
:101B5000711A500A333A122AFDDBDCCBBFFB9EEB35
:101B6000799B588B3BBB1AABA66C877CE44CC55C5D
:101B7000222C033C600C411CAEED8FFDECCDCDDD85
:101B80002AAD0BBD688D499D977EB66ED55EF44E2D
:101B9000133E322E511E700E9FFFBEEFDDDFFCCFD5
:101BA0001BBF3AAF599F788F8891A981CAB1EBA129
:101BB0000CD12DC14EF16FE18010A100C230E320A5
:101BC0000450254046706760B9839893FBA3DAB34D
:101BD0003DC31CD37FE35EF3B1029012F322D232F5
:101BE0003542145277625672EAB5CBA5A89589851D
:101BF0006EF54FE52CD50DC5E234C324A014810445
:101C00006674476424540544DBA7FAB79987B897EC
:101C10005FE77EF71DC73CD7D326F2369106B01694
:101C200057667676154634564CD96DC90EF92FE9AC
:101C3000C899E9898AB9ABA94458654806782768E4
:101C4000C018E1088238A3287DCB5CDB3FEB1EFB8C
:101C5000F98BD89BBBAB9ABB754A545A376A167A34
:101C6000F10AD01AB32A923A2EFD0FED6CDD4DCD5C
:101C7000AABD8BADE89DC98D267C076C645C454C84
:101C8000A23C832CE01CC10C1FEF3EFF5DCF7CDF2C
:101C90009BAFBABFD98FF89F176E367E554E745ED4
:101CA000932EB23ED10EF01E00000000010203048C
:101CB0002E62696E00000000D81C000800000020A1
:101CC0003000000020190008081D00083000002026
:101CD0003814000030190008000000000000000067
:101CE000000000000000000000A24A040100000003
:101CF000003C000800BC00001B120008D5110008C1
:081D0000E50F000800000000DF
:04000005080000CD22
:00000001FF
